:1000000000000120750300005D0300005F03000095
:1000100061030000630300006503000000000000AE
:100020000000000000000000000000006703000066
:1000300069030000000000006B0300006D03000076
:100040006F0300006F0300006F0300006F030000E8
:100050006F0300006F0300006F0300006F030000D8
:10006000690500006F0300006F0300006F030000CC
:100070006F0300006F0300006F0300006F030000B8
:100080006F0300006F0300006F0300006F030000A8
:100090006F0300006F0300006F0300006F03000098
:1000A0006F0300006F0300006F0300006F03000088
:1000B0006F0300006F03000000000000000000005C
:1000C0006F0300006F0300006F0300006F03000068
:1000D0006F0300006F0300006F03000000000000CA
:1000E0000000000000000000000000000000000010
:1000F0000000000000000000000000000000000000
:1001000000000000000000000000000000000000EF
:1001100000000000000000000000000000000000DF
:1001200000000000000000000000000000000000CF
:1001300000000000000000000000000000000000BF
:1001400000000000000000000000000000000000AF
:10015000000000000000000000000000000000009F
:10016000000000000000000000000000000000008F
:10017000000000000000000000000000000000007F
:10018000000000000000000000000000000000006F
:10019000000000000000000000000000000000005F
:1001A000000000000000000000000000000000004F
:1001B000000000000000000000000000000000003F
:1001C000000000000000000000000000000000002F
:1001D000000000000000000000000000000000001F
:1001E000000000000000000000000000000000000F
:1001F00000000000000000000000000000000000FF
:10020000354936480A1A02D0072291438D463449AF
:1002100034480A1A06D00722914381F30988022242
:1002200082F3148830483149314A00F044F83148AB
:100230003149324A00F03FF831483249324A00F041
:100240003AF832483249334A00F035F832483349F7
:10025000334A00F030F833483349344A00F02BF881
:1002600033483449344A00F026F8344834490022EF
:1002700000F02CF833483449002200F027F83348C6
:100280003349091A082902DB002202604160314A21
:1002900090471F481F49884205D00268043003B4C4
:1002A000904703BCF7E700208646EC46002000217B
:1002B000294A9047FEE7884207D0521A05D00378B2
:1002C00001300B700131013AF9D17047884202D0F8
:1002D00002700130FAE770470000012000E00020C2
:1002E000000001200000012084090000000000201F
:1002F00004000020D0030000D003000060090000CB
:1003000084090000000000200000002060090000B7
:100310006009000060090000600900006009000039
:100320006009000060090000600900008409000005
:1003300088090000040000200400002004000020C0
:1003400010000020100000201000002010000020ED
:10035000102000209D03000065060000FEE7FEE778
:10036000FEE7FEE7FEE7FEE7FEE7FEE7FEE7FEE765
:1003700000F002B8FFF7FCBF0F484FF007018843B9
:1003800085460E4880470E48016841F470010160BF
:10039000BFF34F8FBFF36F8FFFF732BF09480A4992
:1003A0000A4A884207D0521A05D0037801300B70F0
:1003B0000131013AF9D1704700000120D90600004F
:1003C00088ED00E06009000000000020000000202F
:1003D0001FB50021039001AA44F20100CDE90111EB
:1003E00000F004F805B05DF804FB000072B6094B9C
:1003F0001B68DB0700D500BEBFF34F8F0649074BD4
:10040000CA6802F4E0621343CB60BFF34F8F00BFB2
:10041000FDE700BFF0ED00E000ED00E00400FA05AC
:10042000F7B506792F4D0C237343EF183C7A002C57
:1004300055D1EA504B687B60477903682246A44651
:10044000D4B2A7423CD8CA7843F307345201002CF7
:10045000C3F30733D2B23DDB234F07EB040C8CF818
:1004600000230122640903F01F0302FA03F347F893
:10047000243003684A78D3F8040502F0030220F020
:1004800003000243C3F80425D3F808058A7820F056
:10049000030002F003020243C3F80825D3F8100555
:1004A0000A7820F00F0102F00F020A43C3F810256A
:1004B0000C2303FB065501232B72002003B0F0BD73
:1004C000940004F5A074013243F804C01C5901944F
:1004D000019CB5E7054C03F00F03E254C9E708207F
:1004E000ECE700BF0400002000E100E014ED00E0B4
:1004F000036801221A600379034A0C2101FB0323DC
:1005000002221A72704700BF0400002037B54FF472
:10051000803400688C407BB18B0003F5A07300250C
:10052000C550C3580193019BC0F8044301F5A8715D
:1005300040F8212003B030BDC0F80843F6E770B49E
:10054000046840F20116D4F800528E4025EA0605F0
:10055000C4F80052D4F800522B43C4F800329DF87E
:100560000C3070BCFFF7D2BF2DE9F341104C114F96
:10057000114E00254FF48038236883B1D7F8043337
:1005800008FA05F21A420AD0002323602368019377
:10059000A4F50040019B80B2D6E9003198470135AF
:1005A000042D04F10404E7D102B0BDE8F08100BFDE
:1005B0004081004000800040040000204FF0A04235
:1005C000D2F80435D94301F4002103F40023C2F822
:1005D0000815C2F80C3570474FF080430022C3F86D
:1005E0001825C3F8042101229A60D3F80421002AB7
:1005F000FBD070474FF080430022C3F80021012256
:100600001A60D3F80021002AFBD070471FB5104AAA
:1006100092E8030002AB83E803000E4A0E48194635
:10062000FFF7FEFE08B1FFF7D3FE0C4B0C49D3F8E1
:10063000102509480123D2B221FA02F200930021C9
:10064000FFF77DFF0448FFF753FF05B05DF804FB9B
:1006500060090000BD05000068090000008000403E
:10066000003E490008B5FFF7B7FFFFF7C3FF4FF0A3
:10067000A0430322C3F84C27FFF7C8FF20BFFDE7C4
:10068000044B1868421C04BF034B1878831F584260
:100690005841704730010010E00F00F0074B1B7805
:1006A000062B09D1064B1B68C3F30313033B042B32
:1006B00002D8044AD05C704700207047E00F00F079
:1006C000E80F00F07F090000024AD2F80034002B46
:1006D000FBD0704700E0014010B5FFF7D1FF28B113
:1006E000874B884A1B68C3F304231360FFF7D6FFC8
:1006F00010B1854B854A1A60FFF7C2FF28B1844BC1
:10070000844A1B68C3F342331360FFF7C7FF20B16D
:10071000814AD36823F08073D360FFF7B1FF40B103
:100720004FF080430022C3F80C21C3F81021C3F816
:100730003825FFF7B3FF10B1784B03221A60FFF79B
:10074000ADFF40B1764B05221A6001229A67002264
:100750009A603F225A60734B1A68511C0BBF724B50
:10076000724B1A781B6802BF08331B68C3F303136C
:10077000062A4DD1033B042B03D86D4AD35C002BD2
:1007800046D04FF080526B4BD2F80414C3F82015BA
:10079000D2F80814C3F82415D2F80C14C3F828159D
:1007A000D2F81014C3F82C15D2F81414C3F830156D
:1007B000D2F81814C3F83415D2F81C14C3F8401535
:1007C000D2F82014C3F84415D2F82414C3F84815FD
:1007D000D2F82814C3F84C15D2F82C14C3F85015CD
:1007E000D2F83014C3F85415D2F83414C3F8601595
:1007F000D2F83814C3F86415D2F83C14C3F868155D
:10080000D2F84014C3F86C15D2F84424C3F870250C
:10081000FFF736FF28B1484B484A1B6803F04F03E7
:100820001360FFF72DFF48B14FF08043D3F8002449
:10083000D20744BF6FF00102C3F80024394B1B6894
:10084000062B0CD1394B1B68033B042B02D83C4AC6
:10085000D35C23B13B4A136843F4806313603A4A84
:10086000D2F8883043F47003C2F88830BFF34F8F5A
:10087000BFF36F8F2B4B1B68062B0FD12B4B1B68C5
:10088000033B042B02D8314AD35C3BB14FF0102319
:10089000D3F808224FF08043C3F858254FF01023B7
:1008A000D3F80022002A03DBD3F80432002B22DA2B
:1008B00027490123C1F80435FFF706FF4FF0102048
:1008C0001524C0F80042FFF7FFFEC0F80442FFF70E
:1008D000FBFE0023C1F80435FFF7F6FEBFF34F8F90
:1008E00019491C4BCA6802F4E0621343CB60BFF3A2
:1008F0004F8F00BFFDE7184B184A1A6010BD00BFAC
:10090000240300104035014074C007400DF0ADBA1B
:10091000440200103C050040F0ED00E0A00500405E
:100920001056004030010010E00F00F034010010BC
:100930007009000000C0004058020010E40E0040A2
:10094000750900003C17004000ED00E07A09000046
:1009500000E001400400FA05000000200090D003F0
:1009600000000306000000000080004000040000BA
:100970000000010101000000010100000000010170
:040980000000000073
:040984000090D0030C
:040000030000037581
:00000001FF
