:1000000000000120750300005D0300005F03000095
:1000100061030000630300006503000000000000AE
:100020000000000000000000000000006703000066
:1000300069030000000000006B0300006D03000076
:100040006F0300006F030000ED1400006F03000059
:100050006F0300006F0300006F03000061150000D4
:10006000E11800006F0300006F0300006F03000041
:100070006F0300006F0300006F0300006F030000B8
:100080006F0300006F0300006F0300006F030000A8
:100090006F0300006F0300006F0300006F03000098
:1000A0006F0300006F0300006F0300006F03000088
:1000B0006F0300006F03000000000000000000005C
:1000C0006F0300006F0300006F0300006F03000068
:1000D0006F0300006F0300006F03000000000000CA
:1000E0000000000000000000000000000000000010
:1000F0000000000000000000000000000000000000
:1001000000000000000000000000000000000000EF
:1001100000000000000000000000000000000000DF
:1001200000000000000000000000000000000000CF
:1001300000000000000000000000000000000000BF
:1001400000000000000000000000000000000000AF
:10015000000000000000000000000000000000009F
:10016000000000000000000000000000000000008F
:10017000000000000000000000000000000000007F
:10018000000000000000000000000000000000006F
:10019000000000000000000000000000000000005F
:1001A000000000000000000000000000000000004F
:1001B000000000000000000000000000000000003F
:1001C000000000000000000000000000000000002F
:1001D000000000000000000000000000000000001F
:1001E000000000000000000000000000000000000F
:1001F00000000000000000000000000000000000FF
:10020000354936480A1A02D0072291438D463449AF
:1002100034480A1A06D00722914381F30988022242
:1002200082F3148830483149314A00F044F83148AB
:100230003149324A00F03FF831483249324A00F041
:100240003AF832483249334A00F035F832483349F7
:10025000334A00F030F833483349344A00F02BF881
:1002600033483449344A00F026F8344834490022EF
:1002700000F02CF833483449002200F027F83348C6
:100280003349091A082902DB002202604160314A21
:1002900090471F481F49884205D00268043003B4C4
:1002A000904703BCF7E700208646EC46002000217B
:1002B000294A9047FEE7884207D0521A05D00378B2
:1002C00001300B700131013AF9D17047884202D0F8
:1002D00002700130FAE770470000012000E00020C2
:1002E0000000012000000120EC3000000000002090
:1002F00034000020D0030000D0030000682C000070
:10030000EC3000000000002000000020CC2C000099
:10031000CC2C0000CC2C0000CC2C0000CC2C0000FD
:10032000CC2C0000CC2C0000CC2C0000EC300000C9
:100330002031000034000020340000203400002070
:10034000A4060020A4060020A4060020A406002085
:10035000A42600209D03000099220000FEE7FEE78E
:10036000FEE7FEE7FEE7FEE7FEE7FEE7FEE7FEE765
:1003700000F002B8FFF7FCBF0F484FF007018843B9
:1003800085460E4880470E48016841F470010160BF
:10039000BFF34F8FBFF36F8FFFF732BF09480A4992
:1003A0000A4A884207D0521A05D0037801300B70F0
:1003B0000131013AF9D17047000001200D240000FD
:1003C00088ED00E0CC2C00000000002000000020A0
:1003D000F0B595B01D46164608460C4600F0E4FF01
:1003E0001A9B0D93CDE9086500252B46082205A927
:1003F00020460A958DF82C500C9500F0F2FF079BD3
:100400000293069B03939DF814308DF8115003F06E
:100410000302012A1DD1BDF81420059DC3F3C203B8
:10042000C2F383168DF81030B20008230EA92046BF
:1004300000F0D7FFC5F3952508AB0093324602AB19
:100440000EA9284600F0A4FB204600F0B1FF15B02D
:10045000F0BD022AF8D1BDF81650C3F3C203C5F3AC
:1004600089158DF810300827082D2E4628BF08263C
:100470003B4632460EA9204600F0B3FFAD1B08AB49
:1004800002AA31460EA8374400F0E6FB002DEBD15E
:10049000DAE70000014B01221A7070477500002056
:1004A0007047000070B5124D06460FCD88B06C46FF
:1004B0000FC495E80F00002E84E80F004FF0FF33C3
:1004C0004FF00602CDE90023CDE90233094A0A487C
:1004D0004FF0EB7308BF00226946069300F0C8FF97
:1004E00008B100F015FC054B1E7008B070BD00BFD0
:1004F000CC2C0000950400000000002034000020F7
:1005000007B5044B0093044A4023FFF761FF03B093
:100510005DF804FB1D0500003500002038B50D4BCB
:100520000D4D002018700D4804782D5DD2B21C4688
:1005300065B1043001F038FE08B100F0E9FB084B6A
:100540001A7812B12378002BFBD038BD0C3001F0A3
:10055000EDFBF1E7750000200C06002000000020F4
:100560003400002008B50848084A0378D35C3BB142
:10057000043001F089FDBDE808400020FFF792BF7C
:100580000C3001F069FBF6E7000000200C060020AB
:100590000120FFF787BF000008B5FFF7F9FF044807
:1005A000042100F05FFA034B01225A7108BD00BF1D
:1005B000A82C000014000020037813F0040216D0C9
:1005C00003F00303012B03D0022B09D00120704755
:1005D0000A6800880232C0F3831002440A60F5E71B
:1005E0000B684288023303EB92130B60EEE7104670
:1005F000704700002DE9F04F044685B0861C0020AE
:100600000F46154600F0DCFB3F4A5168396093689D
:1006100003F580735B1A924602F21C4702F5836968
:1006200002F21448B34219D30020002D68D004F020
:100630000F039B0143F0050363F30F00DAF8043066
:10064000DAB203321E444AF822000020CAF80460DD
:1006500000F0B8FB012005B0BDE8F08F012138465D
:1006600000F0D5FB484600F0EAFB404600F0E7FB0F
:10067000DAF808000090C0B203300AEB8000694647
:10068000FFF79AFF009B30BBDAB20AEB8202D16817
:1006900001919A1C0133DBB20AEB83030092D3F879
:1006A0000CB001F00303012B22D0022B15D083469E
:1006B000404600F0C7FB10B1009BCAF8083059460D
:1006C000384600F0A4FBDAF80830DAF8042003F525
:1006D00080739B1AA6E7D8B2CEE7BDF80630C3F305
:1006E000891303334FEA1B4B02EB93030093DFE7BD
:1006F000BDF80430C3F383134FEA1B4B1344F5E7F3
:10070000A40544F0060099E748010020064B07487D
:1007100010B500221A7000F000FE044610B904481B
:1007200000F069FE204610BD48010020B82C0000F2
:10073000202D000030B50A4C71B10A4A0A49121B3B
:10074000D20800239A4201D1002030BD31F8235055
:10075000854202D00133F5E7034654F83300F4E74D
:10076000682C0000A82C000000000020094B013973
:1007700003EBC000032909D8DFE801F00A020406F0
:100780000420704700797047407970470020704717
:1007900002207047682C000070470000034BD3E92B
:1007A0000130C31A58425841704700BF4801002029
:1007B0002DE9FF41FFF7F2FF0546002840F0E280F7
:1007C000714CC4F81804BFF34F8FA3680093DBB2D9
:1007D000033304EB83006946FFF7EEFE009B18B17C
:1007E000D4F81824002A55D0DAB2991C013304EB4E
:1007F0008202DBB204EB8303D268DB68029302F06F
:100800000303022B019200914FD1BDF806305F48DF
:10081000C3F38917502F3E4628BF502666F38F1327
:1008200006F10801ADF8063000F08FFD05460028FE
:1008300000F0938000F0B8FD002301A908222846AB
:1008400000F0C5FD0099CB43DBB20133C9B20331DF
:10085000B6EB830F4FEA830804EB810122D908230A
:100860004246A6EB0806284600F0B1FDF6B248491C
:1008700008F108033246284600F0A9FD009B033723
:1008800003EB97070097D4F81834002B41D1D4F824
:10089000106451E062689A4299D8A260284604B078
:1008A000BDE8F08108233246E5E7012B55D1BDF8BC
:1008B00004303648C3F38311062928BF062161F3AB
:1008C000891302318900ADF8043000F03EFD054681
:1008D000002842D000F068FD0023082201A9284624
:1008E00000F075FD0026BDF80420C2F38312B300AA
:1008F000964203F10803C6D200994A1CC9B20331DB
:10090000009204EB81010422284600F060FD0136CC
:10091000E9E7284600F04CFDFFF740FF80F00100BA
:10092000C5B2BBE7F3685B7923B1336829461B681E
:1009300030469847F3681E68002EF3D1284600F031
:1009400037FD304600F03CFAD4F818340BB9009B60
:10095000A360002000F036FADEE7D4F8104454B962
:100960000C4B0D480D49C01AC008000440F00200AD
:1009700000F05EF8D0E7236820469B689847E3685C
:100980001C68ECE7002589E748010020B82C00002E
:1009900054010020682C0000982C0000092D000054
:1009A0002DE9F34704460E46924601A90122184656
:1009B0009946FFF71FFE1C4F10B3019D4FF0000832
:1009C000AA1CC84508EB020125D11848002100F0F7
:1009D000FBF980F31000000440EA1440E4006B1CB3
:1009E00004F03804DBB2EDB244F0010407EB8303FA
:1009F000033544EA881444EA8624D86047F8254041
:100A00003B781BB1FFF7D4FE0028FBD1FFF7C4FEF3
:100A100002B0BDE8F087C9B207EB81015AF828306F
:100A2000CB6008F10108CCE74801002064050020F4
:100A300000231A46FFF7B4BF07B50123019201AAAC
:100A4000FFF7AEFF03B05DF804FB1FB5CDE901234E
:100A5000069B039301AA0323FFF7A2FF05B05DF8ED
:100A600004FB000030B50F49D1F8102403460020E4
:100A7000144634B9DC6820714AB9C1F810342260D8
:100A800030BDE4682579854206D02468F1E7D26854
:100A9000116821601360F3E701300A28E8D14FF0B4
:100AA000FF30EDE748010020084A38B50123D2F8AD
:100AB000104413701D4604B938BDE3685D712368A6
:100AC00020465B689847E3681C68F4E7480100200B
:100AD00007B503460846197A052911D05B7A2BB170
:100AE000094A0A49019000F007FA01980849019063
:100AF00000F002FA019803B05DF804EB00F0F1B9E0
:100B0000002AF8D0F2E700BF2C2D0000312D0000A4
:100B1000802E000030B5C38885B004460D4633B141
:100B2000144A00921449154A284600F0E5F9217A42
:100B300005291DD0637A4BB1A088FFF717FE104B33
:100B4000104953F82020284600F0D6F9227A0E4B9F
:100B5000A08853F8222003920021FFF7EBFD039AAF
:100B60000A490346284605B0BDE8304000F0C4B944
:100B700005B030BD2C2D00003C2D0000342D0000B0
:100B8000B82D0000312D0000DC2D0000542D000098
:100B90002DE9F04385B01F460C9D002395F80C907D
:100BA0002B7306460C46904629463846FFF7B2FF9F
:100BB000B8F1060F09D8DFE808F00412181F28332F
:100BC00040003146284600F097F900222946384671
:100BD000FFF77EFF85F80C9005B0BDE8F083226832
:100BE0003146284600F088F9EFE7D4E90023314682
:100BF000284600F081F9E8E7A36800933146D4E97C
:100C00000023284600F078F9DFE7E3680193A36842
:100C100000933146D4E90023284600F06DF9D4E76B
:100C200023690293E3680193A36800933146D4E9F2
:100C30000023284600F060F9C7E76369039323693E
:100C40000293E3680193A36800933146D4E900233B
:100C5000284600F051F9B8E708292DE9F74F8046FA
:100C60000E4617461C463CD8002593F80C901D7381
:100C700019461046FFF74EFFDFF888A0DFF888B06E
:100C8000AE4231D918F805205946204600F034F913
:100C90000135082DF4D11949194DDFF870A020460F
:100CA00000F02AF94FF0000B5E4522D918F80B200E
:100CB0007E2A05D81046019201F078FF019A00B90A
:100CC0002E225146204600F017F90BF1010BBBF123
:100CD000080FE9D1012221463846FFF7F9FE84F8D2
:100CE0000C9003B0BDE8F08F5146204600F004F9A7
:100CF000CEE72946204600F0FFF8E6E7682D000021
:100D0000662D0000642D00005E2D00006A2D00009D
:100D10001FB50021039001AA44F20100CDE90111A1
:100D200000F004F805B05DF804FB000010B572B6E1
:100D3000FFF7BAFEFFF73CFD0028FBD1104B114C2A
:100D40001149E41AE408240444F00100FFF770FE9E
:100D50000E4B1B68DB0700D500BE0D4944F00200B6
:100D6000FFF766FEBFF34F8F0A490B4BCA6802F4C8
:100D7000E0621343CB60BFF34F8F00BFFDE700BFBE
:100D8000682C0000982C0000F02D0000F0ED00E031
:100D9000FC2D000000ED00E00400FA0572B6024AE6
:100DA000136801331360704700060020034A13687C
:100DB000013B136003B962B6704700BF0006002014
:100DC000FFF7ECBFFFF7F2BF10B5034653E8000F83
:100DD0000A4643E8002494F0000FF7D110BD10B587
:100DE000034653E8002F42EA010043E8000494F070
:100DF000000FF6D110BD10B5034653E8000F00EA0E
:100E0000010243E8002494F0000FF6D110BD10B5A4
:100E1000034653E8002F02EB010043E8000494F07E
:100E2000000FF6D110BD10B5034653E8002FA2EB1A
:100E3000010043E8000494F0000FF6D110BD012139
:100E4000FFF7CDBF0021FFF7D6BF10B590B1D0E9B5
:100E5000012301689B1ADBB20A60013BDBB2FF2B66
:100E6000026802D10020107110BD11684C1C146082
:100E70000B70F2E70E20F7E738B504460020FFF7C5
:100E80009FFF226863681168994213D9481E106059
:100E900011F8015CE368218A01FB0535A36811792B
:100EA0001B1ADBB2994200D213710020FFF78AFFB0
:100EB000284638BD0025F8E738B5054600200C4621
:100EC000FFF77EFF2A681368591C1160E968641AED
:100ED000298AB4FBF1F41C70BDE838400020FFF70C
:100EE00071BF826810B504462AB143690168006980
:100EF00098470023A36010BD0EB403B5039921B138
:100F000004AB01AA019300F077F802B05DF804EB9E
:100F100003B070470A2938B504460D4602D10D21A9
:100F2000FFF7F8FFA3682268591CA160D554D4E9E3
:100F300001329A4204D32046BDE83840FFF7D1BFC2
:100F400038BD00002DE9F84F9846DDE90A43154603
:100F500082460F460A464FF00109AA420FD2C14508
:100F600038BFC14613F0010B01D16CB90024012632
:100F7000B8F1010F1BD908F1FF386E43F8E709F10A
:100F80000109B2FBF5F2E8E79B070ED5B8F1000FB7
:100F90000CBF30262026A145E9D2013C31465046FF
:100FA000FFF7B8FF002CF6D1E0E72026F3E7B7FB08
:100FB000F6F39D42E1D9DFF83C80B7FBF6F35046EB
:100FC00018F8031006FB1377FFF7A4FF3346AB4274
:100FD000B6FBF5F6F1D2BBF1000F02D00CB1A14582
:100FE00001D3BDE8F88F20215046013CFFF792FF66
:100FF000F4E700BF092E00002DE9F74F054617461C
:101000008846002900F0428118F8011B49B92B7B62
:10101000002B00F03B81284603B0BDE8F04FFFF7FE
:1010200060BF252940F0B780002698F800302D2BAE
:10103000424608F1010823D0302B24D02B2B25D099
:1010400000242A2B02F1010123D13B681A1D1B68E1
:101050003A601C440A4613782E2B26D101324FF0F9
:10106000000A104610F8011BA1F1300CBCF1090F69
:101070001DD80A2303FB0A13A3F1300A0246F0E746
:1010800046F00106D1E746F00206CEE746F0040638
:10109000CBE711F8013CA3F130000928DBD80A2284
:1010A00002FB0434303C0A46CBE74FF0000A12F84A
:1010B000011B01F0FB0068289046F8D0782909D878
:1010C0006F290CD8632962D022D8252963D05829EA
:1010D00000F0888098F80030002B95D197E77039A0
:1010E0000829F7D801A353F821F000BF67120000C8
:1010F000D5100000D5100000F5110000D51000003B
:10110000D3110000D5100000D5100000E51100003B
:10111000642901D06929DDD13A68D2F80090111D07
:1011200089EAE9723960A2EBE9724FF0010B092AF2
:1011300035DCD34538BFD3462CB1B9F1000F01DB04
:10114000720700D5013CB30702D5BAF1000F03D0F6
:10115000F00701D44CBB0024B9F1000F2DDAC9F11E
:1011600000092D212846FFF7D5FE06F00302022ACA
:1011700004D1BAF1000F01D11CBB0024CDE9004617
:1011800053460A2249462846FFF7DCFEA2E73B68A1
:101190001A1D19783A602846FFF7BCFE9AE70A2321
:1011A0000BF1010BB2FBF3F2C1E7A345D4D220212E
:1011B0002846013CFFF7AEFECCE77107D5D52B21C1
:1011C000D0E7A345DAD230212846013CFFF7A2FE42
:1011D000D2E73968CDE900460A1D3A6053460A2233
:1011E0000968D0E739680A1D3A60CDE900465346E0
:1011F0001022F5E73B681A1D3A6016F00106D3F895
:10120000009028D1B9F1000F03D0484601F0FCFC52
:101210000646B44200D904BB09F1FF3919F8011F91
:1012200000293FF457AF2846FFF774FEF6E728463B
:101230000136FFF76FFE19F806100029F7D1A64214
:10124000BFF448AF002C3FF445AF20212846013CB5
:10125000FFF760FEF3E70026EDE720212846013C7A
:10126000FFF758FED5E73B681A1D3A603021284643
:101270001C68FFF74FFE78212846FFF74BFE00223F
:101280000823CDE90032214610227CE703B0BDE8F7
:10129000F08F00BF2DE9F84FB0F806A04579D2F8DD
:1012A00000B09DF828900AFB05F5043D88460BEB3D
:1012B0000301A94203F1040488BFA5EB030BB4FBAF
:1012C000FAF607460AFB1644C2F800B04EB9AAEB7C
:1012D00004055D4528BF5D46BBF1000F04D1BDE8A4
:1012E000F88F3F68013EF1E7043408EB06003C4408
:1012F0002A46B9F1000F0DD02146ABEB050B01F0EA
:101300005AFCDA452E443F6855464FF0000428BF8A
:101310005D46E1E701462046EFE7FFF796BDF8B5E9
:1013200046790146721E0546002393422D6803D379
:101330000024A64202D8F8BD0133F6E70F6828461C
:10134000FFF7BAFD01343946F3E72DE9F843068A81
:10135000CD1C0746FFF790FD043E35440446B5FB1F
:10136000F6F5F0B14FF48073EDB28380C680013D95
:10137000076081464FF00008A84512D23846FFF7B3
:101380007BFD064648B163790133637108F10108BA
:10139000C9F8000007608146EEE72046FFF7BFFF6F
:1013A00034462046BDE8F88301210430FFF72FBD05
:1013B00010B5012104460430FFF735FD10F0FF0F92
:1013C00004D12046BDE81040FFF7A9BF10BD1FB5EE
:1013D00003920022009203AAFFF75CFF05B05DF8BC
:1013E00004FB1FB503920122009203AAFFF752FFEC
:1013F00005B05DF804FB836800225A60C3E904224B
:101400009A60DA601A6070471FB503788DF8003073
:101410004368019383688DF80830C368054A0393D5
:10142000054B684653F8213052F82110984705B013
:101430005DF804FB04060020080600201FB50378B1
:101440008DF800304368019383688DF80830C368D5
:10145000054A0393054B684653F8213052F8211092
:10146000984705B05DF804FB04060020080600203C
:10147000F0B5194B90F800C091F81DE043F82C200E
:10148000164B16460A6943F82C20154B03F80CE05E
:101490000C4607460FCC89B06D460FC594E80F0087
:1014A00085E80F00CDF810C0BEF1000F09D0002E66
:1014B0000C4A694608BF3246381D00F021FD09B0CC
:1014C000F0BD002E084A694608BF324607F10C00FD
:1014D00000F00CFBF3E700BF080600200406002024
:1014E0000C060020091400003D140000014B1B688D
:1014F000184700BF1006002038B50B4B98420C4629
:1015000001D0002038BD0020FFF75AFC074B1D79A1
:1015100015B901221C601A710020FFF753FC002D41
:10152000EFD01120EEE700BF0020004010060020A1
:10153000034B984201BF034B00221A601A71704797
:10154000002000401006002000F1804000F5E0403F
:10155000002382B0036003680193019B02B07047CF
:10156000F0B5504B504C1B6885B0002B3DD04FF46C
:10157000827094F82E20FFF7E7FF2AB394F82F30FB
:1015800013BB4A4B1B68002B33D04FF48070FFF71E
:10159000DBFF638B94F82D108B424FD922895B1AA5
:1015A0009BB292B26383D31A626802EB4303404A50
:1015B000C2F82C36C2F830164FF48270FFF7C4FF21
:1015C0003C4B01221A6014E0636802932389ADF852
:1015D0000C30E36800218DF8041023BB23742368CA
:1015E00001A89847002384F82F3094F82E30002B60
:1015F000C7D1314B1B685BB14FF48870FFF7A4FF74
:101600000023237402238DF8043001A8236898472F
:101610002A4B1B68EBB14FF48A70FFF795FF00234C
:10162000237405B0F0BD208B608363602081E1608E
:10163000002AD4D11E4B01221A60D0E7BCD1E36846
:10164000012284F82F2013B100226283AFE7638365
:10165000B2E766694FF000470125002EE1D0B6FAE7
:1016600086F227FA02F34632920026EA030602F1D6
:10167000804303F5E0431B68002BEED01046FFF7D4
:1016800063FFA2F58C72D30882F00402C2F38002D9
:101690008DF808308DF8045023688DF8092001A8D2
:1016A0009847DAE7047100401806002000710040F6
:1016B0000070004004700040107100401471004040
:1016C00038B5204A92F82C300446002B37D11160EF
:1016D0001D490078C1F8F0056078C1F8F4050125CE
:1016E000137482F82D30536182F82F30E07882F83D
:1016F0002E006FF0004382F82C504FF48270C1F836
:101700000833FFF721FF4FF48070FFF71DFF4FF400
:101710008A70FFF719FFA3780C485B01DBB280F8F1
:101720000733802303600223C1F8043392F82E307C
:101730000BB1C1F80453C1F80055002038BD082092
:10174000FCE700BF180600200070004000E100E048
:1017500070B52A4B1A7C02F0FF05002A4BD10A799A
:10176000012A9CBF264CC4F8005500F10C0503EB80
:101770004504247924B993F82D40013483F82D4091
:1017800003EB4503CC790D7A8E781C715D714B7833
:1017900036021B0106F4E06603F0300333430E7893
:1017A00006F003063343CE78360306F480563343FF
:1017B000160406F4E02633434E798979360506F49B
:1017C00080160906334301F080710B430C4901EB8D
:1017D0000016000100F1804000F5E040012AC6F843
:1017E0001835C0F81455C0F8104502D80123C1F8C7
:1017F0000035002000E0112070BD00BF1806002059
:101800000070004070B5344A147C04F0FF03002CD3
:101810005FD1324C012503261574C4F80863C4F85F
:101820002C16C4F8305692F82D10A9420CD91C463B
:10183000190101F1804101F5E0410133082BC1F8A4
:101840001445C1F81045F3D100F10C03000102EB7F
:10185000430300F1804000F5E04019795B79C0F85E
:101860001435C0F810151D4901230B604B6042F27E
:10187000107301F58271086808B9013BFBD14FF480
:101880008070FFF761FE4FF48270FFF75DFE92F803
:101890002D30012B11D9104800210B0103F1804399
:1018A00003F5E0430131047F457FC3F8145508294F
:1018B000C3F8104500F10200EFD192F82E10074B4B
:1018C00029B103210020C3F80413107470BD022154
:1018D000F8E71120FAE700BF18060020007000406A
:1018E0002DE9F341104C114F114E00254FF4803873
:1018F000236883B1D7F8043308FA05F21A420AD0F4
:101900000023236023680193A4F50040019B80B26B
:10191000D6E9003198470135042D04F10404E7D1DC
:1019200002B0BDE8F08100BF40810040008000406F
:10193000480600200023435082B043580193019B86
:1019400002B070470A4610B54FF48E71FFF7F2FFF0
:10195000136A9168C95C136A01331362C0F81C15DD
:1019600010BD8B690A4610B54FF4847123B9FFF797
:10197000E1FFD0F8183510BDFFF7DCFF536AD168DE
:10198000D0F81805C854536A01335362F3E70000D6
:101990001FB501238DF80030044BCDE90110D3E9C8
:1019A00000126846904705B05DF804FB540600201D
:1019B00030B54C48D0F8043313F4007F85B00546A9
:1019C0004DD0D0F82431002B49D04FF49271FFF75D
:1019D000B1FF4FF40173C0F80833434B93F829204B
:1019E0000AB9012242603F4902228DF80020D1F855
:1019F0008024C1F8802403929A690292DA680192E5
:101A00000022C3E906226846D3E900129047354810
:101A1000D0F81C315BB134494A690B6A9A420A46D4
:101A20004AD991F82830002B46D1FFF78BFF2D487B
:101A3000D0F844318BB14FF4A271FFF77BFF2A4BF2
:101A400093F829200AB1012202609A692AB1002282
:101A5000586AD9689A61FFF79BFF05B030BDD5F889
:101A600004335B07D3D5D5F80831002BCFD01E4CFB
:101A70001C482146FFF775FF636AA2699A42234614
:101A8000C5D1E269E1684AB12369E3600023606A75
:101A9000A261E3616362FFF77BFFB8E794F8292056
:101AA0000AB901226A600F4A4FF40170C2F80803B4
:101AB0000022586A9A61EEE70A484FF48E71FFF7E8
:101AC00039FF5369002BB2D051690291002391680C
:101AD0008DF80030019153616846D2E900139847B0
:101AE000A5E700BF00200040540600202DE9F84380
:101AF000544B057991462C2202FB0532064692F89A
:101B00002A200C469846002A40F098804E490068EA
:101B1000FFF7F2FC0746002840F092802168336806
:101B2000481C0BD04FF0A04001228A40C0F8082585
:101B300001F5E0724FF0030C40F822C06068421CCF
:101B40001FBF00F5E0724FF0A04C4FF0000E4CF8B4
:101B500022E0A269C3F8242594F814C0627DBCF188
:101B6000010F4CEA0202C3F86C25C3F81405C3F850
:101B70000C151DD1A1684A1C1FBF01F5E0724FF082
:101B8000A0404FF0000C40F822C0E268501C0BD07F
:101B90004FF0A04C01209040CCF8080502F5E07011
:101BA0004FF0030E4CF820E0C3F80825C3F81015D9
:101BB0002C236B4308EB0302C2F80490226948F817
:101BC0000320B9F1000F21D03068247F4FF48E71CB
:101BD000FFF7B0FE4FF4A2713068FFF7ABFE32683A
:101BE0001A4BC2F80433110B42F307326301002A87
:101BF000DBB21EDB1648841884F800330123520937
:101C000001F01F0103FA01F140F8221033680422A9
:101C1000C3F800252C2303FB05830022C3E9062219
:101C200083F829205A61012283F82A203846BDE82A
:101C3000F883084A01F00F015354E7E70827F5E756
:101C40001127F3E754060020B119000080000200BC
:101C500000E100E014ED00E0F8B503680479304DD0
:101C60000022C3F800252C2202FB04525268A2B1C4
:101C70002C4AC3F808231A0B43F30733002B0CDB61
:101C800002F01F015B0901228A402033264941F8F6
:101C90002320BFF34F8FBFF36F8F0068D0F80C6520
:101CA000D0F81415D0F80835D0F810254FF0FF37CC
:101CB000BE42C0F8147518BF06F5E076C0F80C7582
:101CC000C0F80875C0F810751EBF4FF0A0474FF060
:101CD000020C47F826C04E1C1FBF4FF0A04601F56E
:101CE000E071022746F82170511C1FBF4FF0A04140
:101CF00002F5E072022641F822605A1C1FBF03F56C
:101D0000E0734FF0A042022142F82310FFF710FCCD
:101D10002C2303FB0454002384F82A306360F8BDAD
:101D2000540600208402020000E100E02DE9F047A3
:101D3000204F90F804904FF02C0808FB09740546DA
:101D40006669002E34D162610068A16026624FF49A
:101D50008E7184F82860FFF7EDFD28680123836009
:101D60002146FFF7EFFD6368A0468BB92868D4F8D9
:101D700014A0236A9A4511D82A68D2F81C31002B86
:101D8000FBD00123D3602C2303FB097300225A618B
:101D90003046BDE8F08794F828303BB9D0F81C31C4
:101DA000002BF8D04146FFF7CDFDE2E70F26EAE72A
:101DB0001126EDE7540600200023435082B043581B
:101DC0000193019B02B070471FB501238DF80030CD
:101DD000044BCDE90110D3E900126846904705B0E5
:101DE0005DF804FB800600207FB5434AD2F82461E9
:101DF000002E60D010464FF49271FFF7DDFF0223F2
:101E00008DF80030D2F88034C2F880340393D2F8D1
:101E10003C350293394BDA6801920022C3E906226D
:101E20006846D3E9001290473348D0F8443173B183
:101E30004FF4A271FFF7C0FF304B9A693AB100220C
:101E4000C3E90622D968D0F83C05FFF7BDFF2A4850
:101E5000D0F82031ABB14FF49071FFF7ADFF012303
:101E6000C360264B5A6962B1D0F84C15029100222A
:101E700099688DF8002001915A616846D3E90012F3
:101E800090471D48D0F858319BB14FF4AC71FFF723
:101E900093FF1A4B5A6962B1D0F84C150291002297
:101EA00099688DF8002001915A616846D3E90012C3
:101EB000904704B070BDD2F81031002BB4D04FF46D
:101EC00088711046FFF778FF0C4BD2F83C059969F2
:101ED0008842A9D1DC69D96864B1D2F8005225F0F2
:101EE0002005C2F800521A699C61DA60DE61FFF7D2
:101EF0006BFF99E79C61FAE7002000408006002014
:101F00002DE9F8435B4B06799146242202FB063209
:101F1000044692F820200D469846002A40F0A580FD
:101F200055490068FFF7E8FA0746002840F09F800F
:101F300029682368481C0BD04FF0A04001228A403A
:101F4000C0F8082501F5E0724FF0030C40F822C0FC
:101F50006868421C1FBF00F5E0724FF0A04C4FF0C4
:101F6000000E4CF822E0AA69C3F8242595F814C0A5
:101F70006A7DBCF1010F4CEA0202C3F86C25C3F87C
:101F80000C15C3F814051DD1A9684A1C1FBF01F523
:101F9000E0724FF0A0404FF0000C40F822C0EA6819
:101FA000501C0BD04FF0A04C01209040CCF80805FD
:101FB00002F5E0704FF0030E4CF820E0C3F808255E
:101FC000C3F810152423734308EB0302C2F80490EE
:101FD0002A6948F80320B9F1000F30D020682A7F21
:101FE0004FF48871FFF7E8FE20684FF49071FFF717
:101FF000E3FE20684FF49271FFF7DEFE20684FF495
:10200000A271FFF7D9FE4FF4AC712068FFF7D4FE40
:1020100023681A49C3F80413190B43F30733520119
:10202000002BD2B21CDB1648C51885F8002301220C
:102030005B0901F01F0102FA01F140F82310236847
:102040000822C3F80025242303FB06830022C3E9EA
:1020500006225A61012283F820203846BDE8F88321
:10206000084B01F00F015A54E9E70827F5E711275B
:10207000F3E700BF80060020E91D000010034200C6
:1020800000E100E014ED00E0F8B5444D04792423AC
:1020900003FB045302465B680068ABB1404BC0F8D9
:1020A000083340F30733002B4FEA10310CDB01F00B
:1020B0001F065B090121B14020333A4E46F8231038
:1020C000BFF34F8FBFF36F8FD0F8003223F02003A0
:1020D000C0F80032242303FB04539B692BB14FF457
:1020E000A271FFF769FE012343604FF4AC71FFF763
:1020F00063FE0123C360242303FB0453D0F858116B
:102100000029FBD0996919B1D0F844110029F5D004
:102110000023C0F800351368D3F80C75D3F81465A4
:10212000D3F80825D3F810154FF0FF3C6745C3F8E6
:102130000CC518BF07F5E077C3F814C5C3F808C588
:10214000C3F810C51EBF4FF0A0434FF0020C43F878
:1021500027C0771C1FBF4FF0A04306F5E07602278B
:1021600043F826704E1C1FBF01F5E0714FF0A043ED
:10217000022643F82160531C1FBF4FF0A04302F515
:10218000E072022143F82210FFF7D2F9242303FB67
:102190000454002384F820306360F8BD80060020DA
:1021A0001003420000E100E001F06043B3F1005F82
:1021B0002DE9F041064638D11E4B0779242505FB51
:1021C000073598466C69002C31D16A610068A960B6
:1021D0004FF49071FFF7F0FD4FF4AC713068FFF7EA
:1021E000EBFD33686A69A968C3F84415C3F848254C
:1021F00001229A606A68AAB9D3F82021D3F858411D
:102200001AB9002CF8D00F2407E0002CFBD10122D2
:10221000DA60D3F85821002AFBD0242303FB078778
:1022200000237B612046BDE8F0811024FAE71124E9
:10223000F8E700BF80060020704700001FB50C4A79
:1022400010685168127A01AB03C30A490A481A7030
:10225000FFF736FA08B1FEF75BFD01A90020FFF792
:1022600077FA08B1FEF754FD05B05DF804FB00BF36
:10227000832E0000392200008C2E0000002108B5BA
:102280000846FEF743FA08B1FEF742FDBDE80840F4
:10229000FEF782B9000000002DE99F48FFF7EEFF2E
:1022A000394CFFF7CBFF394B3949E41AE4082404D1
:1022B00044F003042046FEF7BBFB4FF0000A4FF04A
:1022C000000B0DF10E010020FFF79CFABDF90E2066
:1022D00030492046FEF7B0FBBDF90E0000F0FAFBD6
:1022E00027A3D3E9002300F0FBFA2B4B002200F0D8
:1022F000F7FA52465B4606460F4600F0A9FBB8B314
:10230000264B00223046394600F086FB80B3244D30
:102310003946304600F0B8FB08EE100A00F0DAFB50
:102320005246804689465B463046394600F074FB8B
:1023300000B342464B463046394600F0CDFA194BC1
:10234000194E002200F0CCFA00F09EFB2A460090C5
:1023500018EE103A15492046FEF777FB4FF4FA7550
:1023600046F001064FF47A40B047013DFAD1A8E7A4
:102370000F4DCDE732463B4640464946DDE700BFBC
:10238000CDCCCCCCCCCC0C40982C0000682C0000E0
:10239000412E0000582E00000000603F0000F0BFFA
:1023A0006E2E000000005940902E0000702E00009C
:1023B000822E0000044B1868421C04BF034B18789F
:1023C000831F58425841704730010010E00F00F061
:1023D000074B1B78062B09D1064B1B68C3F303136D
:1023E000033B042B02D8044AD05C7047002070479E
:1023F000E00F00F0E80F00F0A52E0000024AD2F82E
:102400000034002BFBD0704700E0014010B5FFF70F
:10241000D1FF28B1874B884A1B68C3F3042313609C
:10242000FFF7D6FF10B1854B854A1A60FFF7C2FF50
:1024300028B1844B844A1B68C3F342331360FFF70F
:10244000C7FF20B1814AD36823F08073D360FFF7C0
:10245000B1FF40B14FF080430022C3F80C21C3F814
:102460001021C3F83825FFF7B3FF10B1784B0322D2
:102470001A60FFF7ADFF40B1764B05221A600122CA
:102480009A6700229A603F225A60734B1A68511C67
:102490000BBF724B724B1A781B6802BF08331B6864
:1024A000C3F30313062A4DD1033B042B03D86D4A13
:1024B000D35C002B46D04FF080526B4BD2F8041403
:1024C000C3F82015D2F80814C3F82415D2F80C1458
:1024D000C3F82815D2F81014C3F82C15D2F8141428
:1024E000C3F83015D2F81814C3F83415D2F81C14F8
:1024F000C3F84015D2F82014C3F84415D2F82414B8
:10250000C3F84815D2F82814C3F84C15D2F82C1487
:10251000C3F85015D2F83014C3F85415D2F8341457
:10252000C3F86015D2F83814C3F86415D2F83C1417
:10253000C3F86815D2F84014C3F86C15D2F84424D7
:10254000C3F87025FFF736FF28B1484B484A1B688F
:1025500003F04F031360FFF72DFF48B14FF08043A6
:10256000D3F80024D20744BF6FF00102C3F800245F
:10257000394B1B68062B0CD1394B1B68033B042BD2
:1025800002D83C4AD35C23B13B4A136843F48063CE
:1025900013603A4AD2F8883043F47003C2F88830A6
:1025A000BFF34F8FBFF36F8F2B4B1B68062B0FD1E1
:1025B0002B4B1B68033B042B02D8314AD35C3BB145
:1025C0004FF01023D3F808224FF08043C3F858256A
:1025D0004FF01023D3F80022002A03DBD3F8043293
:1025E000002B22DA27490123C1F80435FFF706FF43
:1025F0004FF010201524C0F80042FFF7FFFEC0F88E
:102600000442FFF7FBFE0023C1F80435FFF7F6FE96
:10261000BFF34F8F19491C4BCA6802F4E0621343A1
:10262000CB60BFF34F8F00BFFDE7184B184A1A600D
:1026300010BD00BF240300104035014074C00740A6
:102640000DF0ADBA440200103C050040F0ED00E092
:10265000A00500401056004030010010E00F00F0CF
:1026600034010010962E000000C0004058020010F7
:10267000E40E00409B2E00003C17004000ED00E0FF
:10268000A02E000000E001400400FA051C0000201C
:102690000090D00330B591EA030F00F18480841AD2
:1026A00071EB030C05D2121953EB0C03001B71EBF9
:1026B0000C0140F2000CCFF6E07C1CEA430F54D032
:1026C000BCEB410F61D90C0DA4EB135E31EA0C0198
:1026D00041F4801133EA0C0343F48013DEF1200C43
:1026E0002AD303FA0CF5401941F1000122FA0EF544
:1026F000401923FA0EF5694112FA0CF2CD0208D303
:1027000049085FEA30005FEA320228BF42F0010266
:102710000134013C5FEA500C72F1004250F10000BC
:1027200051EB04514FF4001313EB410F38BF30BD90
:10273000090D0905002030BDBEF1200EBEF1200FAD
:102740001ED223FA0EF5401941F10001CEF1200C02
:10275000124218BF012203FA0CF52A43CEE711EA10
:102760005C0F04BF0020002130BD1CEA410F04BFF4
:1027700001F00041002030BD01F00041002030BDDB
:1027800021F4801101EB045130BD004218BF41F02B
:102790000101BCEB410F08BF30BD4FF0FE4141F4D9
:1027A0007801002030BD83F00043841A71EB030EE2
:1027B00007D28EF0004E001B71EB0E01121953EB85
:1027C0000E0340F2000CCFF6E07C1CEA430FC6D0AB
:1027D000BCEB410F72D90C0DA4EB135EC90241EAA8
:1027E0005051C00241F00041DB0243EA5253D20291
:1027F00043F00043DEF1200C41D312FA0CF522FA2B
:102800000EF203FA0CF542EA050218BF42F001028B
:1028100023FA0EF3801A9941E30AC4F30A0411F073
:10282000404F03D418D0013C40004941013C23D41F
:102830004205C00A40EA4150C90A51EAC3715FEA41
:10284000500C72F1004250F1000051EB045130BDC8
:1028500001002FD00020203C0029F9D0B1FA81FCE2
:10286000DCF1200E11FA0CF130FA0EF510FA0CF032
:102870002943A4EB0C04D9E70020D90730BDAEF101
:10288000200EBEF1200F0DD2CEF1200C03FA0CF574
:1028900033FA0EF32A4318BF43F00103C01A61F163
:1028A0000001B9E721F00041C00A40EA4150C90ADD
:1028B00001EB045130BD0020002130BD004218BFA3
:1028C00041F00101BCEB410F7FF467AFBCEB430F5C
:1028D0003FF463AF30BD00BF83F00043FFF7DABEC3
:1028E000F0B540F2FF7681EA030C16EA115E1EBFD6
:1028F000B64516EA1355B5425AD021EA465141F47D
:102900008011A1FB024723EA465343F48013AE44EF
:10291000A0FB03650CF0004C36197D41A1FB034779
:1029200047F10003A0FB0217F619654153F10003BC
:10293000094218BF46F0010640F2FE74B3F5007F6D
:1029400013D2AEF5806EA6452BD24CEA0331280394
:1029500041EA155140EA16503203450872F100422F
:1029600050F1000051EB0E51F0BDAEF2FF3EA64516
:1029700017D24CEAC321E80241EA555140EA5650C9
:10298000F202450872F1004250F1000051EB0E5185
:10299000F0BD0CF0004141F0FE4141F47001002017
:1029A000F0BD1EEA0E0FF4D50CF000410020F0BD82
:1029B00016EA115F04BF01F000410020004218BF79
:1029C00041F0010116EA135F04BF03F00043002247
:1029D000124218BF43F0010306EA1354B44218BF71
:1029E0009EEA060F03D00CF000410020F0BD21F05C
:1029F000004123F00043B1EB065F06D8B3EB065F5E
:102A000003D8002918BF002BC3D140F20001C7F63C
:102A1000F8710020F0BD00BF4FF4001C1CEB410F0B
:102A200098BF1CEB430F11D851EA030C50EA4C0C31
:102A30005CEA020C0AD004D282428B4180414042BF
:102A40007047904299418041404270470020704752
:102A50004FF4001C1CEB410F98BF1CEB430F11D827
:102A600051EA030C50EA4C0C5CEA020C0AD004D286
:102A70009042994180414042704782428B4180415F
:102A80004042704700207047C1F30A5340F21E4293
:102A9000D21A0EDD202A0AD8CB0243EA505040F069
:102AA0000040D04090EAE170B0EBE1707047002048
:102AB00070474B00004218BF43F0010313F5001F9D
:102AC00088BF21F0004111F0004058BF6FF0004076
:102AD000704700BF80B110F0004248BFD0F1000045
:102AE000120D02F21D42B0FA80F18840521AC30A58
:102AF000400503EB02517047010070477F2805D85D
:102B0000034B185C034B5B5C184070470020704718
:102B1000B82E0000382F0000A0F16103192B98BFD8
:102B200020387047A0F14103192B98BF203070471F
:102B30007F2805D8034B185C034B5B5C184070473B
:102B400000207047B82E0000382F0000A0F161036C
:102B5000192B98BF20387047A0F14103192B98BF5B
:102B6000203070477F299ABF017001206FF02E003E
:102B700070475AB10A787F2A0AD800B10260002152
:102B800019605960501A18BF012070470020704723
:102B90006FF02E007047000008B5034B5B689B6820
:102BA0001B68984708BD00BF2000002008B5092118
:102BB000FFF7F2FF08BD844640EA010313F0030F5C
:102BC00018D18446202A0BD32DE9F007B1E8F80785
:102BD000A0E8F807A2F12002202AF7D2BDE8F0070A
:102BE000042A07D351F8043B40F8043BA2F1040245
:102BF000042AF7D2002A05D011F8013B00F8013B66
:102C0000013AF9D16046704700F1010110F0030F5D
:102C100011D010F8012B002A23D010F0030F0AD096
:102C200010F8012B002A1CD010F0030F03D010F86D
:102C3000012B002A15D02DE970004FF001324FF022
:102C4000803350F8044BA4EB020525EA04051D402F
:102C500000D1F6E7A0F1040070BC10F8012B002AA7
:082C6000FBD1A0EB010070475D
:102C6800222E000000000000262E000000000000B8
:102C78002A2E000000000000302E00000000000096
:102C8800362E0000000000003B2E0000000000006F
:102C98001A2D000000000303192E00000000000098
:102CA800EC2C000000000000F82C000014000020AC
:102CB800780000204001002048010020800000200A
:042CC80018000000F0
:102CCC00FFFFFFFFFFFFFFFFFFFFFFFFFFFFFFFF08
:102CDC0000000000000000000000D601060100000A
:102CEC000105000065050000A10400007561727407
:102CFC005F6C6F675F6261636B656E6400426163FA
:102D0C006B656E647320666C7573686564006170C6
:102D1C0070000000680500207F000000E80500201E
:102D2C001B5B306D002573001B5B313B33316D0039
:102D3C0025734C6F67732064726F70706564202804
:102D4C0025642925730D0A003C25733E2025733A12
:102D5C002000202530327800202020007C002563C4
:102D6C00001B5B313B33306D001B5B313B33326DF1
:102D7C00001B5B313B33336D001B5B313B33346DDC
:102D8C00001B5B313B33356D001B5B313B33366DC8
:102D9C00001B5B313B33376D007761726E696E6778
:102DAC0000696E666F006465627567002C2D00000B
:102DBC006D2D0000342D0000752D00007D2D0000C0
:102DCC00852D00008D2D0000952D00009D2D0000FF
:102DDC0000000000F62D0000A52D0000AD2D000018
:102DEC00B22D0000466174616C206572726F7200C6
:102DFC0053797374656D207265736574003031326C
:102E0C00333435363738394142434445467077724E
:102E1C005F6D676D74005050490050525300534120
:102E2C004144430054494D455200554152540055BC
:102E3C0041525445004170706C69636174696F6EE6
:102E4C0020537461727465642121210053616D708B
:102E5C006C652076616C756520526561643A20253D
:102E6C0064002D00566F6C74733A20257325642E04
:102E7C00253032640D0A0000000000020100090335
:102E8C00010006000338FDD8704700000101010065
:102E9C000000010100000000010100000000000022
:102EAC0043000000504F53495800000020202020C0
:102EBC00202020202068282828282020202020209E
:102ECC0020202020202020202020202048101010FE
:102EDC001010101010101010101010108484848416
:102EEC0084848484848410101010101010818181CB
:102EFC008181810101010101010101010101010136
:102F0C0001010101010101101010101010828282C8
:102F1C008282820202020202020202020202020205
:102F2C0002020202020202101010102000070320FD
:102F3C00041702010857104080000000AC2E00005E
:102F4C00B02F0000C430000053756E004D6F6E0042
:102F5C0054756500576564005468750046726900C5
:102F6C0053617400000000004A616E004665620007
:102F7C004D617200417072004D6179004A756E00AE
:102F8C004A756C0041756700536570004F6374009F
:102F9C004E6F76004465630000000000414D005008
:102FAC004D000000E8300000E4300000E430000088
:102FBC00E4300000E4300000E4300000E4300000B5
:102FCC00E4300000E4300000E4300000FFFFFFFFBD
:102FDC00FFFFFFFFFFFFFFFFFFFF0000243000009B
:102FEC00542F000060300000742F0000A82F000048
:102FFC0008300000B830000014300000256D2F257B
:10300C00642F2579000000002561202562202565AC
:10301C00202554202559000053756E646179004DAC
:10302C006F6E6461790054756573646179005765DE
:10303C00646E657364617900546875727364617948
:10304C0000467269646179005361747572646179C8
:10305C00000000004A616E7561727900466562720B
:10306C0075617279004D6172636800417072696CB0
:10307C00004D6179004A756E65004A756C790041A6
:10308C0075677573740053657074656D6265720055
:10309C004F63746F626572004E6F76656D62657218
:1030AC0000446563656D62657200000025483A2531
:1030BC004D3A255300000000FD2A0000192B00009A
:1030CC00252B0000312B00004D2B0000592B00004C
:1030DC00652B0000732B0000000000002E00000088
:1030EC000000000000200040000000000020004014
:1030FC000000000000000000FF0000000090D00362
:10310C00482F0000482F0000482F0000482F0000D7
:04311C00482F000038
:040000030000037581
:00000001FF
