:1000000000000120750300005D030000E91C0000F2
:1000100061030000630300006503000000000000AE
:100020000000000000000000000000006703000066
:1000300069030000000000006B0300006D03000076
:10004000095000006F030000A15000007150000033
:100050007D5000006F030000214C0000855300001C
:100060007D55000091550000A55500004D5300003E
:100070006F030000715200006F0300006F03000067
:10008000E55E0000B1120000AD5100009550000087
:10009000095500000F550000155500001B550000C4
:1000A0002155000027550000B9550000CD5500002E
:1000B0007D5100008D4E0000000000000000000097
:1000C0006F0300008D5100009D5100008950000019
:1000D0005D530000714D00006F0300000000000040
:1000E0000000000000000000000000000000000010
:1000F0000000000000000000000000000000000000
:1001000000000000000000000000000000000000EF
:1001100000000000000000000000000000000000DF
:1001200000000000000000000000000000000000CF
:1001300000000000000000000000000000000000BF
:1001400000000000000000000000000000000000AF
:10015000000000000000000000000000000000009F
:10016000000000000000000000000000000000008F
:10017000000000000000000000000000000000007F
:10018000000000000000000000000000000000006F
:10019000000000000000000000000000000000005F
:1001A000000000000000000000000000000000004F
:1001B000000000000000000000000000000000003F
:1001C000000000000000000000000000000000002F
:1001D000000000000000000000000000000000001F
:1001E000000000000000000000000000000000000F
:1001F00000000000000000000000000000000000FF
:10020000354936480A1A02D0072291438D463449AF
:1002100034480A1A06D00722914381F30988022242
:1002200082F3148830483149314A00F044F83148AB
:100230003149324A00F03FF831483249324A00F041
:100240003AF832483249334A00F035F832483349F7
:10025000334A00F030F833483349344A00F02BF881
:1002600033483449344A00F026F8344834490022EF
:1002700000F02CF833483449002200F027F83348C6
:100280003349091A082902DB002202604160314A21
:1002900090471F481F49884205D00268043003B4C4
:1002A000904703BCF7E700208646EC46002000217B
:1002B000294A9047FEE7884207D0521A05D00378B2
:1002C00001300B700131013AF9D17047884202D0F8
:1002D00002700130FAE770470000012000E00020C2
:1002E0000000012000000120E8870000BC01002080
:1002F000A4020020D0030000D003000064660000C8
:10030000E8870000BC010020BC010020306A00002A
:10031000306A0000306A0000306A0000306A000075
:10032000306A0000306A0000306A0000E887000090
:10033000D0880000A4020020A4020020A402002013
:10034000341B0020341B0020341B0020341B0020F1
:10035000343B00209D030000F15F0000FEE7FEE754
:10036000FEE7FEE7FEE7FEE7FEE7FEE7FEE7FEE765
:1003700000F002B8FFF7FCBF0F484FF007018843B9
:1003800085460E4880470E48016841F470010160BF
:10039000BFF34F8FBFF36F8FFFF732BF09480A4992
:1003A0000A4A884207D0521A05D0037801300B70F0
:1003B0000131013AF9D1704700000120A960000025
:1003C00088ED00E07468000000000020BC010020FF
:1003D000022000F017BA00002DE9F04780460D46D4
:1003E00000F022FA0328044610D8012D10D0022D67
:1003F00030D05DB91A4800F0FFFC1A4B04EB440200
:1004000013449E78184B1B5DB34219D0BDE8F087AA
:10041000144D00EB4002A918AE5C4A78470052B177
:10042000DFF84C900E484A464FF4804100F0BCFC87
:1004300008B989F800803B192B449A780A4B1A5561
:10044000002EE3D0094B1B68002BDFD03046BDE8FF
:10045000F047184700EB4004024804446678EFE791
:10046000E0010020A6020020C1020020BC02002002
:10047000A402002000780221FFF7AEBF08B5094BA7
:100480001B7853B1002000F093F9012000F090F99F
:10049000BDE80840032000F08BB9BDE8084000F03B
:1004A00093B900BFA5020020F8B57B4C2378054620
:1004B0001BB100232370FFF7E1FF172D00F28880A6
:1004C000DFE805F00C17174354657680888D888D1A
:1004D000959A9A9A9A9AC4C9D1D9E4E4FFF7CEFFC3
:1004E0006E4800F089FC6E4B002204461A702046CC
:1004F000F8BD002000F042F9F8B1002000F058F9F2
:10050000022D0CBF4FF4E1614FF47A61644B1D7012
:100510004FF400404FF47A740025E0FB01454FF49E
:10052000FA6200232046294605F002FF0022014618
:10053000BDE8F840594800F037BC00F02DF9022D15
:100540000CBFC8214FF4C871E0E7002000F016F995
:1005500040B1002000F02CF94FF44871504B0322B9
:100560001A70D5E700F018F9C821F7E7002000F06D
:1005700005F938B1002000F01BF94FF47A61484BBF
:100580000422EDE700F008F94FF4C871F7E7002006
:1005900000F0F4F848B1002000F00AF9404B0522C1
:1005A0001A7040F6CD410022C2E700F0F5F8F5E7F9
:1005B000002000F027F93A4B06221A70002240F280
:1005C0006661B5E7002000F0E7F8354B07221A70A6
:1005D00000248CE70120207000F014F9EEE70120E0
:1005E000207000F00FF900224FF40051A0E700F056
:1005F000FAF82B4B0C22EAE72A482B4E00F0FCFBC2
:10060000D5F1110504461CD0D8B9012D13D0C8234B
:100610005D434FF400474FF47A7000214FF4FA62C3
:100620000023C7FB050105F083FE224601461D4855
:1006300000F0BAFB0446022000F0AEF8012333704C
:1006400055E7022000F0B4F80023F8E7FFF716FFA3
:10065000134B1222BBE7FFF711FF002000F09CF8BC
:100660000F4B1322B3E7FFF709FF012000F094F8C6
:100670000B4B1422ABE7FFF701FF002000F08CF8D2
:10068000012000F089F8064B1522A0E700F0ABF836
:10069000034B1D709CE700BFB80200200002002041
:1006A000C0020020C0010020A5020020044B1B68EE
:1006B000DB0703D5034B1878FFF7F6BE704700BF82
:1006C000B4020020C0020020044B1B6813F0010399
:1006D00001D0FFF7E9BE1846704700BFB402002002
:1006E00038B51C4B18601C4B10F00204054619600D
:1006F0001AD01A4B1A480E221A700F22DA701022E2
:100700009A7111225A72042140F2333200F0B8F982
:10071000044648B900F00AFA044628B90146114ACD
:10072000114800F02FFB0446EB0711D5012000F023
:100730008DF86CB921460D4A0D4800F023FB0446A4
:1007400030B9BDE838400B4A0B48012100F01ABB14
:10075000204638BDB4020020BC020020A6020020C2
:10076000806A000075040000A46A0000AD06000065
:10077000A86A0000D1030000A06A0000054A4FF0FB
:10078000A043105CD3F8043523FA00F0C04300F016
:1007900001007047AC6A0000044B1A5C01239340CF
:1007A0004FF0A042C2F80C35704700BFAC6A0000A1
:1007B000044B1A5C012393404FF0A042C2F8083565
:1007C000704700BFAC6A000008B50020FFF7F0FFDB
:1007D0000120FFF7EDFF0220FFF7EAFFBDE8084028
:1007E0000320FFF7E5BF08B50020FFF7D5FF012084
:1007F000FFF7D2FF0220FFF7CFFFBDE8084003203C
:10080000FFF7CABF074A4FF0A041105CD1F804358A
:100810000122824022EA03001340C1F80805C1F812
:100820000C357047AC6A00000D2809D00E2809D09D
:100830000F2809D010280CBF03204FF0FF3070475D
:10084000002070470120704702207047C20708B59A
:1008500001460CD54FF0A0430322C3F84427C3F848
:100860004827C3F84C27C3F85027FFF7ADFF8B0785
:100870000AD54FF0A0430C22C3F83427C3F8382719
:10088000C3F83C27C3F8402708BD0000C30710B5D4
:1008900007D4F023054A4008145C2340194311543F
:1008A00010BD0901C9B20F23F4E700BFD802002030
:1008B00030B5094B1C78094B196800239C4202DCB7
:1008C0000022104630BD11F83350854201EBC302BF
:1008D000F7D00133F2E700BFC5020020E802002094
:1008E00013B504460191FFF7E3FF38B143682BB11C
:1008F0000199204602B0BDE81040184702B010BD73
:10090000034B044819680022490800F04DBA00BFA3
:10091000C80200202002002010B5C0B2FFF7C8FFB7
:100920000446007804F072F963785A1E534253412A
:10093000834208D1044BD3E90023134303D1BDE81C
:100940001040FFF7DDBF10BDD002002038B5334A9C
:1009500043080446D35CC2074CBF1B0903F00F03D6
:100960000D46042B59D8DFE803F003222A3639005C
:10097000002952D00121FFF789FF002000F052FB2F
:100980000120A4F12003C4F12001254A20FA01F13D
:1009900000FA03F30B43A040D2E9004120430B438C
:1009A000C2E90003BDE83840002000F03DBB00294B
:1009B00018BF02212046BDE83840FFF767BF41B1AC
:1009C0000321FFF763FF20460121BDE83840FFF710
:1009D00087BF0121EEE701BB0421EBE709B1032149
:1009E000E8E7FFF753FF29462046FFF779FF28463F
:1009F00000F018FB0120A4F12003C4F12001084AF3
:100A000020FA01F100FA03F30B43A040D2E90041C0
:100A100024EA000021EA0303C2E738BDD80200201F
:100A2000D00200202DE9F041124E134F00243378FC
:100A3000A34208DC114BD3E90023134318D0BDE8CF
:100A4000F041FFF75DBF3D6805EBC40815F83400C1
:100A500004F0DCF898F801305A1E53425341181A3A
:100A60004142414115F83400FFF770FF0134DEE7E1
:100A7000BDE8F081C5020020E8020020D00200207D
:100A8000092AF7B505460C4616463CD903F0FEFF89
:100A9000D8B11E4B1E481D601E4B1F4F1C701F4BB4
:100AA000002110221E6005F053FD1D4B0020002187
:100AB000C3E90001013CE4B20326FF2C0BD1194A23
:100AC0001948002100F05EF903E003F0A1FF0028BF
:100AD000DFD003B0F0BD9DF8063015F834008DF876
:100AE000046005EBC40223F007038DF8063001A96A
:100AF00093788DF805303A4603F0D2FF013CE4B21A
:100B00000028DAD0E5E70720E3E700BFE80200208D
:100B1000D8020020C502002019090000C8020020E8
:100B2000D0020020250A0000F86A000070B5084DC8
:100B3000084E00242B789C4201D3002070BD3368FE
:100B4000012113F8340004F01DF80134F2E700BF6E
:100B5000C5020020E80200201FB50021039001AA71
:100B600044F20100CDE9011100F004F805B05DF890
:100B700004FB000010B572B603F0D4FA03F004F9D8
:100B80000028FBD1154C62884AB11548154B16490F
:100B9000C01AC008000440F0010003F05BFA134BD8
:100BA0001B68DB0700D500BE6388012B09D90C4800
:100BB0000C4B0F49C01AC008000440F0020003F0BB
:100BC00049FABFF34F8F0B490B4BCA6802F4E0623E
:100BD0001343CB60BFF34F8F00BFFDE76C000020D5
:100BE0003067000080660000FC6A0000F0ED00E065
:100BF000086B000000ED00E00400FA05D0E90223D4
:100C0000D1E90201994208BF90422CBF0120002087
:100C10007047000008B50B4800F033FB0A4B0B4946
:100C2000D3E900231218D1E9000143F100038B42FC
:100C300008BF824203D212F1807243F100031046D2
:100C4000194608BD54020020F0020020580300207D
:100C500037B505460C460A4801A901F016F960B1FE
:100C60000570446001A9064801F039F918B105483A
:100C700000F00CFB002003B030BD0420FBE700BFF8
:100C80004002002054020020234B70B51E78044619
:100C900016B90026304670BD0028FAD0FFF7BAFF1B
:100CA000D4E90223994208BF90422ED3002000F0DD
:100CB000B9F923692BB94FF0FF324FF0FF33C4E984
:100CC0000223002000F0B0F9D4E905309847002055
:100CD00000F0A8F9256965B1D4E90223591C08BFC1
:100CE000B2F1FF3F0FD0521943F10003C4E90223D0
:100CF0003546002000F098F9002DCAD0074821465B
:100D000002F0A2FBC6E70025F3E7013308BFB2F10A
:100D1000FF3FBED0F2E700BFF8020020386B0000B2
:100D200013B5114B11491868019008231048582237
:100D300001F098F8044698B90E4A0F4801A900F04E
:100D400083F9044660B90C48012100F07DFA0123C3
:100D50000A4A0948194600F0DFF9094B01221A70C6
:100D6000204602B010BD00BF326B0000FC02002024
:100D700040020020450E000054020020FFFF7F00CB
:100D8000F802002030B56AB103684FF0FF344FF02D
:100D9000FF355A614A1E5142C3E90245514119616A
:100DA000002030BD0720FCE7F8B5044600201746B8
:100DB0000D4600F037F9D4E90223013308BFB2F140
:100DC000FF3F15D1FFF726FF401941F10001C4E9AB
:100DD00002010126002000F027F95EB12369A76116
:100DE00003B1256121460020BDE8F840FFF730BF80
:100DF0000026EFE73046F8BD38B50446002000F085
:100E000011F9D4E9022301330FBFB2F1FF3F4FF0D4
:100E1000FF324FF0FF33C4E9022314BF0125002540
:100E2000002000F001F92DB121460120BDE8384035
:100E3000FFF70EBF284638BD014800F022BA00BFB8
:100E4000540200202DE9F74F804600F005FA40B12A
:100E5000634AD2E9003113F1807341F10001C2E924
:100E600000310021404600F006FA38B15D4E33688B
:100E700023B13068FFF708FF0023336001214046AB
:100E800000F0F9F920B1FFF7C5FE574BC3E90001A7
:100E90005648DFF8509101A901F031F84FF0FF36C4
:100EA0004FF0FF3798B9DFF848A14E4F504602F097
:100EB000E1FA002800F08780D0E90223591C08BF1E
:100EC000B2F1FF3F34D1504602F0CEFAEEE703789C
:100ED000012B20D0022B09D1DFF814A1504602F0DB
:100EE000C3FA002877D0C0E90267F7E753B9416831
:100EF000D1E90223013308BFB2F1FF3F02D03C48E1
:100F000002F0A2FA01A9394801F024F801A93748F2
:100F100000F0F5FFC6E74168D9F80030994203D1E7
:100F20000023C9F80030EDE7314802F0A6FAE9E7FE
:100F3000396891B13968D1E902018B4208BF824218
:100F40002FD23B68D3E90223013308BFB2F1FF3F40
:100F500003D03968504602F077FA504602F084FA1E
:100F6000D0E9026B8146FFF755FE341A6BEB0105A1
:100F7000012C75F1000319DBB4F5350F14D3FFF71D
:100F80005BFF1C4A02441C484FF49603002100F00A
:100F9000E3F898B93B6813B9404600F0B5F8C7F8D4
:100FA000009003B0BDE8F08F3246ECE71248002114
:100FB00000F057F94846FFF767FE01E00D28F9D029
:100FC00000233B6072E7074B1B68002BE9D14046CA
:100FD00000F09EF8E5E7094B01221A7092E700BF86
:100FE000F00200206003002058030020400200208F
:100FF000386B0000FFFFB40054020020F80200200C
:1010000072B6024A1368013313607047640300200C
:10101000034A1368013B136003B962B6704700BF0F
:1010200064030020FFF7ECBFFFF7F2BF435882B024
:101030003BB10023435043580193019B012002B070
:1010400070471846FBE70000F8B5264C4379264E5A
:1010500044F82320254C04EBC3031B7973B1738838
:10106000012B09D92248234B2349C01AC008000488
:1010700040F0020002F0EEFF0820F8BD03680A8885
:10108000C3F8082590F904508B7802795B01002D94
:10109000DBB221DB19494F1987F8003301236D09B1
:1010A00002F01F0203FA02F241F82520437904EB13
:1010B000C30244F8330073880121022B117109D94E
:1010C0000B480C4B0E49C01AC008000440F0030046
:1010D00002F0C0FF0020D0E70A4902F00F028B5453
:1010E000E4E700BF700300207400002068030020C4
:1010F0004067000080660000446B000000E100E0F3
:10110000666B000014ED00E0036801221A6070476E
:10111000036801225A60704773B501F15005AD00B4
:101120000068ADB24FF480348C400026C0F808430C
:10113000C0F84843465101F5A8714559019522F080
:101140007F42019D40F82120C0F844430BB1C0F814
:10115000044302B070BD00002DE9F74F0D4622F0A8
:101160007F4402684FF4803705F150068F40804677
:10117000B60002EB8500C2F84873B6B2C2F8087335
:10118000D2F8041599464FF0000BD0F84035C0F85E
:10119000401542F806B05B1A9259009223F07F4343
:1011A000012B009A4FEA850A0CD1264B4FF4806040
:1011B00043F001039847D8F8003043F806B09B5934
:1011C0000193019BD8F80010D1F80465C1F844736D
:1011D000A31B23F07F43012B1CD11A4B05F5A875E7
:1011E000013443F0010341F825404FF480609847F3
:1011F000D8F80030D3F804359E4209D1D8F8003031
:101200000020C3F84473C3F8047303B0BDE8F08F43
:101210000D20FAE78A44C9F1FF13CAF84045D1F816
:101220000405221A013A22F07F4203F57F439342DC
:10123000EED3002AE2D10134CAF84045D1F8043592
:101240009842DAE7806B000003680222C3F8442367
:1012500009B1C3F80423704700684FF48271FFF7A7
:10126000E5BE4FF4803303FA01F10368C3F8481375
:10127000C3F80813704750318900006889B2FFF73E
:10128000D5BE0368D3F804057047000090F9043018
:10129000002B09DB5A09012103F01F0301FA03F3B4
:1012A0004032024941F82230704700BF00E100E0BF
:1012B000024B034A1B681068184700BF70030020E8
:1012C0006803002070B5064D0646002455F8043B1F
:1012D0000BB1304698470134042CF7D170BD00BFE4
:1012E00080030020033080B240F2FE33984230B5D4
:1012F0001FD8134B1A783AB91C895D892C440444D1
:10130000A4B2B4F5806F0AD91A7DAAB99A8BDC8B86
:101310002244024492B2B2F5806F0DD801220A80B5
:101320001446142202FB04335A89104458810020C9
:1013300030BD48F20860FBE748F20660F8E700BFFE
:10134000B40300200B4A0C4B5188142000FB0131E0
:10135000CB6833B90420496810700122074801F0B6
:10136000ADBE07490523137002238B800122096853
:101370000023F3E798030020B403002000000020BE
:10138000E003002007B5002305490093054A0968DA
:101390000548082301F0D2FD03B05DF804FB00BF4F
:1013A000E0030020A46B00000000002007B500232C
:1013B00001460093034A0448082301F0BFFD03B02F
:1013C0005DF804FB9C6B00000000002013B50023B7
:1013D0000C4600930146084A0848042301F0AEFD7C
:1013E00038B90749142303FB04140123237402B002
:1013F00010BD48F20D60FAE7986B00000000002075
:10140000B403002037B50A480A4B42689C88196823
:1014100053880325033305709BB2002000909B0086
:1014200001EB8401044801F089FD03B030BD00BF29
:1014300098030020E00300200000002010B50146C2
:10144000044800F022FD1C220446002105F080F82B
:10145000204610BD5C0200204388033300EB830369
:1014600099420BD382884FF6FF739A4208D00388C3
:1014700033B18068431C584258417047022070477E
:101480000120704738B5144B14220D4602FB003082
:101490002B68446804F58051A3B15C88033403EBE6
:1014A00084048C4215D22368013312D02046FFF702
:1014B000D3FF012808D002280BD00028F1D12C60DE
:1014C000012038BD0834ECE76388033304EB830460
:1014D000E7E70020F5E700BFB4030020426873B5DA
:1014E00004460D466AB3244BD9688A4229D31B6946
:1014F0009A4226D812F0030323D120490089098992
:1015000088421ED12068916888421AD11C494868D7
:10151000824203D900F5805082420DD389698A4204
:101520000CD901F580518A4208D201222A80B3FAEF
:1015300083F0400902B070BD1A46F7E748F209632C
:10154000F5E700232B801E460196288801A9FFF7A6
:1015500099FF30B92B8801339BB2012B2B80F3D933
:10156000E8E7019B226899689142EED16360034BE2
:101570001B892381DEE700BF0000002098030020C4
:10158000B40300202DE9F8431C461D4B1B7806468A
:101590000F46154673B382B37CB3DFF86C804FF00F
:1015A0001409A388012B02D948F2096020E009FB45
:1015B00003F318F803302BB9A0882146FFF762FF28
:1015C00020B92060A3880133A380EAE723681EB115
:1015D000998832889142EFD11FB119883A88914297
:1015E000EAD19A68C5E90023064B1B892B810020AC
:1015F000BDE8F88348F20160FAE748F20460F7E7D3
:101600009003002098030020B403002008B5074B86
:101610005888191DFFF736FF18B1BDE80840FFF7DD
:10162000F1BEBDE80840FFF78DBE00BF9803002063
:101630002DE9F04FA14FDFF8A89289B00646B846D1
:101640003B6823B99E48494600F059FC3860D8F8F9
:10165000005029784B1E052B07D8DFE813F0220035
:101660007700770009010901600148F20E64142235
:10167000002103A804F06CFF41F61D539C4208BFF3
:101680000024D8F8003004941A78013A052A00F2B0
:10169000F281DFE812F0DE01E201020212021E0214
:1016A00028022EB1874B00225A604FF40644DEE731
:1016B0002B79032B1DD8DFE803F015022B36824966
:1016C0000B78022B08461AD00B7D022B4FF001033A
:1016D00017D114225343C2180020C8545068FFF792
:1016E00065FE03E001232B71FFF74CFE002800F09C
:1016F000B980744B00225A6048F20D64B7E70023AA
:10170000E7E7704A13700023536041F61D54AEE7BB
:101710006E496F48002302222B718A8009680122DA
:1017200001F0CCFCE2E76B4B684A59881068002650
:101730002E711423644D4B43E918EE544C68146029
:10174000948848600C8102219180C8E7B5F814A004
:10175000AA7DDFF874B1AEB1022AEB8806D9142154
:1017600001FB0AB1DA1C088902440A81142202FB37
:101770000ABAC3F57F43BAF80A20FD331344AAF826
:101780000A3092E7142303FB0AB318895C6804EB60
:101790008004062A69D8DFE802F0274E36441D5A35
:1017A000040041F61D54AA7DEB88022A06D91421B3
:1017B00001FB0AB1DA1C088902440A81142202FBE7
:1017C0000ABAC3F57F43BAF80A20FD331344AAF8D6
:1017D0000A304CE74048414900234360AB6903604D
:1017E000FFF77CFE00285BD00223AB75002300933B
:1017F0000423EA182146364801F0A0FB002831D026
:1018000048F20D64CFE72B69002B14BF032301239B
:10181000AB750023009305F10C02042304F10801C9
:10182000E9E70123AB750022EB8800922A699B004F
:1018300004F10C01DFE703290CBF05230623AB7578
:1018400000230093042305F10802E118D3E70623DF
:10185000AB75224B1988204B5868FFF7B7FD04463B
:101860000028A0D109B0BDE8F08F48F20E649AE7D5
:10187000002E7FF41AAF2B79012B33D0022B3FF4CB
:1018800044AF002B7FF4F1AE02232B710DF10A015E
:10189000EB68039303A8CDE90466FFF71FFE10B9B8
:1018A00048F20964E3E60498BDF80A108388EB80E7
:1018B00003882B81FFF78AFD044626E0B003002051
:1018C0005C02002090030020B4030020E00300200D
:1018D000000000209803002074030020E80300208B
:1018E000A8030020814B03AA3146A81DFFF74AFE3A
:1018F0007E4B044668B999880498FFF767FD044653
:1019000048F209639C423FF400AF002C7FF4AFAE75
:10191000A8E708223146184604F01AFEF0E7002E28
:101920007FF4C3AE724B1A7BB2B11E731A78013AC0
:10193000062A3FF69AAE01A151F822F0E7190000FD
:101940000D1A00002B1A0000311A00006B1600005F
:10195000371A0000491A00001A78072AE6D801A1B0
:1019600051F822F0851900002D1900002D190000F2
:10197000AB190000BF190000E3190000E3190000D3
:10198000A71900001A895B4901321A8100225A8086
:101990001A730A78B2FA82F252099A720A7DB2FA7E
:1019A00082F25209DA72012207E0534958688A88A4
:1019B0004088033202448A8002221A70B6E74D4CF6
:1019C0005A884D49142505FB024208685468506046
:1019D0008888108102200C60888000211174062202
:1019E000EBE70722E9E79A7A32B9DA7A8AB9002274
:1019F0001A705A805A6088E63E4900229A72CA6874
:101A0000002AF2D1097C0029EFD05A80FFF7FEFDB1
:101A100052E70022DA72374A116A0029E7D192F8B8
:101A20002420002AE3D00122EFE7FFF7EBFC43E795
:101A3000FFF788FC40E72F4A5B88142101FB032352
:101A40005868FFF7B3FC37E700225A60FFF79AFCAB
:101A500032E700238DF80C300DE001228DF80C20C8
:101A60001A89ADF818209A88DB680593ADF81A201A
:101A700000238DF81C3003A8FFF724FC00264946FC
:101A80001E48C8F8006000F065FA1D48012100F00A
:101A9000ACFA00287FF4D4ADE4E602228DF80C20E5
:101AA0001A89ADF818209A88ADF81A20DA689B7D5B
:101AB00005929A1F53425341DBE703228DF80C2015
:101AC000DA88ADF818201A89DB68ADF81A2005937A
:101AD000D1E704228DF80C20DB88ADF81830002304
:101AE000ADF81A30F3E70523B4E700BFEC0300209C
:101AF00098030020B4030020E00300205C020020D3
:101B0000DC0300204068FFF793BD000008B50548DE
:101B1000012100F052FA18B9BDE80840FFF788BD6E
:101B200008BD00BFDC0300202DE9F3419846374B88
:101B30001B7806460D46002B5CD000295DD0098835
:101B40004FF6FF7399425BD06B88002B58D06B68BF
:101B50009B0758D14AB92F890DF102013846FFF78A
:101B6000C1FB30B102B0BDE8F08113885788ADF8F1
:101B7000023001A8FFF762FC044660B9BDF80230EC
:101B8000234A142101FB032358890338C01B5881C1
:101B900048F20760E6E780F8008000238375BDF80F
:101BA000023083826B68036101211A4800F011FA48
:101BB0002B882381B8F1030F6B88A38004BF042313
:101BC000A3754FF0000508BF3368E06008BFA3614C
:101BD0001148E780658101A900F081F936B1E36819
:101BE00033600E4B75601B89B5723381FFF78EFF32
:101BF0000020B7E748F20160B4E748F20460B1E7BB
:101C000048F20360AEE748F20260ABE790030020C1
:101C1000B4030020AC0300205C02002098030020E5
:101C200073B50D460446C8B1C1B10DF10601FFF709
:101C300055FCB0B10C4BBDF806006668142202FBDF
:101C4000003001210C3000F0C4F963682E600C33C1
:101C50006B600123A372002002B070BD48F20460E3
:101C6000FAE748F20960F7E7B403002013B5044629
:101C7000A8B10DF10601FFF731FC98B10C4ABDF88F
:101C80000630142101FB0323DA6872B1A27A62B133
:101C9000DA680020013ADA60A07202B010BD48F2A2
:101CA0000460FAE748F20960F7E748F20560F4E7F4
:101CB000B403002002230022FFF736BF18B103232C
:101CC0000022FFF731BF48F20460704707B5ADF856
:101CD0000600ADF804100DF1060001A9FFF752FC53
:101CE00003B05DF804FB00001EF0040F1CBFEFF30F
:101CF00009800AE0EFF308800549064A884201D8C6
:101D0000904202D88D464FF00000034B1847000068
:101D10000000012000E00020411D0000BFF34F8FB4
:101D20000549064BCA6802F4E0621343CB60BFF377
:101D30004F8F00BFFDE700BF00ED00E00400FA0593
:101D40002DE9F74F064602F0EDF902F01DF80028E4
:101D5000FBD1374C3748384B384D9F6A6B88241A73
:101D6000E408240444F00104002E59D0D3B1B26930
:101D70003349204602F072F96B889BB1F3680193F6
:101D8000B36800932F49D6E90023204602F07BF97F
:101D90006B883BB1F36900932B49D6E904232046B5
:101DA00002F065F9244BDB6A990705D56B881BB1F6
:101DB0002649204602F04EF9DFF8A0A0DFF8A0B0D7
:101DC0004FF000084FF0010909FA08F33B4208D030
:101DD0005AF828202AB16B881BB15946204602F0D8
:101DE0003DF908F10108B8F11A0FEDD13A0607D50F
:101DF0006B882BB1104B16495A6B204602F02EF916
:101E00003B0407D56B882BB10B4B12499A6B2046CC
:101E100002F024F93046FFF781FF03B0BDE8F08FF0
:101E2000002BBFD00C49204602F014F9BAE700BFDE
:101E3000B06700008066000000ED00E0AC0000200C
:101E4000AC6B0000C16B0000F66B0000516C000031
:101E5000A06C0000C06C00001E6C00009C710000B3
:101E6000956C000010B561B1B2FBF3F403FB1424D0
:101E7000A4B244B9C0E9001484608281C3812046C1
:101E800010BD0E20FCE70920FAE737B550E8013F06
:101E90009DB2C48925448489A54228BF2D1B04898D
:101EA000A54202BFBFF32F8F002207E0C5EA03055A
:101EB00040E80154002CE9D14FF001028DF80320D5
:101EC0000193019B9DF803200B6002F0FF0322B1F8
:101ED0000B880068184403B030BD1846FBE70A8839
:101EE0004B889A4209D150E8012FC2EA024240E8E9
:101EF0000123002BF7D1012070470020704737B530
:101F000050E8023F1FFAA3F5C488A54202BFBFF301
:101F10002F8F00220DE0C48925448489A54228BF63
:101F20002D1BC3EA054540E80254002CE8D14FF0D0
:101F300001028DF803200193019B9DF803200B60A3
:101F400002F0FF0322B14B880068184403B030BD93
:101F50001846FBE70A884B889A4209D150E8022FBD
:101F6000C2EA224240E80223002BF7D10120704749
:101F70000020704710B5034653E8000F0A4643E8B7
:101F8000002494F0000FF7D110BD10B5034653E8BC
:101F9000002F42EA010043E8000494F0000FF6D15C
:101FA00010BD10B5034653E8000F00EA010243E8F4
:101FB000002494F0000FF6D110BD10B5034653E88D
:101FC000000F00EB010243E8002494F0000FF6D16B
:101FD00010BD10B5034653E8002F02EB010043E8A3
:101FE000000494F0000FF6D110BD10B5034653E87D
:101FF000002FA2EB010043E8000494F0000FF6D19B
:1020000010BD0121FFF7C1BF0021FFF7CABF0000CB
:102010002DE9F0478368D3F84831C3F340059B07A7
:1020200088B0074606D50022114608B0BDE8F04743
:1020300000F0ACBA012906D91E4A022108B0BDE859
:10204000F04700F06FBA1C4C1C4EDFF874A04FF044
:102050006408A946361B1C23B6FBF3F6AE4204F116
:102060001C0402D108B0BDE8F08754F81C0C54E9F8
:102070000623017900689A1A1B1ADBB2039308FB46
:1020800003F3B3FBF2F3CDE9019334F8043C00937E
:10209000CDE9061254F8083C11FB08F13846B1FBB3
:1020A000F2F1CDE904215246082100F03BFA013556
:1020B000D4E700BF467200000868000024680000F2
:1020C0005972000010B590B1D0E9012301689B1A44
:1020D000DBB20A60013BDBB2FF2B026802D10020B9
:1020E000107110BD11684C1C14600B70F2E70E20CB
:1020F000F7E738B504460020FEF794FF22686368CE
:102100001168994213D9481E106011F8015CE36808
:10211000218B01FB0535A36811791B1ADBB29942AB
:1021200000D213710020FEF77FFF284638BD00253E
:10213000F8E738B5054600200C46FEF773FF2A681D
:102140001368591C1160E968641A298BB4FBF1F417
:102150001C70BDE838400020FEF766BF08B104F0EF
:1021600051BA70472DE9F843089E1C460D46E9B95F
:10217000194E1A4B9B1BB2EBD30F4FEAD30804D274
:10218000174F07EB8207A84501D1002309E07368C8
:102190003868196804F00FFAB146083620B9D9F842
:1021A00004302360BDE8F8830135ECE70028ECD06B
:1021B0000178436839B13146104698473368002B9F
:1021C000E3D02660EEE7110103EB02125B58002B0F
:1021D000DBD02260E6E700BF2468000064680000EE
:1021E0009C01002007B58368B9B1DA7E8A4211D01C
:1021F0000B4A009233228DF8042001F12F028DF852
:1022000005206D22ADF80620D9766A460549006999
:1022100000F0C7FC03B05DF804FB034AD976F5E78C
:102220001B5B313B067400009777000007B583689D
:102230001A7F8A4213D045F61B32ADF800203422B3
:102240008DF8022001F12F0219778DF803206D22FD
:10225000ADF80420034900696A4600F0A2FC03B00F
:102260005DF804FB06740000014900F09ABC00BF51
:10227000E57200000A460068014900F092BC00BF08
:102280006873000009B1FFF7F5BF70472DE9F3410E
:1022900005460F461446002614B902B0BDE8F08189
:1022A000686803682246D3F80C80B91901ABC047AF
:1022B000019B1E44E41A002BEED1AB681A78032A66
:1022C000EAD0D3F848219206FBD5B3F848216FF342
:1022D0004512A3F84821DFE72DE9F04F2DED028BE1
:1022E000044683B090460E46002973D00025705DE9
:1022F00004F0DEF850BB04F1100308EE103A5FFA68
:1023000088FB3046FFF72AFFA36893F81990401B1B
:10231000A9EB080906EB050A484553464FF00007AC
:1023200017D913F8010BCDE9003304F0C1F8009B75
:1023300020B113F8012C0A2A34D0B946A268507E85
:1023400008EB070290422CD90137EAE70135CEE7C6
:102350000137B84219D013F8012B0A2A05EB0709F7
:10236000F6D1206900F012FC3A4627465146204635
:10237000FFF78CFF57F8100FFFF776FF5FFA88F131
:10238000384609F10105FFF77DFF2069711900F05A
:1023900008FC206903B0BDEC028BBDE8F04FFFF7ED
:1023A00063BF4F46206900F0F1FB3A465146204694
:1023B000FFF76CFF3D44705D04F07AF840B9206986
:1023C000FFF752FF18EE100A5946FFF75BFF98E738
:1023D0000135F0E703B0BDEC028BBDE8F08F0000E3
:1023E0000A4619B10249006800F0DBBB704700BF24
:1023F0006E7300000A4619B10249006800F0D1BBB3
:10240000704700BF747300002DE9F34105468068F2
:10241000424F002480222146A0308DF8034004F072
:1024200097F83F49286900F0BCFB286900F0AEFB33
:102430004FF47A7647F00107686803680122D3F801
:1024400010800DF1030101ABC047019B5BB94FF652
:10245000C010B847019B002BEED1013EB6B2002E52
:10246000EAD10D2035E09DF80330AA681B2B48D037
:1024700092F8A0101B29EDD1522B42D11444002315
:1024800084F8A03092F8A1105B291FD102F1A206B6
:1024900002211D4616F8010B4C1C3B28E1B264B228
:1024A0001AD1002C20DB01F1A0041444002314F8FD
:1024B000010BD8B9FA2B28BFFA23FA2D13752B4636
:1024C00028BFFA23937582F8A00002E082F8A030BA
:1024D0000B2002B0BDE8F08105EB850300EB430360
:1024E000303B80299DB2D5D10C20F2E703EB83036A
:1024F00000EB43004E1C303883B23006F1B2F3D407
:10250000D5E711190134E4B2092C81F8A030A1D922
:10251000002382F8A0300420DBE700BFC077000072
:10252000AA7700000CB473B506AB0D4653F8046BE4
:1025300081680193D1F848315B07044620D5CB7EF2
:10254000AB421DD002221B31684603F0D8FF29465A
:102550002046FFF747FE206901AA314600F0A0FBA4
:102560009DF800102046FFF73DFE9DF8011011B1C7
:102570002046FFF75BFE02B0BDE8704002B0704736
:10258000206901AA314600F08BFBF4E72DE9F04FFA
:1025900007468BB07F48DFF81C8291460D4604F059
:1025A00031F806467C4804F02DF8BB68CDF8008071
:1025B000301A7A4A5B68082186B23846FFF7B2FFC4
:1025C000BB685868FFF7CAFD0446404604F01AF895
:1025D000BB68204482B299683846FFF77DFE704A96
:1025E00000213846FFF79EFFB9F1000F07D035B143
:1025F0004FF00C08AA4608FB0958C24529D1664885
:1026000004F000F8841C3444A4B2624B654A009381
:1026100004F103080821384623461FFA88F8FFF71B
:1026200081FF614942463846FFF756FE45B10C2608
:1026300006FB0956DFF880B1DFF86891B54222D178
:10264000BB68D3F80C80B8F1000F5AD10BB0BDE8CD
:10265000F08FDAF80400FFF781FD0446DAF8000095
:10266000FFF77CFD2044B0420AD9DAF80400FFF7F6
:1026700075FD0446DAF80000FFF770FD204486B2CD
:102680000AF10C0AB9E7D5E9002393B34AB30192E2
:10269000414A009208215A463846FFF743FF6868CE
:1026A000FFF75CFD03902868FFF758FD82463A4823
:1026B00003F0A8FF039AA21AA2EB0A03181AC1B2E8
:1026C00007F11000FFF7DEFD384938693A2200F0C3
:1026D00068FAA96889B142463846FFF7FDFD0C3516
:1026E000ACE7009323464A4608213846FFF71AFF15
:1026F000EFE7002AEDD00092F4E73869FFF7B4FD68
:10270000EDE700220592164606AD009505AB0121C6
:10271000404602F10109FFF725FD059C5CB12068E8
:10272000FFF71CFDB04204D9059B1868FFF716FDA2
:1027300086B24A46E9E7B9F1010F87D01C4ADFF8B3
:1027400064A021463846FFF7EDFE2246B41CA4B231
:1027500005AB00950121404602F10109FFF702FD9A
:10276000059B002B3FF472AF1B68009308212346A2
:1027700052463846FFF7D6FE059B596831B1721DA7
:1027800092B23846FFF7A8FD4A46E1E73869FFF7FD
:102790006BFDF9E7C67700002C790000007400009B
:1027A00009740000137400001B74000080730000A3
:1027B00037740000AF7700002E740000002211462D
:1027C000FFF7E4BE022910B5044608D18368D3F8A8
:1027D00048319B0703D5BDE81040FFF7EFBF2069E4
:1027E000054A064900F0DDF92069054A0349BDE8BC
:1027F000104000F0D6B900BF9B77000006740000BF
:102800009F770000012906D0022906D18368D3F8FA
:1028100048319B0701D5FFF7D1BF024A0221FFF7DC
:1028200081BE00BFB573000038B58368D3F8482176
:10283000C2F3400592070C4606D500221146FFF769
:10284000A5FE2C46204638BD0029FBD05B68024A15
:102850000221FFF767FEF5E745740000012937B54F
:102860000546144604D103B0BDE83040FFF7A6BFCB
:10287000023918BF0121FFF7D7FF48B963680193F8
:10288000044B0093044A236802212846FFF74AFEBE
:1028900003B030BD6974000060740000012907B501
:1028A00004D103B05DF804EBFFF788BF02290AD119
:1028B00053680193084B00931368084AFFF732FEF0
:1028C00003B05DF804FB8CBF0121002103B05DF86B
:1028D00004EBFFF7A9BF00BF69740000607400003B
:1028E000013910B518BF01210446FFF79DFF40B91B
:1028F000044A0549206900F054F9A36845F218021A
:102900001A8310BDA47700000674000001292DE988
:10291000F3410446154637D18668FFF775FD38BB8D
:10292000A36804F11005FA21284693F814809F7DCE
:10293000FFF7A0FC20691E49FA2200F032F9204678
:10294000FFF762FDA0B9A368197D7176A368A1EBBA
:1029500008019B7D33762846C9B2FFF74BFD317ED7
:10296000C91BC9B2284602B0BDE8F041FFF738BD27
:10297000A36845F218021A830E4A0421204602B0C9
:10298000BDE8F041FFF7CEBD022994BF002101212F
:10299000FFF74AFF48B96B680193074B00932B6818
:1029A000064A02212046FFF7BDFD02B0BDE8F081D6
:1029B0007A7300007E740000697400006074000087
:1029C0002DE9F041013986B018BF01210546FFF716
:1029D0002BFF40BBAB68DFF85480D3F8406104465E
:1029E000EEB1082C1BD030460023092203A900F0C9
:1029F00092FC9DF81420A968304609230132A031C9
:102A000000F089FCAB68049EA0330093671C23464A
:102A1000424600212846FFF785FD3C46E0E7AB68CB
:102A2000002283F8A02006B0BDE8F081B874000051
:102A3000013910B518BF01210446FFF7F5FE30B982
:102A4000A368B3F8482160F38202A3F8482110BDBF
:102A5000013910B518BF01210446FFF7E5FE30B972
:102A6000A268B2F8483143F00403A2F8483110BD1F
:102A7000013910B518BF01210446FFF7D5FE30B962
:102A8000A368B3F8482160F3C302A3F8482110BD3E
:102A9000013910B518BF01210446FFF7C5FE30B952
:102AA000A268B2F8483143F00803A2F8483110BDDB
:102AB000022973B50D4694BF002101210446164634
:102AC000FFF7B2FE014658B9022D0BD1736801938E
:102AD0000C4B00930C4A336829462046FFF722FD31
:102AE00002B070BDA368094AD3F8483113F0080F4B
:102AF000074B18BF1346074A204602B0BDE8704096
:102B0000FFF710BD6974000060740000706D000074
:102B1000C2740000C6740000013910B518BF01214D
:102B20000446FFF781FE48B9A368C3F83801E3689B
:102B30005B68BDE81040186800F079BC10BD00006B
:102B40007FB5013918BF01210446FFF76DFE054628
:102B5000B8B9E3685B681E68304600F065FCB16890
:102B6000A268C0B2CDE9010164234343B3FBF1F392
:102B7000DBB20093D2F83831034A29462046FFF7EA
:102B8000D1FC04B070BD00BFD7740000826810B5DE
:102B900004462AB143690168006998470023A3608D
:102BA00010BD0EB403B5039921B104AB01AA019382
:102BB00000F076F802B05DF804EB03B070470A2924
:102BC00038B504460D4602D10D21FFF7F8FFA36882
:102BD0002268591CA160D554D4E901329A4204D329
:102BE0002046BDE83840FFF7D1BF38BD2DE9F84F8A
:102BF0009846DDE90A43154682460F460A464FF0DD
:102C00000109AA420FD2C14538BFC14613F0010BDA
:102C100001D16CB900240126B8F1010F1BD908F1CC
:102C2000FF386E43F8E709F10109B2FBF5F2E8E776
:102C30009B070ED5B8F1000F0CBF30262026A1450A
:102C4000E9D2013C31465046FFF7B9FF002CF6D1DE
:102C5000E0E72026F3E7B7FBF6F39D42E1D9DFF882
:102C60003C80B7FBF6F3504618F8031006FB1377C9
:102C7000FFF7A5FF3346AB42B6FBF5F6F1D2BBF149
:102C8000000F02D00CB1A14501D3BDE8F88F20217F
:102C90005046013CFFF793FFF4E700BF5379000073
:102CA0002DE9F74F054617468846002900F0428176
:102CB00018F8011B49B92B7B002B00F03B812846FB
:102CC00003B0BDE8F04FFFF761BF252940F0B780A2
:102CD000002698F800302D2B424608F1010823D039
:102CE000302B24D02B2B25D000242A2B02F10101DC
:102CF00023D13B681A1D1B683A601C440A461378AE
:102D00002E2B26D101324FF0000A104610F8011B7D
:102D1000A1F1300CBCF1090F1DD80A2303FB0A13E3
:102D2000A3F1300A0246F0E746F00106D1E746F08B
:102D30000206CEE746F00406CBE711F8013CA3F10A
:102D400030000928DBD80A2202FB0434303C0A4652
:102D5000CBE74FF0000A12F8011B01F0FB006828D6
:102D60009046F8D0782909D86F290CD8632962D009
:102D700022D8252963D0582900F0888098F800309F
:102D8000002B95D197E770390829F7D801A353F89C
:102D900021F000BF0F2F00007D2D00007D2D0000D1
:102DA0009D2E00007D2D00007B2E00007D2D00005B
:102DB0007D2D00008D2E0000642901D06929DDD110
:102DC0003A68D2F80090111D89EAE9723960A2EBE5
:102DD000E9724FF0010B092A35DCD34538BFD346E1
:102DE0002CB1B9F1000F01DB720700D5013CB3072C
:102DF00002D5BAF1000F03D0F00701D44CBB002478
:102E0000B9F1000F2DDAC9F100092D212846FFF78D
:102E1000D6FE06F00302022A04D1BAF1000F01D156
:102E20001CBB0024CDE9004653460A2249462846E9
:102E3000FFF7DCFEA2E73B681A1D19783A602846C6
:102E4000FFF7BDFE9AE70A230BF1010BB2FBF3F289
:102E5000C1E7A345D4D220212846013CFFF7AFFEAD
:102E6000CCE77107D5D52B21D0E7A345DAD23021A5
:102E70002846013CFFF7A3FED2E73968CDE90046BA
:102E80000A1D3A6053460A220968D0E739680A1DCC
:102E90003A60CDE9004653461022F5E73B681A1D1B
:102EA0003A6016F00106D3F8009028D1B9F1000F6E
:102EB00003D0484603F0A6FB0646B44200D904BB43
:102EC00009F1FF3919F8011F00293FF457AF2846CF
:102ED000FFF775FEF6E728460136FFF770FE19F892
:102EE00006100029F7D1A642BFF448AF002C3FF4EA
:102EF00045AF20212846013CFFF761FEF3E700269D
:102F0000EDE720212846013CFFF759FED5E73B6855
:102F10001A1D3A60302128461C68FFF750FE7821C0
:102F20002846FFF74CFE00220823CDE90032214657
:102F300010227CE703B0BDE8F08F00BF2DE9F3411C
:102F4000B0B9514B5B88002B00F095804F4B504837
:102F5000504AC01AC0080E244F4B009400044F4939
:102F600040F0010001F083F8204602B0BDE8F08196
:102F70006AB9454B5B88002B7DD0444B4448484A96
:102F8000C01AC0080E24444B00940004E7E7D0F8B0
:102F900000E0BEF1000F0DD13B4B5B88002B6CD0E5
:102FA0003A4B3B483F4AC01AC00808243A4B0094A9
:102FB0000004D4E76BB9344B5B88002B5FD0334BF4
:102FC0003348394AC01AC0080924334B009400041E
:102FD000C5E74568D5F80480B3FBF8F508FB15355F
:102FE0006DB1294B5B88002B49D0284B28482F4ACC
:102FF000C01AC0080924284B00940004AFE78D07CD
:103000000DD0214B5B88002B3BD0204B2048284A19
:10301000C01AC0081024204B009400049FE712F04F
:10302000030F0CD0184B5B885BB3184B1848214A30
:10303000C01AC0081024184B009400048FE7C5681C
:10304000A9420BD34D1EEC180569AC4206D8DEF838
:103050000C40A44602B0BDE8F04160470A4B5B88D3
:103060007BB10A4B0A48144AC01AC00810240A4B04
:103070000094000473E70E2476E7082474E709241B
:1030800072E7102470E700BFB400002080660000E3
:10309000C067000063790000F97A000068790000D9
:1030A000E579000091790000A4790000EB79000037
:1030B000157A00002D7A0000507A0000F7B5A0B90B
:1030C000374B5B88002B63D0364B3748374AC01AE2
:1030D000C0080E24364B00940004364940F001002D
:1030E00000F0C5FF204603B0F0BDD0F800C0BCF131
:1030F000000F0DD12A4B5B88002B4BD0294B2A485F
:103100002D4AC01AC0080824294B00940004E4E7A3
:103110006AB9234B5B88002B3ED0224B2248274ABA
:10312000C01AC0080924224B00940004D5E7476860
:10313000D7F800E00EF1FF370F420CD0184B5B8838
:1031400063B3184B18481E4AC01AC0081024184B05
:1031500000940004C1E7C768B9420CD304694D1E4E
:103160000EFB0255A54206D8DCF81040A44603B079
:10317000BDE8F04060470A4B5B887BB1094B0A48C9
:10318000104AC01AC0081024094B00940004A4E798
:103190000E24A7E70824A5E70924A3E71024A1E744
:1031A000B400002080660000C06700006379000062
:1031B0000C7B00006879000091790000A479000080
:1031C000777A00009D7A00002DE9F84FB0F806A04C
:1031D0004579D2F800B09DF828900AFB05F5043D2A
:1031E00088460BEB0301A94203F1040488BFA5EB59
:1031F000030BB4FBFAF607460AFB1644C2F800B00C
:103200004EB9AAEB04055D4528BF5D46BBF1000F32
:1032100004D1BDE8F88F3F68013EF1E7043408EBC4
:1032200006003C442A46B9F1000F0DD02146ABEB15
:10323000050B03F064F9DA452E443F6855464FF01C
:10324000000428BF5D46E1E701462046EFE7FEF7B0
:1032500039BFF8B546790146721E054600239342F0
:103260002D6803D30024A64202D8F8BD0133F6E747
:103270000F682846FEF75DFF01343946F3E72DE974
:10328000F843068BCD1C0746FEF733FF043E35445A
:103290000446B5FBF6F5F0B14FF48073EDB28380D0
:1032A000C680013D076081464FF00008A84512D254
:1032B0003846FEF71EFF064648B163790133637155
:1032C00008F10108C9F8000007608146EEE72046D2
:1032D000FFF7BFFF34462046BDE8F88301210430E4
:1032E000FEF777BE10B5012104460430FEF77DFEDF
:1032F00010F0FF0F04D12046BDE81040FFF7A9BF32
:1033000010BD1FB503920022009203AAFFF75CFFD5
:1033100005B05DF804FB1FB503920122009203AAD9
:10332000FFF752FF05B05DF804FB026813685268AE
:10333000934291BFD01A80680130801888BFC01AAC
:10334000704710B504460020FDF76CFE2046FFF7DD
:10335000ECFF04460020FDF767FE204610BD00008C
:103360002DE9F04F8368D3F84831C3F340059B073C
:103370008BB0074606D5002211460BB0BDE8F04FD2
:10338000FFF704B9012906D9214A02210BB0BDE893
:10339000F04FFFF7C7B81F4C1F4EDFF88090DFF8E3
:1033A00080A0DFF880B0361B1C23B6FBF3F6AE42DC
:1033B00002D10BB0BDE8F08FE36808932368D4F81E
:1033C00008809A6809922046FFF7BBFF099A94F893
:1033D00010E0642303FB00FCBEF1000F0CBFCE46DF
:1033E000D6465343B3FBF8F3CDE90432BCFBF8F106
:1033F000089B0191CDE902080093CDE9068E63692F
:103400005A4608213846FFF78DF801351C34CEE7BF
:103410004672000064660000806600002C7B00009D
:10342000357B0000417B00000368986870470368A3
:1034300000229A607047836800225A60C3E9042220
:103440009A60DA601A60704770B5446806460D46A7
:10345000206818B1B3682946984718B923682B60CB
:10346000256070BD2468F3E74368186808B10268F6
:103470001A6070474368186870474368186800B955
:103480007047884203D102681A60012070470346E2
:103490000068F4E74FF4A06300FB0330084B1A18F0
:1034A000A0F5806030B50344064C03F5806193427B
:1034B000A1EB030003D253F8045BA542F7D030BD63
:1034C000000400200ED0ADDE2DE9F04F374FDFF8BD
:1034D0000C91DFF80CB185B0044600250020FDF703
:1034E000A1FD3E685FFA85FA26B17E68304B002E5A
:1034F00008BF1E460020FDF797FD002E42D0504623
:10350000FFF7C8FF2B465A46082180462046FFF7A2
:1035100009F8284A334608212046FFF703F809F541
:10352000807309F2FF42B8F1000F35D0642000FB30
:1035300008F04FF48061800ACDE90020CDE90281D6
:103540001D4A08212046FEF7EDFF1C4B1B78534512
:1035500029D01B4B1A684FF00043EB401342194A25
:10356000194B08BF1346194A08212046FEF7DAFF17
:103570000E4A0C2303FB052308219B68144A2046AE
:10358000FEF7D0FF0135032D07F10C0709F5A069FF
:10359000A4D105B0BDE8F08F009208210D4A204665
:1035A000FEF7C0FFD1E70C4BDDE700BF00130020A2
:1035B000217C00004E7C00005C7C0000F4030020B5
:1035C000F8030020397C0000307C0000AE7C000055
:1035D000BB7C0000967C0000287C000000040020DA
:1035E000437C000000230428CB604B6098BF044B51
:1035F000044A98BF53F820308A600B60704700BFC0
:103600005482000030820000CB6800225A7170475B
:10361000C368DB6800225A717047CB6801225A7177
:103620007047C368DB6801225A7170470D4A8A608F
:1036300070B50D4A0D4C0023121BCB604B600B6024
:1036400012091D469A4207D0E6683679FF2E05D04A
:10365000854202D1A3680B6070BD0135013310347F
:10366000F0E700BF68820000746800006468000032
:103670002DE9F74F154D164C9846641B52F8043C43
:1036800006468946174624094FF0000B5C4507D1D2
:10369000104A0221304603B0BDE8F04FFEF742BFAA
:1036A000A9680193184602F086FFAA46103518B1A2
:1036B000019B0BF1010BE9E73B464A465146304678
:1036C000C44603B0BDE8F04F604700BF6468000027
:1036D00074680000387D0000014BFFF7C9BF00BFD0
:1036E000993C0000014BFFF7C3BF00BF0936000043
:1036F000014BFFF7BDBF00BF1B360000014BFFF7BA
:10370000B7BF00BFC53A0000037813F0040216D01B
:1037100003F00303012B03D0022B09D001207047D3
:103720000A6800880232C0F3831002440A60F5E799
:103730000B684288023303EB92130B60EEE71046EE
:10374000704700002DE9F04F044685B0861C00202C
:103750000F461546FDF766FC3F4A5168396093688D
:1037600003F580735B1A924602F21C4702F58369E7
:1037700002F21448B34219D30020002D68D004F09F
:103780000F039B0143F0050363F30F00DAF80430E5
:10379000DAB203321E444AF822000020CAF804605C
:1037A000FDF742FC012005B0BDE8F08F012138464D
:1037B000FEF70FFC4846FEF724FC4046FEF721FCCE
:1037C000DAF808000090C0B203300AEB80006946C6
:1037D000FFF79AFF009B30BBDAB20AEB8202D16896
:1037E00001919A1C0133DBB20AEB83030092D3F8F8
:1037F0000CB001F00303012B22D0022B15D083461D
:103800004046FEF701FC10B1009BCAF8083059464B
:103810003846FEF7DEFBDAF80830DAF8042003F564
:1038200080739B1AA6E7D8B2CEE7BDF80630C3F383
:10383000891303334FEA1B4B02EB93030093DFE73B
:10384000BDF80430C3F383134FEA1B4B1344F5E771
:10385000A40544F0060099E7F4130020012907B5F8
:10386000034604D08168D1F84811890707D50022A2
:103870001146184603B05DF804EBFEF787BE5368A7
:103880000193054B00931368044A0221FEF74AFE98
:1038900003B05DF804FB00BF697400004E7D0000BA
:1038A0002DE9F3478368D3F84831C3F340059B07FC
:1038B000074606D50022114602B0BDE8F047FEF7E4
:1038C00065BE144E144CDFF85880DFF85890DFF8CE
:1038D00058A0A41B2409A54202D102B0BDE8F0877C
:1038E000F268B3681179FF2907D10C4A08213846DC
:1038F000FEF718FE01351036EDE75279002A14BFA5
:1039000042464A46CDE90021384652460821FEF794
:1039100009FEEFE76468000074680000697D00003C
:10392000587D0000607D0000887D000030B50A4BA6
:103930000A4A0B49D21AD20800239A4201D1052023
:1039400006E031F823500468A54202D1036000204C
:1039500030BD0133F1E700BF806600000868000059
:10396000140000202DE9F84F1D4B1E4801221A704B
:10397000FFF76DFC814688B91B481C4E1C4CDFF8D4
:103980007CA0FFF758FDA41BE4084D46A54208D1D2
:103990000023184A18481946A3421BD14846BDE8DF
:1039A000F88F4FF00008474606EBC50BBD420AD022
:1039B00056F83710DBF80000142202F083FD0028CF
:1039C000C8BF08F101080137BC42EFD12AF82580B1
:1039D0000135DBE720F8231042F8041B0133DBE755
:1039E000F4130020086800002482000080660000B4
:1039F00008680000D80000201600002014000020F5
:103A000007B5019031B9019A064B53F8320003B063
:103A10005DF804FB01A8FFF789FF0028F3D0002020
:103A2000F5E700BF80660000002310B5CB604B6057
:103A3000034B8B600C460121FFF7E2FF206010BDB5
:103A400030820000094B013903EBC000032909D87B
:103A5000DFE801F00A02040604207047007970478D
:103A60004079704700207047022070478066000050
:103A700030B5124C00EB400054F8215002FA00F32C
:103A8000072202FA00F06B400D4A03406B40C3F37B
:103A9000821044F8213002EB8101C3F3C20282425A
:103AA00038BF0246C3F34220824203F0070338BF07
:103AB0000246934238BF13464B8030BDD8000020E9
:103AC000140000202DE9F04F064685B01D4617462C
:103AD000002A51D0CB6828684C4993F804900722FB
:103AE00002F0F0FC0446C8B9012F07D1484A022170
:103AF000304605B0BDE8F04FFEF714BDDFF82C816D
:103B000058F8041B68680A2202F0DCFC002877D011
:103B10000134052CF4D16B683E4A15E03E49286813
:103B2000082202F0CFFC044660B9012F2DD04FF0DF
:103B300001083A4A3A4BDFF8F8A09B1ADB08CDE9B6
:103B4000013247E02B68374A0221304605B0BDE814
:103B5000F04FFEF7E7BC18F83530A3420FD2002132
:103B60002846FFF74DFF5246034602213046FEF736
:103B7000D9FC0135BD42EED105B0BDE8F08F22463B
:103B800029464846FFF774FFF3E7244B244FDFF83C
:103B9000A0A0FF1AFF08002503F10608EAE718466F
:103BA00000210393FFF72CFF5946202202F08AFCE4
:103BB000039B014608B1013311E0029A02EBC302F4
:103BC0009279A24216D3224619464846FFF750FF83
:103BD00008F10108B845CFD255F828B00023019A62
:103BE0009A42DCD155F828300F4A02213046FEF7C0
:103BF00099FCEDE71846FFF703FF52460346F4E74A
:103C0000022FE4B2C1D04FF0020892E7A97D000074
:103C1000B07D00001B7E0000C77D000080660000B4
:103C200008680000CF7D0000077E00004082000091
:103C3000E47D000013460A46C168FFF743BF000059
:103C400013B504460191ABB16AB90199104A04EB6E
:103C5000440052F8212007238340134023FA00F048
:103C6000C0B202B010BD01A8FFF760FE0028ECD082
:103C70000020F6E72AB9019A064B03EBC2039879B4
:103C8000EFE701A8FFF752FE0028F1D1F3E700BFEC
:103C9000D800002080660000294B2A4A2DE9F04F09
:103CA0009B1A4FEAD30ACB685B7985B005460E466E
:103CB0001BB9254A0221FEF735FC244B244ADFF8C4
:103CC000A48008212846FEF72DFC224A0821284618
:103CD000FEF728FC0024544502D105B0BDE8F08F62
:103CE000F36893F8049001231A4621464846FFF7EB
:103CF000A7FF00230746214601224846FFF7A0FF01
:103D000003280246814628BF0322012120465FFA8C
:103D100082FBFFF775FE104A58F82B10034658F83F
:103D200027000E4F0090D94598BF3A46CDE90112C1
:103D300028460B4A0821FEF7F5FB0134CBE700BF0C
:103D400008680000806600003A7E00004D7E00009A
:103D5000597E0000777E0000387E0000E672000089
:103D6000B47E00004082000013460A46C168FFF797
:103D700093BF0000034BD3E90130C31A58425841A6
:103D8000704700BFF41300202DE9F04385B0FFF722
:103D9000F1FF0546002840F00481834CC4F8180464
:103DA000BFF34F8FA3680093DBB2033304EB8300B0
:103DB0006946FFF7A9FC009B18B1D4F81824002A23
:103DC0005FD0DAB2991C013304EB8202DBB204EB60
:103DD0008303D268DB68029302F00303022B019293
:103DE000009159D1BDF8063070489DF80450C3F3D6
:103DF0008917502FB84628BF4FF0500868F38F132B
:103E000008F10801ADF80630FFF739FAC5F3C2052D
:103E10000646002800F0AC80FFF760FA002301A9F5
:103E200008223046FFF76DFA0099CB43DBB201332D
:103E3000C9B20331B8EB830F4FEA830904EB810168
:103E400027D908234A46A8EB09083046FFF759FA54
:103E50005FFA88F8564909F1080342463046FFF7F1
:103E600050FA009B033703EB97070097D4F81834F8
:103E7000002B47D1D4F81074DFF848914FF00708B1
:103E800065E062689A428FD8A260284605B0BDE816
:103E9000F08308234246E1E7012B69D1BDF80450C5
:103EA0004248C5F38311062928BF062161F389150D
:103EB00002318900ADF80450FFF7E1F9C5F3C205FE
:103EC0000646002854D0FFF709FA0023082201A96A
:103ED0003046FFF716FA0027BDF80420C2F383121C
:103EE000BB00974203F10803C0D200994A1CC9B233
:103EF0000331009204EB810104223046FFF701FAFE
:103F00000137E9E73046FFF7EDF9FFF733FF80F0BF
:103F10000100C5B2B9E7FB685A79B2B11B79BDF8A7
:103F2000081003EB430259F8211008FA02F3052D9B
:103F300003EA010323FA02F308BF0325AB4204D3CB
:103F40003B6831461B6838469847FB681F68002F5E
:103F5000E1D13046FFF7C6F93846FDF763F8D4F8EB
:103F600018340BB9009BA3600020FDF75DF8CCE787
:103F7000D4F8104474B90F4B5B88012BC5D90E4B94
:103F80000E480F49C01AC008000440F0020000F0BB
:103F900061F8BAE7236820469B689847E3681C6885
:103FA000E8E7002571E700BFF4130020086800006F
:103FB000001400206C0000208066000030670000C4
:103FC000CA7E0000D80000202DE9F34704460E46C3
:103FD000924601A9012218469946FFF7B3FB1B4FF1
:103FE00010B3019D4FF00008AA1CC84508EB020160
:103FF00023D117480021FDF7BDFF80F31000000416
:1040000040EA1440E4006B1C04F03804DBB2EDB26B
:1040100044F0010407EB8303033544EA881444EABF
:104020008624D86047F825403B781BB1FFF7ACFEEB
:104030000028FBD102B0BDE8F087C9B207EB8101CF
:104040005AF82830CB6008F10108CEE7F4130020BD
:104050001018002000231A46FFF7B6BF07B501234A
:10406000019201AAFFF7B0FF03B05DF804FB1FB592
:10407000CDE90123069B039301AA0323FFF7A4FFC5
:1040800005B05DF804FB1FB5CDE90023069B029344
:10409000079B03936A460423FFF796FF05B05DF87C
:1040A00004FB00001C4A2DE9F843D2F81034054601
:1040B00088460024194689B9E9680C71A3B9C2F889
:1040C00010540B60154B164EF61AF608002703F134
:1040D0000709B7420DD12046BDE8F883C9680879C1
:1040E000A04212D00968E6E7DB681A680A601D6022
:1040F000E8E719F83720EB6842453946187928BFB8
:104100004246FFF7B5FC0137E3E701340A2CD1D171
:104110004FF0FF34DFE700BFF4130020806600009B
:1041200008680000084A38B50123D2F8104413701B
:104130001D4604B938BDE3685D71236820465B689D
:104140009847E3681C68F4E7F413002010B588B0C2
:104150000023CDE90233CDE9003304931F4B204AFD
:104160000593204B06929B1A9B08079302AA6B4665
:1041700043F2274141F26E00FDF7A8FDB0B905A951
:1041800002A8FDF79BFD184B5B88022B04460AD959
:104190001648174B1749C01AC0080004224640F0C1
:1041A0000300FFF75BFF204608B010BD48F209632B
:1041B000984210D105A902A8FDF77CFD0A4B5B8847
:1041C000022B0446EFD90948094B0B49C01AC00815
:1041D00000042246E3E70324E5E700BF6E1027341E
:1041E000D80000209C0100206C00002030670000F7
:1041F00080660000DB7E00000C7F000010B5836845
:10420000D3F848319B07044605D50022BDE810408D
:104210001146FEF7BBB9FFF799FF30B9044A0821F0
:104220002046BDE81040FEF77DB9024A0221F7E7BB
:104230003D7F0000557F000000B589B00023CDE927
:104240000533CDE90133079305AA01AB43F22741BA
:1042500041F26E00FDF73AFD90B9CDE9030003A9E4
:1042600005A8FDF7DDFC40B91048114A0499121A5F
:1042700002F045F905A8FDF7F9FC09B05DF804FB6B
:1042800048F2096398420FD10A4B5B88012B09D988
:1042900009480A4B0A49C01AC008000440F002004D
:1042A000FFF7D8FE0520E8E70320E6E7D800002066
:1042B0009C0100206C000020306700008066000038
:1042C0007A7F000010B58368D3F848319B07044615
:1042D00005D50022BDE810401146FEF757B9FFF79B
:1042E000ABFF30B9044A08212046BDE81040FEF774
:1042F00019B9024A0221F7E79F7F0000B77F00004B
:1043000007B503460846197A052911D05B7A2BB107
:10431000094A0A490190FEF744FC019808490190B6
:10432000FEF73FFC019803B05DF804EBFEF72EBCEE
:10433000002AF8D0F2E700BFB08300000674000046
:10434000E472000030B5C38885B004460D4633B131
:10435000144A00921449154A2846FEF722FC217A95
:1043600005291DD0637A4BB1A088FFF76BFB104B7A
:10437000104953F820202846FEF713FC227A0E4BF2
:10438000A08853F8222003920021FFF739FB039AFB
:104390000A490346284605B0BDE83040FEF701BC97
:1043A00005B030BDB0830000BD830000B5830000C0
:1043B000248400000674000048840000D5830000B7
:1043C0002DE9F04385B01F460C9D002395F80C9015
:1043D0002B7306460C46904629463846FFF7B2FF37
:1043E000B8F1060F09D8DFE808F00412181F2833C7
:1043F000400031462846FEF7D4FB002229463846C5
:10440000FFF77EFF85F80C9005B0BDE8F0832268C9
:1044100031462846FEF7C5FBEFE7D4E900233146D5
:104420002846FEF7BEFBE8E7A36800933146D4E9CF
:1044300000232846FEF7B5FBDFE7E3680193A36896
:1044400000933146D4E900232846FEF7AAFBD4E7BF
:1044500023690293E3680193A36800933146D4E98A
:1044600000232846FEF79DFBC7E763690393236992
:104470000293E3680193A36800933146D4E90023D3
:104480002846FEF78EFBB8E708292DE9F74F80464E
:104490000E4617461C463CD8002593F80C901D7319
:1044A00019461046FFF74EFFDFF888A0DFF888B006
:1044B000AE4231D918F8052059462046FEF771FB67
:1044C0000135082DF4D11949194DDFF870A02046A7
:1044D000FEF767FB4FF0000B5E4522D918F80B2062
:1044E0007E2A05D81046019201F0E7FF019A00B933
:1044F0002E2251462046FEF754FB0BF1010BBBF177
:10450000080FE9D1012221463846FFF7F9FE84F869
:104510000C9003B0BDE8F08F51462046FEF741FBFA
:10452000CEE729462046FEF73CFBE6E7E98300009C
:10453000E7830000E5830000DF8300008073000054
:10454000F0B595B01D46164608460C46FEF7C6FE69
:104550001A9B0D93CDE9086500252B46082205A975
:1045600020460A958DF82C500C95FEF7D4FE079B3B
:104570000293069B03939DF814308DF8115003F0BD
:104580000302012A1DD1BDF81420059DC3F3C20307
:10459000C2F383168DF81030B20008230EA920460E
:1045A000FEF7B9FEC5F3952508AB0093324602AB82
:1045B0000EA92846FFF704FF2046FEF793FE15B02C
:1045C000F0BD022AF8D1BDF81650C3F3C203C5F3FB
:1045D00089158DF810300827082D2E4628BF08268B
:1045E0003B4632460EA92046FEF795FEAD1B08ABB2
:1045F00002AA31460EA83744FFF746FF002DEBD143
:10460000DAE7704707B5044B0093044A4023FFF7ED
:1046100097FF03B05DF804FB71460000AD18002061
:1046200030B5104D0FCD89B06C460FC495E80F0022
:1046300084E80F004FF0FF330622CDE90023CDE9D7
:10464000023309484FF0EB7300226946069300F0ED
:10465000F9F808B1FCF780FA044B00221A7009B08F
:1046600030BD00BF5C84000070020020AC18002048
:1046700038B50D4B0D4D002018700D4804782D5D98
:10468000D2B21C4665B1043001F0E4FB08B1FCF77E
:1046900063FA084B1A7812B12378002BFBD038BD8F
:1046A0000C3001F099F9F1E7ED1800205C190020B9
:1046B00070020020AC18002008B50848084A0378AA
:1046C000D35C33B1043001F035FBBDE80840FFF79F
:1046D000A7BF0C3001F016F9F7E700BF7002002009
:1046E0005C190020FFF79CBF08B5FFF7FBFF0448EB
:1046F0000421FFF7D7FC034B01225A7108BD00BF0C
:10470000646800008402002038B5074C051E04F1DF
:10471000080318BF1C4623682BB11A6822605B6827
:1047200028469847F7E738BDF818002020B9054B10
:1047300001225A70FFF7E8BF012802D1014A9070A8
:10474000F8E77047F018002038B50C4C23789BB977
:104750000B486360A3602361E36000F0BBF805468B
:1047600000F0C4F801232370064BD3F800340BB1DA
:104770000123A370284638BD8525F5E7F0180020F1
:104780002D4700000000014038B5134CA3780546C2
:1047900003F0FF0073B115B16B680120984700204A
:1047A000FCF740FCE3680133E3600020BDE83840DB
:1047B000FCF73ABCFCF736FC25B1226913463BB93D
:1047C0002A602561E368002BECD100F0A5F8E9E749
:1047D0009D42F7D01B68F2E7F01800201FB5037860
:1047E0008DF800304368019383688DF80830C36802
:1047F000054A0393054B684653F8213052F82110BF
:10480000984705B05DF804FB5419002058190020A2
:104810001FB503788DF800304368019383688DF8E5
:104820000830C368054A0393054B684653F82130A6
:1048300052F82110984705B05DF804FB5419002088
:1048400058190020F0B5194B90F800C091F81DE000
:1048500043F82C20164B16460A6943F82C20154BBA
:1048600003F80CE00C4607460FCC89B06D460FC527
:1048700094E80F0085E80F00CDF810C0BEF1000FDE
:1048800009D0002E0C4A694608BF3246381D01F097
:104890008DF909B0F0BD002E084A694608BF3246BE
:1048A00007F10C0000F078FFF3E700BF5819002073
:1048B000541900205C190020DD4700001148000059
:1048C00000F18040002382B0036003680193019BE4
:1048D00002B07047044A137923B901211060918016
:1048E000184670478520704760190020084B1A68E9
:1048F000D20704D4C02283F8002301221A604FF0AB
:1049000080420123C2F81835024A1370704700BF75
:1049100000E100E06819002038B54FF48270FFF71D
:10492000CFFF4FF080430222C3F804230A4AD06825
:1049300040F08073D360094B1C6844F0010119609A
:104940005D685968491BB1F50A5FFAD31C60044BD6
:10495000D06001221A6038BDF0ED00E0001000E0E8
:1049600008000040124B1B6810B573B14FF4807003
:10497000FFF7A6FF4FF080430122C3F808230D4B39
:10498000587910B95A711B6898470B4B1B6873B163
:104990004FF48270FFF794FF4FF080430222C3F878
:1049A0000823044BBDE810401B680120184710BDC8
:1049B00000010040601900200401004000F1804027
:1049C00000F5C040002382B0036003680193019B9F
:1049D00002B07047800000F1A040D0F8002722F418
:1049E0004032C0F80027D0F8003743EA0141C0F850
:1049F00000177047054B4FF0FF32072843F820207F
:104A000084BFC01880F84820704700BF6C19002090
:104A100010B51A4C94F858306BBB4FF0FF3222FAA5
:104A200003F1C90748BFE11803F1010348BF81F84A
:104A30003020202BF3D10021C8B2FFF7DBFF01317A
:104A40000C29F9D1042200210D4801F081FD0D4B04
:104A5000C02283F8062340221A604FF4BE70FFF78D
:104A6000ADFF094B4FF00042C3F80423012384F843
:104A70005830002010BD0820FCE700BF6C19002052
:104A8000C019002000E100E000600040034B93F8F3
:104A90005800003818BF0120704700BF6C19002073
:104AA000F0B5364D2C1894F93040002C64DA8C782F
:104AB000C4F34004002C0BBF082300230C26082657
:104AC000B34201D10420F0BD55F8237001373FD126
:104AD0002E1845F8232086F8303014B9EA1882F8E9
:104AE00048008A78540713D4D60733D5820002F1E0
:104AF000A042D2F8004724F00204C2F80047204E3A
:104B0000C20800F007070124BC40B75C3C43B45422
:104B10008A780C7812F0020225D09B0003F18043C2
:104B200003F5C0430202D3F8101521F4473121F4F4
:104B30004071C3F810152404D3F8101502F4F8528C
:104B400004F4403422430A43C3F810250020BAE796
:104B50000133B5E74C7800F5E0724FF0A046A400B1
:104B600046F82240CBE7083B2B4493F8501041EA2B
:104B7000841483F85040E9E70820A4E76C1900206A
:104B8000C019002038B51F4C251895F93020072A88
:104B900016DD224492F848309B09032B0BD14FF0CD
:104BA000A043D3F81015C14001F001010231BDE866
:104BB0003840FFF70FBF012B0CBF02210321F6E79E
:104BC000D3B2072B1CD8930003F1804303F5C043F5
:104BD000D3F8100540F00100C3F8100502F14000C1
:104BE000800080B2FFF7EAFE51B195F9303054F8F9
:104BF00023302BB1012303FA02F2034BC3F8042341
:104C000038BD00BF6C190020006000404FF0A04389
:104C1000D3F8103523FA00F000F0010070470000CF
:104C20002DE9F74F00244E4D01944FF4807201217D
:104C300002F1804303F5C04390B21B68012B06D1FB
:104C4000D5F804330B4202D0FFF7B8FE0C43043210
:104C5000B2F5907F4FEA4101EAD1424B1B68012B2C
:104C60000CD14FF4BE70FFF7A9FE4FF0A04344F003
:104C70000044D3F820250192C3F8202514F0FF0F3B
:104C80001AD0394F00250126344210D0AB0003F171
:104C9000804303F5C043D3F81005D3F8101557F837
:104CA000253023B1C1F30141C0F3042098470135F9
:104CB000082D4FEA4606E7D1002C48DA2A4D4FF07E
:104CC000A0482A4E4FF00009012716F9013B5A1C53
:104CD00031D0C3F3C20202A90A44DCB212F8042C98
:104CE00003F03F0A03F0070307FA03F31A4222D046
:104CF0000AF5E073504658F82330C3F3014BBBF17B
:104D0000020F0CBF03210221FFF764FE07FA0AF32A
:104D1000C8F8203505EB0A0393F9303055F82330F5
:104D20004BB1A109032904D0BBF1020F12D1012913
:104D300001D15046984709F10109B9F1040FC4D1D6
:104D4000D8F820350193C8F82035002BB9D103B02D
:104D5000BDE8F08FBBF1030FEDD10229E8E700BFFA
:104D6000006000407C6100406C190020BC190020EC
:104D7000F0B5394B394C1A6885B07AB100221A6007
:104D80001B680093009B637943F0080303F0120251
:104D9000122A637104BF43F020036371304B1A6819
:104DA0007AB100221A601B680193019B637943F07A
:104DB000040303F01102112A637104BF43F02003BE
:104DC0006371284B1A68B2B100251D601B680293FD
:104DD000029B254B25480422C3F808232946C3F823
:104DE000005523689847236821482946984701239E
:104DF000237105B0F0BD637903F00F020F2A08D0CC
:104E0000D80701D4190704D462799207F1D45B075B
:104E1000EFD56279276802F0F30312F0200208D080
:104E200023F0300343F01003637101210020B847E1
:104E3000DFE70E4D95E8030002AE86E8030015E9B2
:104E4000030043F0100385E80300C4E90222637104
:104E500001213046EBE700BF14510240C819002081
:104E6000045102400851024000500240D81900206D
:104E7000D019002000F1804000F5E830002382B016
:104E8000036003680193019B02B070471FB53C4B60
:104E90003C4C1A68002A47D04FF48070FFF7EAFFB5
:104EA000A37CDA4302F0010204EB8201496811B9E4
:104EB000617C02292DD1607C022818BF04EB83039A
:104EC0004FF000010BBF01235868637459604FF025
:104ED00001038DF80C10E1740EBF02910290A274D0
:104EE0008DF80430236801A89847637C022B01D118
:104EF00001236374237D53B101238DF80430002313
:104F000002938DF80C30237501A82368984704B0EC
:104F100010BDE37C002BE8D18DF80430029301230F
:104F20008DF80C30E374DDE7174B1B68002BE1D0E4
:104F30004FF48270FFF79EFF144BC3F80025A37C4B
:104F4000627404EB83038DF80C2059688DF80420FB
:104F500021B15A600291236801A89847A37CDB43E2
:104F600003F0010304EB83035A682AB10292002282
:104F70005A6001A8236898470023A374BAE700BFCA
:104F800000D10140E019002004D1014000D00140CF
:104F900000F1804382B01A68002A14BF012000206B
:104FA00004D000221A601B680193019B02B0704775
:104FB0004FF0804310B5D3F80443610707D54FF491
:104FC0008470FFF7E5FF10B10D4B1B689847A206F0
:104FD00008D54FF48A70FFF7DBFF18B1094B0020AA
:104FE0001B68984763060AD54FF48C70FFF7D0FF13
:104FF00028B1044BBDE810401B680120184710BDC4
:10500000F8190020FC19002008B5FFF7D1FFBDE812
:105010000840FFF7A7BC00000E4B984211D0B0F13A
:10502000402F10D003F5003398420ED0A3F5803303
:1050300098420CD0084A094B90420CBF18460020F9
:105040007047074870470748704707487047074848
:10505000704700BF0030004000200040201A0020B0
:10506000001A0020081A0020101A0020181A002028
:10507000014B1B68184700BF001A0020014B1B683A
:10508000184700BF081A0020014B1B68184700BFD3
:10509000101A0020014B1B68184700BF181A002087
:1050A000014B1B68184700BF201A002070B50D4641
:1050B000FFF7B2FF044608B9002070BD0020FBF7DF
:1050C000B1FF267916B90123256023710020FBF773
:1050D000ABFF002EF0D01120EFE708B5FFF79CFFE3
:1050E00010B100230360037108BD0023435082B058
:1050F00043580193019B02B07047D0F8103170B54E
:1051000005460C4653B14FF48871FFF7EEFF637903
:105110005A0703D523680BB101209847D5F81431FD
:105120005BB14FF48A712846FFF7DFFF63791B07F5
:1051300003D523680BB102209847D5F81C315BB129
:1051400028464FF48E71FFF7D0FF607910F0100001
:1051500002D1236803B19847D5F8043163B14FF405
:1051600082712846FFF7C1FF0123237123681BB119
:10517000BDE870400320184770BD00000149024897
:10518000FFF7BBBF281A002000C0014001490248B8
:10519000FFF7B3BF301A0020001002400149024857
:1051A000FFF7ABBF381A0020002002407FB52B4B21
:1051B0001A68BAB12A4AD2F80413C80712D50021D6
:1051C00019601B680193019B4FF48073ADF8103098
:1051D000D2F80C358DF81230224B06AA12E90300E2
:1051E0001B689847204A1368DBB11D4BD3F80413A2
:1051F000890716D50021116012680292029A4FF4B5
:105200008272ADF81020D3F81825D3F84835ADF8E0
:105210001430144BADF8122006AA12E903001B68E3
:105220009847124B1A68B2B10D4AD2F804235207BC
:1052300011D500221A601B680393039B4FF48473FB
:10524000ADF8103006AA074B12E903001B6807B03F
:105250005DF804EB184707B05DF804FB002101403E
:1052600000200140401A0020042101400821014093
:10527000074B00221A6082B01B680193019B054B0B
:10528000D3F80805044B1B68C0B202B0184700BF32
:1052900000D1004000D00040441A002000234350B9
:1052A00082B043580193019B02B070472DE9F0474B
:1052B000DFF8948004460E4691464FF4803700256F
:1052C00000F5A07AD4F80433A90001F5A0713B429F
:1052D00089B20DD05AF8253053B1C4F8487320462E
:1052E000C4F80873FFF7DAFF58F82630E8B2984799
:1052F0000135A9454FEA4707E4D1D4F80433DA076A
:105300000CD5D4F800314BB120464FF48071FFF733
:10531000C5FF0D4B042053F826309847D4F80433CA
:105320009B070ED5D4F804315BB120464FF482714F
:10533000FFF7B4FF044B052053F82630BDE8F047D3
:105340001847BDE8F08700BF481A00200248032232
:105350000021FFF7ABBF00BF00B0004002480422AD
:105360000121FFF7A3BF00BF0040024000F18040D1
:1053700000F5E040002382B0036003680193019BC5
:1053800002B07047F0B5504B504C1B6885B0002BF5
:105390003DD04FF4827094F82E20FFF7E7FF2AB338
:1053A00094F82F3013BB4A4B1B68002B33D04FF4BB
:1053B0008070FFF7DBFF638B94F82D108B424FD981
:1053C00022895B1A9BB292B26383D31A626802EBA2
:1053D0004303404AC2F82C36C2F830164FF48270AC
:1053E000FFF7C4FF3C4B01221A6014E0636802938C
:1053F0002389ADF80C30E36800218DF8041023BB3D
:105400002374236801A89847002384F82F3094F868
:105410002E30002BC7D1314B1B685BB14FF4887025
:10542000FFF7A4FF0023237402238DF8043001A8A2
:10543000236898472A4B1B68EBB14FF48A70FFF73B
:1054400095FF0023237405B0F0BD208B608363605B
:105450002081E160002AD4D11E4B01221A60D0E7DE
:10546000BCD1E368012284F82F2013B100226283AB
:10547000AFE76383B2E766694FF000470125002E6E
:10548000E1D0B6FA86F227FA02F34632920026EA13
:10549000030602F1804303F5E0431B68002BEED0C6
:1054A0001046FFF763FFA2F58C72D30882F0040266
:1054B000C2F380028DF808308DF8045023688DF80F
:1054C000092001A89847DAE704710040501A00202B
:1054D00000710040007000400470004010710040F6
:1054E0001471004030B4064A52F82040054A0025A5
:1054F00032F8101022F81050234630BC184700BF75
:105500008C1A0020801A00200020FFF7EBBF01203A
:10551000FFF7E8BF0220FFF7E5BF0320FFF7E2BF78
:105520000420FFF7DFBF0520FFF7DCBF2DE9F347BD
:10553000002406460F46904600F5A0754FF48039CA
:10554000A2462B688BB1D6F8043309FA04F21A424A
:105550000BD0C5F800A02B680193A000019B00F5BB
:10556000A07398B2D7E9003198470134A04505F1FE
:105570000405E6D102B0BDE8F08700000249034807
:105580000422FFF7D3BF00BFA41A00200080004010
:10559000024903480422FFF7C9BF00BFB01A002028
:1055A00000900040024903480422FFF7BFBF00BF3C
:1055B000BC1A002000A00040024903480622FFF761
:1055C000B5BF00BFC81A002000A00140024903482F
:1055D0000622FFF7ABBF00BFD41A002000B0014085
:1055E0000023435082B043580193019B02B070479F
:1055F0000A4610B54FF48E71FFF7F2FF136A9168F7
:10560000C95C136A01331362C0F81C1510BD8B69A5
:105610000A4610B54FF4847123B9FFF7E1FFD0F8C3
:10562000183510BDFFF7DCFF536AD168D0F81805B4
:10563000C854536A01335362F3E700001FB50123D6
:105640008DF80030044BCDE90110D3E90012684613
:10565000904705B05DF804FBE01A002030B54C48D7
:10566000D0F8043313F4007F85B005464DD0D0F850
:105670002431002B49D04FF49271FFF7B1FF4FF462
:105680000173C0F80833434B93F829200AB901226B
:1056900042603F4902228DF80020D1F88024C1F8F1
:1056A000802403929A690292DA6801920022C3E987
:1056B00006226846D3E9001290473548D0F81C31DD
:1056C0005BB134494A690B6A9A420A464AD991F851
:1056D0002830002B46D1FFF78BFF2D48D0F84431FE
:1056E0008BB14FF4A271FFF77BFF2A4B93F829206F
:1056F0000AB1012202609A692AB10022586AD96867
:105700009A61FFF79BFF05B030BDD5F804335B0706
:10571000D3D5D5F80831002BCFD01E4C1C482146DC
:10572000FFF775FF636AA2699A422346C5D1E26911
:10573000E1684AB12369E3600023606AA261E36122
:105740006362FFF77BFFB8E794F829200AB90122CA
:105750006A600F4A4FF40170C2F808030022586AC9
:105760009A61EEE70A484FF48E71FFF739FF5369EB
:10577000002BB2D051690291002391688DF800305E
:10578000019153616846D2E900139847A5E700BF2D
:1057900000200040E01A00202DE9F843544B057921
:1057A00091462C2202FB0532064692F82A200C462E
:1057B0009846002A40F098804E490068FFF776FC32
:1057C0000746002840F0928021683368481C0BD0BF
:1057D0004FF0A04001228A40C0F8082501F5E07290
:1057E0004FF0030C40F822C06068421C1FBF00F558
:1057F000E0724FF0A04C4FF0000E4CF822E0A2698E
:10580000C3F8242594F814C0627DBCF1010F4CEA62
:105810000202C3F86C25C3F81405C3F80C151DD19A
:10582000A1684A1C1FBF01F5E0724FF0A0404FF085
:10583000000C40F822C0E268501C0BD04FF0A04C86
:1058400001209040CCF8080502F5E0704FF0030EFF
:105850004CF820E0C3F80825C3F810152C236B433F
:1058600008EB0302C2F80490226948F80320B9F15A
:10587000000F21D03068247F4FF48E71FFF7B0FE07
:105880004FF4A2713068FFF7ABFE32681A4BC2F8D2
:105890000433110B42F307326301002ADBB21EDB33
:1058A0001648841884F800330123520901F01F01BF
:1058B00003FA01F140F8221033680422C3F80025EE
:1058C0002C2303FB05830022C3E9062283F8292049
:1058D0005A61012283F82A203846BDE8F883084A35
:1058E00001F00F015354E7E70827F5E71127F3E725
:1058F000E01A00205D5600008000020000E100E098
:1059000014ED00E0F8B503680479304D0022C3F8C7
:1059100000252C2202FB04525268A2B12C4AC3F883
:1059200008231A0B43F30733002B0CDB02F01F0193
:105930005B0901228A402033264941F82320BFF326
:105940004F8FBFF36F8F0068D0F80C65D0F8141537
:10595000D0F80835D0F810254FF0FF37BE42C0F818
:10596000147518BF06F5E076C0F80C75C0F8087518
:10597000C0F810751EBF4FF0A0474FF0020C47F85B
:1059800026C04E1C1FBF4FF0A04601F5E071022754
:1059900046F82170511C1FBF4FF0A04102F5E07284
:1059A000022641F822605A1C1FBF03F5E0734FF036
:1059B000A042022142F82310FFF78FFB2C2303FBA8
:1059C0000454002384F82A306360F8BDE01A0020F4
:1059D0008402020000E100E02DE9F047204F90F83A
:1059E00004904FF02C0808FB097405466669002EE8
:1059F00034D162610068A16026624FF48E7184F830
:105A00002860FFF7EDFD2868012383602146FFF73A
:105A1000EFFD6368A0468BB92868D4F814A0236A08
:105A20009A4511D82A68D2F81C31002BFBD00123EB
:105A3000D3602C2303FB097300225A613046BDE872
:105A4000F08794F828303BB9D0F81C31002BF8D0FF
:105A50004146FFF7CDFDE2E70F26EAE71126EDE725
:105A6000E01A00200023435082B043580193019B69
:105A700002B070471FB501238DF80030044BCDE90B
:105A80000110D3E900126846904705B05DF804FBA9
:105A90000C1B00207FB5434AD2F82461002E60D051
:105AA00010464FF49271FFF7DDFF02238DF80030AE
:105AB000D2F88034C2F880340393D2F83C35029394
:105AC000394BDA6801920022C3E906226846D3E91D
:105AD000001290473348D0F8443173B14FF4A271AB
