:1000000000000120750300005D0300005F03000095
:1000100061030000630300006503000000000000AE
:100020000000000000000000000000006703000066
:1000300069030000000000006B0300006D03000076
:100040006F0300006F0300006F0300006F030000E8
:100050006F0300006F0300005D0600006F030000E7
:100060006F0300006F0300006F0300006F030000C8
:100070006F0300006F0300006F0300006F030000B8
:100080006F0300006F0300006F0300006F030000A8
:100090006F0300006F0300006F0300006F03000098
:1000A0006F0300006F0300006F0300006F03000088
:1000B0006F0300006F03000000000000000000005C
:1000C0006F0300006F0300006F0300006F03000068
:1000D0006F0300006F0300006F03000000000000CA
:1000E0000000000000000000000000000000000010
:1000F0000000000000000000000000000000000000
:1001000000000000000000000000000000000000EF
:1001100000000000000000000000000000000000DF
:1001200000000000000000000000000000000000CF
:1001300000000000000000000000000000000000BF
:1001400000000000000000000000000000000000AF
:10015000000000000000000000000000000000009F
:10016000000000000000000000000000000000008F
:10017000000000000000000000000000000000007F
:10018000000000000000000000000000000000006F
:10019000000000000000000000000000000000005F
:1001A000000000000000000000000000000000004F
:1001B000000000000000000000000000000000003F
:1001C000000000000000000000000000000000002F
:1001D000000000000000000000000000000000001F
:1001E000000000000000000000000000000000000F
:1001F00000000000000000000000000000000000FF
:10020000354936480A1A02D0072291438D463449AF
:1002100034480A1A06D00722914381F30988022242
:1002200082F3148830483149314A00F044F83148AB
:100230003149324A00F03FF831483249324A00F041
:100240003AF832483249334A00F035F832483349F7
:10025000334A00F030F833483349344A00F02BF881
:1002600033483449344A00F026F8344834490022EF
:1002700000F02CF833483449002200F027F83348C6
:100280003349091A082902DB002202604160314A21
:1002900090471F481F49884205D00268043003B4C4
:1002A000904703BCF7E700208646EC46002000217B
:1002B000294A9047FEE7884207D0521A05D00378B2
:1002C00001300B700131013AF9D17047884202D0F8
:1002D00002700130FAE770470000012000E00020C2
:1002E0000000012000000120780B00000000002029
:1002F00004000020D0030000D0030000600B0000C9
:10030000780B00000000002000000020600B0000BF
:10031000600B0000600B0000600B0000600B000031
:10032000600B0000600B0000600B0000780B000009
:100330007C0B0000040000200400002004000020CA
:1003400050000020500000205000002050000020ED
:10035000502000209D03000011080000FEE7FEE78A
:10036000FEE7FEE7FEE7FEE7FEE7FEE7FEE7FEE765
:1003700000F002B8FFF7FCBF0F484FF007018843B9
:1003800085460E4880470E48016841F470010160BF
:10039000BFF34F8FBFF36F8FFFF732BF09480A4992
:1003A0000A4A884207D0521A05D0037801300B70F0
:1003B0000131013AF9D170470000012071080000B5
:1003C00088ED00E0600B000000000020000000202D
:1003D0001FB50021039001AA44F20100CDE90111EB
:1003E00000F004F805B05DF804FB000072B6094B9C
:1003F0001B68DB0700D500BEBFF34F8F0649074BD4
:10040000CA6802F4E0621343CB60BFF34F8F00BFB2
:10041000FDE700BFF0ED00E000ED00E00400FA05AC
:1004200000F1804000F5C040002382B00360036803
:100430000193019B02B07047800000F1A040D0F80A
:10044000002722F44032C0F80027D0F8003743EAF2
:100450000141C0F800177047054B4FF0FF320728E5
:1004600043F8202084BFC01880F83C20704700BFAC
:100470000400002010B51A4C94F849306BBB4FF0C3
:10048000FF3222FA03F1C90748BFE11803F1010363
:1004900048BF81F82420202BF3D10021C8B2FFF7F8
:1004A000DBFF01310929F9D1042200210D4800F0B8
:1004B00023FB0D4BC02283F8062340221A604FF421
:1004C000BE70FFF7ADFF094B4FF00042C3F80423A5
:1004D000012384F84930002010BD0820FCE700BF4C
:1004E000040000204900002000E100E0006000401E
:1004F000F0B5364D2C1894F92440002C64DA8C7831
:10050000C4F34004002C0BBF08230023092608264F
:10051000B34201D10420F0BD55F8237001373FD11B
:100520002E1845F8232086F8243014B9EA1882F8EA
:100530003C008A78540713D4D60733D5820002F1E1
:10054000A042D2F8004724F00204C2F80047204E2F
:10055000C20800F007070124BC40B75C3C43B45418
:100560008A780C7812F0020225D09B0003F18043B8
:1005700003F5C0430202D3F8101521F4473121F4EA
:100580004071C3F810152404D3F8101502F4F85282
:1005900004F4403422430A43C3F810250020BAE78C
:1005A0000133B5E74C7800F5E0724FF0A046A400A7
:1005B00046F82240CBE7083B2B4493F8441041EA2D
:1005C000841483F84440E9E70820A4E704000020ED
:1005D0004900002038B51F4C251895F92420072A1A
:1005E00016DD224492F83C309B09032B0BD14FF0CF
:1005F000A043D3F81015C14001F001010231BDE85C
:100600003840FFF719BF012B0CBF02210321F6E789
:10061000D3B2072B1CD8930003F1804303F5C043EA
:10062000D3F8100540F00100C3F8100502F14000B6
:10063000800080B2FFF7F4FE51B195F9243054F8F0
:1006400023302BB1012303FA02F2034BC3F8042336
:1006500038BD00BF04000020006000402DE9F347D2
:1006600000244B4D01944FF48072012102F180432C
:1006700003F5C04390B21B68012B06D1D5F80433B3
:100680000B4202D0FFF7CCFE0C430432B2F5907F50
:100690004FEA4101EAD13F4B1B68012B0CD14FF4CB
:1006A000BE70FFF7BDFE4FF0A04344F00044D3F806
:1006B00020250192C3F8202514F0FF0F1AD0364FE1
:1006C00001260025344210D0AB0003F1804303F52E
:1006D000C043D3F81005D3F8101557F8253023B1CF
:1006E000C1F30141C0F3042098470135082D4FEABA
:1006F0004606E7D1002C1FDA274E4FF0A0493746B7
:1007000096F944305A1C10D0C3F3C20202A90A441D
:10071000DCB212F8042C03F03F054FF0010A03F09D
:1007200007030AFA03F31A4209D1D9F820350193D5
:10073000C9F82035002BE3D102B0BDE8F08705F5FC
:10074000E073284659F82330C3F30148B8F1020F8B
:100750000CBF03210221FFF76FFE0AFA05F3C9F867
:1007600020357B1993F9243057F82330002BDCD047
:10077000A109032904D0B8F1020F04D10129D4D171
:1007800028469847D1E7B8F1030FCED10229F6E702
:10079000006000407C610040040000204FF0A04257
:1007A000D2F80435D94301F4003103F40033C2F820
:1007B0000815C2F80C35704707B5FFF75BFE08B1A6
:1007C000FFF706FE4FF0A04203234FF40031C2F8BA
:1007D0004437C2F808150C4A11889278ADF8041015
:1007E0008DF8062001A9094A8DF805300D20FFF784
:1007F0007FFE08B1FFF7ECFD01210D20FFF7EAFEB7
:1008000003B05DF804FB00BF600B00009D07000013
:1008100008B5FFF7D1FFFEE7044B1868421C04BF80
:10082000034B1878831F584258417047300100101D
:10083000E00F00F0074B1B78062B09D1064B1B6815
:10084000C3F30313033B042B02D8044AD05C704764
:1008500000207047E00F00F0E80F00F0720B00007E
:10086000024AD2F80034002BFBD0704700E0014070
:1008700010B5FFF7D1FF28B1874B884A1B68C3F337
:1008800004231360FFF7D6FF10B1854B854A1A6029
:10089000FFF7C2FF28B1844B844A1B68C3F342337D
:1008A0001360FFF7C7FF20B1814AD36823F080733C
:1008B000D360FFF7B1FF40B14FF080430022C3F88F
:1008C0000C21C3F81021C3F83825FFF7B3FF10B18E
:1008D000784B03221A60FFF7ADFF40B1764B05223B
:1008E0001A6001229A6700229A603F225A60734B75
:1008F0001A68511C0BBF724B724B1A781B6802BFEF
:1009000008331B68C3F30313062A4DD1033B042BA2
:1009100003D86D4AD35C002B46D04FF080526B4B0E
:10092000D2F80414C3F82015D2F80814C3F824151B
:10093000D2F80C14C3F82815D2F81014C3F82C15EB
:10094000D2F81414C3F83015D2F81814C3F83415BB
:10095000D2F81C14C3F84015D2F82014C3F844157B
:10096000D2F82414C3F84815D2F82814C3F84C154B
:10097000D2F82C14C3F85015D2F83014C3F854151B
:10098000D2F83414C3F86015D2F83814C3F86415DB
:10099000D2F83C14C3F86815D2F84014C3F86C15AB
:1009A000D2F84424C3F87025FFF736FF28B1484B2E
:1009B000484A1B6803F04F031360FFF72DFF48B14F
:1009C0004FF08043D3F80024D20744BF6FF00102F8
:1009D000C3F80024394B1B68062B0CD1394B1B681C
:1009E000033B042B02D83C4AD35C23B13B4A136837
:1009F00043F4806313603A4AD2F8883043F47003BA
:100A0000C2F88830BFF34F8FBFF36F8F2B4B1B683B
:100A1000062B0FD12B4B1B68033B042B02D8314A0A
:100A2000D35C3BB14FF01023D3F808224FF0804342
:100A3000C3F858254FF01023D3F80022002A03DB17
:100A4000D3F80432002B22DA27490123C1F80435F8
:100A5000FFF706FF4FF010201524C0F80042FFF703
:100A6000FFFEC0F80442FFF7FBFE0023C1F8043587
:100A7000FFF7F6FEBFF34F8F19491C4BCA6802F40B
:100A8000E0621343CB60BFF34F8F00BFFDE7184B0D
:100A9000184A1A6010BD00BF240300104035014001
:100AA00074C007400DF0ADBA440200103C05004090
:100AB000F0ED00E0A00500401056004030010010AD
:100AC000E00F00F034010010630B000000C0004094
:100AD00058020010E40E0040680B00003C17004074
:100AE00000ED00E06D0B000000E001400400FA059D
:100AF000000000200090D0038446002A2DD010F082
:100B0000030F04D000F8011B013A26D0F7E7C9B261
:100B100041EA012141EA0141202A12D3A2F1200237
:100B20002DE9F0030B460C460D460E460F4688464F
:100B30008946A0E8FA03203AFBD2BDE8F003203250
:100B40000BD0042A05D340F8041B043A05D0042A2C
:100B5000F9D200F8011B013AFBD160467047000052
:100B6000020002000001010100000001010000007C
:080B700000010100000000007B
:040B78000090D00316
:040000030000037581
:00000001FF
