:1000000000000120750300005D030000D90E000010
:1000100061030000630300006503000000000000AE
:100020000000000000000000000000006703000066
:1000300069030000000000006B0300006D03000076
:10004000F53D00006F0300008D3E00005D3E0000A6
:10005000693E00006F0300000D3A0000714100008E
:10006000694300007D4300009143000039410000D6
:100070006F0300005D4000006F0300006F0300008D
:10008000D14C0000A1040000993F0000813E000017
:10009000F5420000FB42000001430000074300005E
:1000A0000D43000013430000A5430000B9430000C6
:1000B000693F0000793C00000000000000000000E3
:1000C0006F030000793F0000893F0000753E00008B
:1000D000494100005D3B00006F030000000000008C
:1000E0000000000000000000000000000000000010
:1000F0000000000000000000000000000000000000
:1001000000000000000000000000000000000000EF
:1001100000000000000000000000000000000000DF
:1001200000000000000000000000000000000000CF
:1001300000000000000000000000000000000000BF
:1001400000000000000000000000000000000000AF
:10015000000000000000000000000000000000009F
:10016000000000000000000000000000000000008F
:10017000000000000000000000000000000000007F
:10018000000000000000000000000000000000006F
:10019000000000000000000000000000000000005F
:1001A000000000000000000000000000000000004F
:1001B000000000000000000000000000000000003F
:1001C000000000000000000000000000000000002F
:1001D000000000000000000000000000000000001F
:1001E000000000000000000000000000000000000F
:1001F00000000000000000000000000000000000FF
:10020000354936480A1A02D0072291438D463449AF
:1002100034480A1A06D00722914381F30988022242
:1002200082F3148830483149314A00F044F83148AB
:100230003149324A00F03FF831483249324A00F041
:100240003AF832483249334A00F035F832483349F7
:10025000334A00F030F833483349344A00F02BF881
:1002600033483449344A00F026F8344834490022EF
:1002700000F02CF833483449002200F027F83348C6
:100280003349091A082902DB002202604160314A21
:1002900090471F481F49884205D00268043003B4C4
:1002A000904703BCF7E700208646EC46002000217B
:1002B000294A9047FEE7884207D0521A05D00378B2
:1002C00001300B700131013AF9D17047884202D0F8
:1002D00002700130FAE770470000012000E00020C2
:1002E000000001200000012088730000BC010020F4
:1002F00004020020D0030000D0030000B852000028
:1003000088730000BC010020BC010020845600005E
:100310008456000084560000845600008456000075
:100320008456000084560000845600008873000044
:10033000D073000004020020040200200402002008
:10034000181A0020181A0020181A0020181A002065
:10035000183A00209D030000F54C0000FEE7FEE780
:10036000FEE7FEE7FEE7FEE7FEE7FEE7FEE7FEE765
:1003700000F002B8FFF7FCBF0F484FF007018843B9
:1003800085460E4880470E48016841F470010160BF
:10039000BFF34F8FBFF36F8FFFF732BF09480A4992
:1003A0000A4A884207D0521A05D0037801300B70F0
:1003B0000131013AF9D1704700000120CD4D000014
:1003C00088ED00E0C854000000000020BC010020BF
:1003D0001FB50021039001AA44F20100CDE90111EB
:1003E00000F004F805B05DF804FB000010B572B62B
:1003F00002F056FF02F086FD0028FBD1154C628802
:100400004AB11548154B1649C01AC008000440F0FF
:10041000010002F0DDFE134B1B68DB0700D500BEB8
:100420006388012B09D90C480C4B0F49C01AC0082E
:10043000000440F0020002F0CBFEBFF34F8F0B49E7
:100440000B4BCA6802F4E0621343CB60BFF34F8FDB
:1004500000BFFDE76C00002084530000D452000070
:100460001A570000F0ED00E02657000000ED00E014
:100470000400FA0572B6024A13680133136070472C
:1004800004020020034A1368013B136003B962B6FB
:10049000704700BF04020020FFF7ECBFFFF7F2BF78
:1004A000024B034A1B681068184700BF1002002067
:1004B0000802002070B5064D0646002455F8043B9E
:1004C0000BB1304698470134042CF7D170BD00BF02
:1004D00020020020033080B240F2FE33984230B553
:1004E0001FD8134B1A783AB91C895D892C440444EF
:1004F000A4B2B4F5806F0AD91A7DAAB99A8BDC8BA5
:100500002244024492B2B2F5806F0DD801220A80D3
:100510001446142202FB04335A89104458810020E7
:1005200030BD48F20860FBE748F20660F8E700BF1C
:10053000540200200B4A0C4B5188142000FB01315F
:10054000CB6833B90420496810700122074801F0D4
:1005500099BE07490523137002238B800122096885
:100560000023F3E73802002054020020000000209E
:100570008002002007B5002305490093054A096859
:100580000548082301F0BEFD03B05DF804FB00BF81
:10059000800200206C5700000000002007B50023F7
:1005A00001460093034A0448082301F0ABFD03B061
:1005B0005DF804FB645700000000002013B5002321
:1005C0000C4600930146084A0848042301F09AFDAE
:1005D00038B90749142303FB04140123237402B020
:1005E00010BD48F20D60FAE76057000000000020DF
:1005F0005402002037B50A480A4B42689C881968A3
:1006000053880325033305709BB2002000909B00A4
:1006100001EB8401044801F075FD03B030BD00BF5B
:1006200038020020800200200000002010B50146A2
:10063000044800F00FFD1C220446002104F0B2FD26
:10064000204610BDBC0100204388033300EB830328
:1006500099420BD382884FF6FF739A4208D00388E1
:1006600033B18068431C584258417047022070479C
:100670000120704738B5144B14220D4602FB0030A0
:100680002B68446804F58051A3B15C88033403EB04
:1006900084048C4215D22368013312D02046FFF720
:1006A000D3FF012808D002280BD00028F1D12C60FC
:1006B000012038BD0834ECE76388033304EB83047E
:1006C000E7E70020F5E700BF54020020426873B559
:1006D00004460D466AB3244BD9688A4229D31B6964
:1006E0009A4226D812F0030323D1204900890989B0
:1006F00088421ED12068916888421AD11C494868F6
:10070000824203D900F5805082420DD389698A4222
:100710000CD901F580518A4208D201222A80B3FA0D
:1007200083F0400902B070BD1A46F7E748F209634A
:10073000F5E700232B801E460196288801A9FFF7C4
:1007400099FF30B92B8801339BB2012B2B80F3D951
:10075000E8E7019B226899689142EED16360034B00
:100760001B892381DEE700BF000000203802002043
:10077000540200202DE9F8431C461D4B1B78064609
:100780000F46154673B382B37CB3DFF86C804FF02D
:100790001409A388012B02D948F2096020E009FB63
:1007A00003F318F803302BB9A0882146FFF762FF46
:1007B00020B92060A3880133A380EAE723681EB133
:1007C000998832889142EFD11FB119883A889142B5
:1007D000EAD19A68C5E90023064B1B892B810020CA
:1007E000BDE8F88348F20160FAE748F20460F7E7F1
:1007F00030020020380200205402002008B5074BC8
:100800005888191DFFF736FF18B1BDE80840FFF7FB
:10081000F1BEBDE80840FFF78DBE00BF38020020E2
:100820002DE9F04FA14FDFF8A89289B00646B846EF
:100830003B6823B99E48494600F046FC3860D8F82A
:10084000005029784B1E052B07D8DFE813F0220053
:100850007700770009010901600148F20E64142253
:10086000002103A804F09EFC41F61D539C4208BFE2
:100870000024D8F8003004941A78013A052A00F2CE
:10088000F281DFE812F0DE01E201020212021E0232
:1008900028022EB1874B00225A604FF40644DEE74F
:1008A0002B79032B1DD8DFE803F015022B36824984
:1008B0000B78022B08461AD00B7D022B4FF0010358
:1008C00017D114225343C2180020C8545068FFF7B0
:1008D00065FE03E001232B71FFF74CFE002800F0BA
:1008E000B980744B00225A6048F20D64B7E70023C8
:1008F000E7E7704A13700023536041F61D54AEE7DA
:100900006E496F48002302222B718A8009680122F8
:1009100001F0B8FCE2E76B4B684A59881068002682
:100920002E711423644D4B43E918EE544C68146047
:10093000948848600C8102219180C8E7B5F814A022
:10094000AA7DDFF874B1AEB1022AEB8806D9142172
:1009500001FB0AB1DA1C088902440A81142202FB55
:100960000ABAC3F57F43BAF80A20FD331344AAF844
:100970000A3092E7142303FB0AB318895C6804EB7E
:100980008004062A69D8DFE802F0274E36441D5A53
:10099000040041F61D54AA7DEB88022A06D91421D1
:1009A00001FB0AB1DA1C088902440A81142202FB05
:1009B0000ABAC3F57F43BAF80A20FD331344AAF8F4
:1009C0000A304CE74048414900234360AB6903606B
:1009D000FFF77CFE00285BD00223AB750023009359
:1009E0000423EA182146364801F08CFB002831D058
:1009F00048F20D64CFE72B69002B14BF03230123BA
:100A0000AB750023009305F10C02042304F10801E7
:100A1000E9E70123AB750022EB8800922A699B006D
:100A200004F10C01DFE703290CBF05230623AB7596
:100A300000230093042305F10802E118D3E70623FD
:100A4000AB75224B1988204B5868FFF7B7FD044659
:100A50000028A0D109B0BDE8F08F48F20E649AE7F3
:100A6000002E7FF41AAF2B79012B33D0022B3FF4E9
:100A700044AF002B7FF4F1AE02232B710DF10A017C
:100A8000EB68039303A8CDE90466FFF71FFE10B9D6
:100A900048F20964E3E60498BDF80A108388EB8005
:100AA00003882B81FFF78AFD044626E050020020D0
:100AB000BC010020300200205402002080020020EF
:100AC00000000020380200201402002088020020CC
:100AD00048020020814B03AA3146A81DFFF74AFEB9
:100AE0007E4B044668B999880498FFF767FD044671
:100AF00048F209639C423FF400AF002C7FF4AFAE94
:100B0000A8E708223146184604F04CFBF0E7002E17
:100B10007FF4C3AE724B1A7BB2B11E731A78013ADE
:100B2000062A3FF69AAE01A151F822F0D70B000039
:100B3000FD0B00001B0C0000210C00005B080000F6
:100B4000270C0000390C00001A78072AE6D801A10A
:100B500051F822F0750B00001D0B00001D0B00006A
:100B60009B0B0000AF0B0000D30B0000D30B000069
:100B7000970B00001A895B4901321A8100225A80C2
:100B80001A730A78B2FA82F252099A720A7DB2FA9C
:100B900082F25209DA72012207E0534958688A88C2
:100BA0004088033202448A8002221A70B6E74D4C14
:100BB0005A884D49142505FB024208685468506064
:100BC0008888108102200C60888000211174062220
:100BD000EBE70722E9E79A7A32B9DA7A8AB9002292
:100BE0001A705A805A6088E63E4900229A72CA6892
:100BF000002AF2D1097C0029EFD05A80FFF7FEFDD0
:100C000052E70022DA72374A116A0029E7D192F8D6
:100C10002420002AE3D00122EFE7FFF7EBFC43E7B3
:100C2000FFF788FC40E72F4A5B88142101FB032370
:100C30005868FFF7B3FC37E700225A60FFF79AFCC9
:100C400032E700238DF80C300DE001228DF80C20E6
:100C50001A89ADF818209A88DB680593ADF81A2038
:100C600000238DF81C3003A8FFF724FC002649461A
:100C70001E48C8F8006000F052FA1D48012100F03B
:100C800099FA00287FF4D4ADE4E602228DF80C2016
:100C90001A89ADF818209A88ADF81A20DA689B7D79
:100CA00005929A1F53425341DBE703228DF80C2033
:100CB000DA88ADF818201A89DB68ADF81A20059398
:100CC000D1E704228DF80C20DB88ADF81830002322
:100CD000ADF81A30F3E70523B4E700BF8C0200201B
:100CE000380200205402002080020020BC010020B5
:100CF0007C0200204068FFF793BD000008B505485E
:100D0000012100F03FFA18B9BDE80840FFF788BD9F
:100D100008BD00BF7C0200202DE9F3419846374B07
:100D20001B7806460D46002B5CD000295DD0098853
:100D30004FF6FF7399425BD06B88002B58D06B68DD
:100D40009B0758D14AB92F890DF102013846FFF7A8
:100D5000C1FB30B102B0BDE8F08113885788ADF80F
:100D6000023001A8FFF762FC044660B9BDF802300A
:100D7000234A142101FB032358890338C01B5881DF
:100D800048F20760E6E780F8008000238375BDF82D
:100D9000023083826B68036101211A4800F0FEF97A
:100DA0002B882381B8F1030F6B88A38004BF042331
:100DB000A3754FF0000508BF3368E06008BFA3616A
:100DC0001148E780658101A900F06EF936B1E3684A
:100DD00033600E4B75601B89B5723381FFF78EFF50
:100DE0000020B7E748F20160B4E748F20460B1E7D9
:100DF00048F20360AEE748F20260ABE73002002041
:100E0000540200204C020020BC01002038020020C7
:100E100073B50D460446C8B1C1B10DF10601FFF727
:100E200055FCB0B10C4BBDF806006668142202FBFD
:100E3000003001210C3000F0B1F963682E600C33F2
:100E40006B600123A372002002B070BD48F2046001
:100E5000FAE748F20960F7E75402002013B50446A8
:100E6000A8B10DF10601FFF731FC98B10C4ABDF8AD
:100E70000630142101FB0323DA6872B1A27A62B151
:100E8000DA680020013ADA60A07202B010BD48F2C0
:100E90000460FAE748F20960F7E748F20560F4E712
:100EA0005402002002230022FFF736BF18B10323AB
:100EB0000022FFF731BF48F20460704707B5ADF874
:100EC0000600ADF804100DF1060001A9FFF752FC71
:100ED00003B05DF804FB00001EF0040F1CBFEFF32D
:100EE00009800AE0EFF308800549064A884201D8E4
:100EF000904202D88D464FF00000034B1847000087
:100F00000000012000E00020310F0000BFF34F8FF0
:100F10000549064BCA6802F4E0621343CB60BFF395
:100F20004F8F00BFFDE700BF00ED00E00400FA05B1
:100F30002DE9F74F064602F0B3F901F0E3FF002870
:100F4000FBD1374C3748384B384D9F6A6B88241A91
:100F5000E408240444F00104002E59D0D3B1B2694E
:100F60003349204602F038F96B889BB1F36801934E
:100F7000B36800932F49D6E90023204602F041F9D7
:100F80006B883BB1F36900932B49D6E904232046D3
:100F900002F02BF9244BDB6A990705D56B881BB14E
:100FA0002649204602F014F9DFF8A0A0DFF8A0B02F
:100FB0004FF000084FF0010909FA08F33B4208D04E
:100FC0005AF828202AB16B881BB15946204602F0F6
:100FD00003F908F10108B8F11A0FEDD13A0607D567
:100FE0006B882BB1104B16495A6B204602F0F4F86F
:100FF0003B0407D56B882BB10B4B12499A6B2046EB
:1010000002F0EAF83046FFF781FF03B0BDE8F08F49
:10101000002BBFD00C49204602F0DAF8BAE700BF37
:1010200004540000D452000000ED00E0AC000020A9
:101030007457000089570000BE570000195800007F
:101040006858000088580000E6570000645D000002
:101050005D58000037B550E8013F9DB2C489254472
:101060008489A54228BF2D1B0489A54202BFBFF376
:101070002F8F002207E0C5EA030540E80154002C49
:10108000E9D14FF001028DF803200193019B9DF8F7
:1010900003200B6002F0FF0322B10B8800681844A4
:1010A00003B030BD1846FBE70A884B889A4209D145
:1010B00050E8012FC2EA024240E80123002BF7D199
:1010C000012070470020704737B550E8023F1FFAF3
:1010D000A3F5C488A54202BFBFF32F8F00220DE005
:1010E000C48925448489A54228BF2D1BC3EA054530
:1010F00040E80254002CE8D14FF001028DF80320A3
:101100000193019B9DF803200B6002F0FF0322B1C5
:101110004B880068184403B030BD1846FBE70A88C6
:101120004B889A4209D150E8022FC2EA224240E895
:101130000223002BF7D1012070470020704710B523
:10114000034653E8000F0A4643E8002494F0000FDA
:10115000F7D110BD10B5034653E8002F42EA010055
:1011600043E8000494F0000FF6D110BD10B503461B
:1011700053E8000F00EA010243E8002494F0000F56
:10118000F6D110BD10B5034653E8000F00EB010285
:1011900043E8002494F0000FF6D110BD10B50346CB
:1011A00053E8002F02EB010043E8000494F0000F25
:1011B000F6D110BD10B5034653E8002FA2EB010095
:1011C00043E8000494F0000FF6D110BD0121FFF7B1
:1011D000C1BF0021FFF7CABF2DE9F0478368D3F8EC
:1011E0004831C3F340059B0788B0074606D5002267
:1011F000114608B0BDE8F04700F0ACBA012906D9A5
:101200001E4A022108B0BDE8F04700F06FBA1C4C3E
:101210001C4EDFF874A04FF06408A946361B1C234F
:10122000B6FBF3F6AE4204F11C0402D108B0BDE8EF
:10123000F08754F81C0C54E90623017900689A1AC7
:101240001B1ADBB2039308FB03F3B3FBF2F3CDE904
:10125000019334F8043C0093CDE9061254F8083C9D
:1012600011FB08F13846B1FBF2F1CDE904215246F9
:10127000082100F03BFA0135D4E700BF0E5E000004
:101280005C54000078540000215E000010B590B15D
:10129000D0E9012301689B1ADBB20A60013BDBB293
:1012A000FF2B026802D10020107110BD11684C1C88
:1012B00014600B70F2E70E20F7E738B50446002003
:1012C000FFF7EAF8226863681168994213D9481E4B
:1012D000106011F8015CE368218B01FB0535A36800
:1012E00011791B1ADBB2994200D213710020FFF76B
:1012F000D5F8284638BD0025F8E738B50546002062
:101300000C46FFF7C9F82A681368591C1160E96890
:10131000641A298BB4FBF1F41C70BDE8384000203E
:10132000FFF7BCB808B103F097BF70472DE9F84349
:10133000089E1C460D46E9B9194E1A4B9B1BB2EB91
:10134000D30F4FEAD30804D2174F07EB8207A84503
:1013500001D1002309E073683868196803F055FF6C
:10136000B146083620B9D9F804302360BDE8F883C7
:101370000135ECE70028ECD00178436839B13146FB
:10138000104698473368002BE3D02660EEE7110142
:1013900003EB02125B58002BDBD02260E6E700BFB4
:1013A00078540000B85400009C01002007B5836801
:1013B000B9B1DA7E8A4211D00B4A009233228DF8FD
:1013C000042001F12F028DF805206D22ADF80620D2
:1013D000D9766A460549006900F0C7FC03B05DF89C
:1013E00004FB034AD976F5E71B5B313BCE5F000077
:1013F0005F63000007B583681A7F8A4213D045F601
:101400001B32ADF8002034228DF8022001F12F02AA
:1014100019778DF803206D22ADF804200349006987
:101420006A4600F0A2FC03B05DF804FBCE5F00004A
:10143000014900F09ABC00BFAD5E00000A4600689A
:10144000014900F092BC00BF305F000009B1FFF716
:10145000F5BF70472DE9F34105460F4614460026B7
:1014600014B902B0BDE8F081686803682246D3F879
:101470000C80B91901ABC047019B1E44E41A002B34
:10148000EED1AB681A78032AEAD0D3F84821920645
:10149000FBD5B3F848216FF34512A3F84821DFE7E5
:1014A0002DE9F04F2DED028B044683B090460E4699
:1014B000002973D00025705D03F024FE50BB04F1B9
:1014C000100308EE103A5FFA88FB3046FFF72AFF58
:1014D000A36893F81990401BA9EB080906EB050ACD
:1014E000484553464FF0000717D913F8010BCDE9D3
:1014F000003303F007FE009B20B113F8012C0A2AE9
:1015000034D0B946A268507E08EB070290422CD92D
:101510000137EAE70135CEE70137B84219D013F8B1
:10152000012B0A2A05EB0709F6D1206900F012FC0D
:101530003A46274651462046FFF78CFF57F8100FD2
:10154000FFF776FF5FFA88F1384609F10105FFF7EA
:101550007DFF2069711900F008FC206903B0BDEC23
:10156000028BBDE8F04FFFF763BF4F46206900F0E4
:10157000F1FB3A4651462046FFF76CFF3D44705D53
:1015800003F0C0FD40B92069FFF752FF18EE100AC2
:101590005946FFF75BFF98E70135F0E703B0BDEC74
:1015A000028BBDE8F08F00000A4619B102490068BD
:1015B00000F0DBBB704700BF365F00000A4619B180
:1015C0000249006800F0D1BB704700BF3C5F0000DB
:1015D0002DE9F34105468068424F002480222146D0
:1015E000A0308DF8034003F0DDFD3F49286900F08D
:1015F000BCFB286900F0AEFB4FF47A7647F0010798
:10160000686803680122D3F810800DF1030101AB73
:10161000C047019B5BB94FF6C010B847019B002B38
:10162000EED1013EB6B2002EEAD10D2035E09DF894
:101630000330AA681B2B48D092F8A0101B29EDD1CB
:10164000522B42D11444002384F8A03092F8A11008
:101650005B291FD102F1A20602211D4616F8010BDB
:101660004C1C3B28E1B264B21AD1002C20DB01F102
:10167000A0041444002314F8010BD8B9FA2B28BF96
:10168000FA23FA2D13752B4628BFFA23937582F897
:10169000A00002E082F8A0300B2002B0BDE8F0818B
:1016A00005EB850300EB4303303B80299DB2D5D188
:1016B0000C20F2E703EB830300EB43004E1C3038B1
:1016C00083B23006F1B2F3D4D5E711190134E4B294
:1016D000092C81F8A030A1D9002382F8A030042081
:1016E000DBE700BF80630000726300000CB473B5D9
:1016F00006AB0D4653F8046B81680193D1F848316D
:101700005B07044620D5CB7EAB421DD002221B31A5
:10171000684603F01EFD29462046FFF747FE206974
:1017200001AA314600F0A0FB9DF800102046FFF70B
:101730003DFE9DF8011011B12046FFF75BFE02B09F
:10174000BDE8704002B07047206901AA314600F040
:101750008BFBF4E72DE9F04F07468BB07F48DFF8AD
:101760001C8291460D4603F077FD06467C4803F047
:1017700073FDBB68CDF80080301A7A4A5B68082197
:1017800086B23846FFF7B2FFBB685868FFF7CAFD5C
:101790000446404603F060FDBB68204482B299686D
:1017A0003846FFF77DFE704A00213846FFF79EFF5E
:1017B000B9F1000F07D035B14FF00C08AA4608FB6D
:1017C0000958C24529D1664803F046FD841C3444BB
:1017D000A4B2624B654A009304F10308082138461D
:1017E00023461FFA88F8FFF781FF614942463846D1
:1017F000FFF756FE45B10C2606FB0956DFF880B10F
:10180000DFF86891B54222D1BB68D3F80C80B8F1FB
:10181000000F5AD10BB0BDE8F08FDAF80400FFF7E3
:1018200081FD0446DAF80000FFF77CFD2044B04259
:101830000AD9DAF80400FFF775FD0446DAF800006B
:10184000FFF770FD204486B20AF10C0AB9E7D5E92A
:10185000002393B34AB30192414A009208215A46A9
:101860003846FFF743FF6868FFF75CFD0390286880
:10187000FFF758FD82463A4803F0EEFC039AA21A9D
:10188000A2EB0A03181AC1B207F11000FFF7DEFD40
:10189000384938693A2200F068FAA96889B14246A5
:1018A0003846FFF7FDFD0C35ACE7009323464A466A
:1018B00008213846FFF71AFFEFE7002AEDD0009223
:1018C000F4E73869FFF7B4FDEDE70022059216460C
:1018D00006AD009505AB0121404602F10109FFF775
:1018E00025FD059C5CB12068FFF71CFDB04204D9C2
:1018F000059B1868FFF716FD86B24A46E9E7B9F17D
:10190000010F87D01C4ADFF864A021463846FFF754
:10191000EDFE2246B41CA4B205AB00950121404661
:1019200002F10109FFF702FD059B002B3FF472AFA6
:101930001B6800930821234652463846FFF7D6FE1F
:10194000059B596831B1721D92B23846FFF7A8FD68
:101950004A46E1E73869FFF76BFDF9E78663000067
:10196000EC640000C85F0000D15F0000DB5F000096
:10197000E35F0000485F0000FF5F00007763000046
:10198000F65F000000221146FFF7E4BE022910B501
:10199000044608D18368D3F848319B0703D5BDE8D6
:1019A0001040FFF7EFBF2069054A064900F0DDF956
:1019B0002069054A0349BDE8104000F0D6B900BFD0
:1019C00063630000CE5F000067630000012906D05A
:1019D000022906D18368D3F848319B0701D5FFF768
:1019E000D1BF024A0221FFF781BE00BF7D5F000028
:1019F00038B58368D3F84821C2F3400592070C46F6
:101A000006D500221146FFF7A5FE2C46204638BD1C
:101A10000029FBD05B68024A0221FFF767FEF5E769
:101A20000D600000012937B50546144604D103B006
:101A3000BDE83040FFF7A6BF023918BF0121FFF70C
:101A4000D7FF48B963680193044B0093044A2368A5
:101A500002212846FFF74AFE03B030BD3160000086
:101A600028600000012907B504D103B05DF804EB3C
:101A7000FFF788BF02290AD153680193084B0093EE
:101A80001368084AFFF732FE03B05DF804FB8CBF11
:101A90000121002103B05DF804EBFFF7A9BF00BFEF
:101AA0003160000028600000013910B518BF012125
:101AB0000446FFF79DFF40B9044A0549206900F03C
:101AC00054F9A36845F218021A8310BD6C63000034
:101AD000CE5F000001292DE9F3410446154637D1B8
:101AE0008668FFF775FD38BBA36804F11005FA217D
:101AF000284693F814809F7DFFF7A0FC20691E49BB
:101B0000FA2200F032F92046FFF762FDA0B9A3687F
:101B1000197D7176A368A1EB08019B7D3376284679
:101B2000C9B2FFF74BFD317EC91BC9B2284602B0CE
:101B3000BDE8F041FFF738BDA36845F218021A83EB
:101B40000E4A0421204602B0BDE8F041FFF7CEBDA9
:101B5000022994BF00210121FFF74AFF48B96B68B1
:101B60000193074B00932B68064A02212046FFF79A
:101B7000BDFD02B0BDE8F081425F0000466000009C
:101B800031600000286000002DE9F041013986B085
:101B900018BF01210546FFF72BFF40BBAB68DFF8FC
:101BA0005480D3F840610446EEB1082C1BD0304677
:101BB0000023092203A900F092FC9DF81420A968D3
:101BC000304609230132A03100F089FCAB68049E45
:101BD000A0330093671C2346424600212846FFF7A6
:101BE00085FD3C46E0E7AB68002283F8A02006B004
:101BF000BDE8F08180600000013910B518BF0121F7
:101C00000446FFF7F5FE30B9A368B3F8482160F346
:101C10008202A3F8482110BD013910B518BF012177
:101C20000446FFF7E5FE30B9A268B2F8483143F048
:101C30000403A2F8483110BD013910B518BF0121C5
:101C40000446FFF7D5FE30B9A368B3F8482160F326
:101C5000C302A3F8482110BD013910B518BF0121F6
:101C60000446FFF7C5FE30B9A268B2F8483143F028
:101C70000803A2F8483110BD022973B50D4694BF80
:101C80000021012104461646FFF7B2FE014658B96D
:101C9000022D0BD1736801930C4B00930C4A3368EF
:101CA00029462046FFF722FD02B070BDA368094A0D
:101CB000D3F8483113F0080F074B18BF1346074AF3
:101CC000204602B0BDE87040FFF710BD3160000053
:101CD00028600000385900008A6000008E60000013
:101CE000013910B518BF01210446FFF781FE48B93C
:101CF000A368C3F83801E3685B68BDE81040186862
:101D000000F079BC10BD00007FB5013918BF01217A
:101D10000446FFF76DFE0546B8B9E3685B681E68C8
:101D2000304600F065FCB168A268C0B2CDE901019F
:101D300064234343B3FBF1F3DBB20093D2F83831B1
:101D4000034A29462046FFF7D1FC04B070BD00BF0E
:101D50009F600000826810B504462AB1436901689B
:101D6000006998470023A36010BD0EB403B5039922
:101D700021B104AB01AA019300F076F802B05DF83E
:101D800004EB03B070470A2938B504460D4602D16A
:101D90000D21FFF7F8FFA3682268591CA160D554F4
:101DA000D4E901329A4204D32046BDE83840FFF717
:101DB000D1BF38BD2DE9F84F9846DDE90A431546F5
:101DC00082460F460A464FF00109AA420FD2C1458A
:101DD00038BFC14613F0010B01D16CB900240126B4
:101DE000B8F1010F1BD908F1FF386E43F8E709F18C
:101DF0000109B2FBF5F2E8E79B070ED5B8F1000F39
:101E00000CBF30262026A145E9D2013C3146504680
:101E1000FFF7B9FF002CF6D1E0E72026F3E7B7FB88
:101E2000F6F39D42E1D9DFF83C80B7FBF6F350466C
:101E300018F8031006FB1377FFF7A5FF3346AB42F4
:101E4000B6FBF5F6F1D2BBF1000F02D00CB1A14503
:101E500001D3BDE8F88F20215046013CFFF793FFE6
:101E6000F4E700BF136500002DE9F74F054617465C
:101E70008846002900F0428118F8011B49B92B7BE4
:101E8000002B00F03B81284603B0BDE8F04FFFF780
:101E900061BF252940F0B780002698F800302D2B2F
:101EA000424608F1010823D0302B24D02B2B25D01B
:101EB00000242A2B02F1010123D13B681A1D1B6863
:101EC0003A601C440A4613782E2B26D101324FF07B
:101ED000000A104610F8011BA1F1300CBCF1090FEB
:101EE0001DD80A2303FB0A13A3F1300A0246F0E7C8
:101EF00046F00106D1E746F00206CEE746F00406BA
:101F0000CBE711F8013CA3F130000928DBD80A2205
:101F100002FB0434303C0A46CBE74FF0000A12F8CB
:101F2000011B01F0FB0068289046F8D0782909D8F9
:101F30006F290CD8632962D022D8252963D058296B
:101F400000F0888098F80030002B95D197E7703921
:101F50000829F7D801A353F821F000BFD7200000CB
:101F6000451F0000451F000065200000451F0000C0
:101F700043200000451F0000451F000055200000C1
:101F8000642901D06929DDD13A68D2F80090111D89
:101F900089EAE9723960A2EBE9724FF0010B092A74
:101FA00035DCD34538BFD3462CB1B9F1000F01DB86
:101FB000720700D5013CB30702D5BAF1000F03D078
:101FC000F00701D44CBB0024B9F1000F2DDAC9F1A0
:101FD00000092D212846FFF7D6FE06F00302022A4B
:101FE00004D1BAF1000F01D11CBB0024CDE9004699
:101FF00053460A2249462846FFF7DCFEA2E73B6823
:102000001A1D19783A602846FFF7BDFE9AE70A23A1
:102010000BF1010BB2FBF3F2C1E7A345D4D22021AF
:102020002846013CFFF7AFFECCE77107D5D52B2141
:10203000D0E7A345DAD230212846013CFFF7A3FEC2
:10204000D2E73968CDE900460A1D3A6053460A22B4
:102050000968D0E739680A1D3A60CDE90046534661
:102060001022F5E73B681A1D3A6016F00106D3F816
:10207000009028D1B9F1000F03D0484603F0ECF8E6
:102080000646B44200D904BB09F1FF3919F8011F13
:1020900000293FF457AF2846FFF775FEF6E72846BC
:1020A0000136FFF770FE19F806100029F7D1A64295
:1020B000BFF448AF002C3FF445AF20212846013C37
:1020C000FFF761FEF3E70026EDE720212846013CFB
:1020D000FFF759FED5E73B681A1D3A6030212846C4
:1020E0001C68FFF750FE78212846FFF74CFE0022BF
:1020F0000823CDE90032214610227CE703B0BDE879
:10210000F08F00BF2DE9F341B0B9514B5B88002B34
:1021100000F095804F4B5048504AC01AC0080E241A
:102120004F4B009400044F4940F0010001F05DF86E
:10213000204602B0BDE8F0816AB9454B5B88002BB0
:102140007DD0444B4448484AC01AC0080E24444B32
:1021500000940004E7E7D0F800E0BEF1000F0DD1D5
:102160003B4B5B88002B6CD03A4B3B483F4AC01A34
:10217000C00808243A4B00940004D4E76BB9344BF0
:102180005B88002B5FD0334B3348394AC01AC008F4
:102190000924334B00940004C5E74568D5F8048052
:1021A000B3FBF8F508FB15356DB1294B5B88002BA7
:1021B00049D0284B28482F4AC01AC0080924284B68
:1021C00000940004AFE78D070DD0214B5B88002BF6
:1021D0003BD0204B2048284AC01AC0081024204B6E
:1021E000009400049FE712F0030F0CD0184B5B889B
:1021F0005BB3184B1848214AC01AC0081024184B6A
:10220000009400048FE7C568A9420BD34D1EEC185B
:102210000569AC4206D8DEF80C40A44602B0BDE821
:10222000F04160470A4B5B887BB10A4B0A48144A6D
:10223000C01AC00810240A4B0094000473E70E244F
:1022400076E7082474E7092472E7102470E700BFDA
:10225000B4000020D4520000145400002365000094
:10226000B966000028650000A56500005165000002
:1022700064650000AB650000D5650000ED650000F9
:1022800010660000F7B5A0B9374B5B88002B63D010
:10229000364B3748374AC01AC0080E24364B0094D4
:1022A0000004364940F0010000F09FFF204603B0D3
:1022B000F0BDD0F800C0BCF1000F0DD12A4B5B88F7
:1022C000002B4BD0294B2A482D4AC01AC00808249D
:1022D000294B00940004E4E76AB9234B5B88002B88
:1022E0003ED0224B2248274AC01AC0080924224B5C
:1022F00000940004D5E74768D7F800E00EF1FF37F7
:102300000F420CD0184B5B8863B3184B18481E4A19
:10231000C01AC0081024184B00940004C1E7C76815
:10232000B9420CD304694D1E0EFB0255A54206D8D6
:10233000DCF81040A44603B0BDE8F04060470A4B0B
:102340005B887BB1094B0A48104AC01AC0081024A8
:10235000094B00940004A4E70E24A7E70824A5E78E
:102360000924A3E71024A1E7B4000020D452000000
:102370001454000023650000CC66000028650000AE
:102380005165000064650000376600005D6600006E
:102390002DE9F84FB0F806A04579D2F800B09DF8C5
:1023A00028900AFB05F5043D88460BEB0301A94282
:1023B00003F1040488BFA5EB030BB4FBFAF6074650
:1023C0000AFB1644C2F800B04EB9AAEB04055D45FD
:1023D00028BF5D46BBF1000F04D1BDE8F88F3F6810
:1023E000013EF1E7043408EB06003C442A46B9F10B
:1023F000000F0DD02146ABEB050B02F0AAFEDA452B
:102400002E443F6855464FF0000428BF5D46E1E783
:1024100001462046EFE7FEF739BFF8B54679014699
:10242000721E0546002393422D6803D30024A64262
:1024300002D8F8BD0133F6E70F682846FEF75DFFC6
:1024400001343946F3E72DE9F843068BCD1C0746E6
:10245000FEF733FF043E35440446B5FBF6F5F0B114
:102460004FF48073EDB28380C680013D07608146E2
:102470004FF00008A84512D23846FEF71EFF064668
:1024800048B163790133637108F10108C9F80000AC
:1024900007608146EEE72046FFF7BFFF344620463F
:1024A000BDE8F88301210430FEF778BE10B50121A4
:1024B00004460430FEF77EFE10F0FF0F04D12046E4
:1024C000BDE81040FFF7A9BF10BD1FB50392002261
:1024D000009203AAFFF75CFF05B05DF804FB1FB58F
:1024E00003920122009203AAFFF752FF05B05DF8A4
:1024F00004FB026813685268934291BFD01A806847
:102500000130801888BFC01A704710B504460020FB
:10251000FDF7C2FF2046FFF7ECFF04460020FDF761
:10252000BDFF204610BD00002DE9F04F8368D3F8B1
:102530004831C3F340059B078BB0074606D5002200
:1025400011460BB0BDE8F04FFFF704B9012906D9D9
:10255000214A02210BB0BDE8F04FFFF7C7B81F4C6E
:102560001F4EDFF88090DFF880A0DFF880B0361BC8
:102570001C23B6FBF3F6AE4202D10BB0BDE8F08FE0
:10258000E36808932368D4F808809A680992204683
:10259000FFF7BBFF099A94F810E0642303FB00FCEB
:1025A000BEF1000F0CBFCE46D6465343B3FBF8F343
:1025B000CDE90432BCFBF8F1089B0191CDE902089A
:1025C0000093CDE9068E63695A4608213846FFF725
:1025D0008DF801351C34CEE70E5E0000B8520000C5
:1025E000D4520000EC660000F566000001670000B0
:1025F000036898687047036800229A607047836890
:1026000000225A60C3E904229A60DA601A607047B7
:102610004FF4A06300FB0330084B1A18A0F580604C
:1026200030B50344064C03F580619342A1EB0300EF
:1026300003D253F8045BA542F7D030BD000300205D
:102640000ED0ADDE2DE9F04F374FDFF80C91DFF8FB
:102650000CB185B0044600250020FDF71DFF3E6843
:102660005FFA85FA26B17E68304B002E08BF1E4601
:102670000020FDF713FF002E42D05046FFF7C8FFA1
:102680002B465A46082180462046FFF72FF8284A55
:10269000334608212046FFF729F809F5807309F22F
:1026A000FF42B8F1000F35D0642000FB08F04FF472
:1026B0008061800ACDE90020CDE902811D4A082110
:1026C0002046FFF713F81C4B1B78534529D01B4BB2
:1026D0001A684FF00043EB401342194A194B08BFE8
:1026E0001346194A08212046FFF700F80E4A0C232A
:1026F00003FB052308219B68144A2046FEF7F6FFDA
:102700000135032D07F10C0709F5A069A4D105B027
:10271000BDE8F08F009208210D4A2046FEF7E6FF43
:10272000D1E70C4BDDE700BF00120020E16700009D
:102730000E6800001C68000094020020980200202F
:10274000F9670000F06700006E6800007B68000019
:1027500056680000E86700000003002003680000DE
:1027600000230428CB604B6098BF044B044A98BFF9
:1027700053F820308A600B60704700BF146E000071
:10278000F06D0000CB6800225A717047C368DB68A7
:1027900000225A717047CB6801225A717047C36892
:1027A000DB6801225A7170470D4A8A6070B50D4A84
:1027B0000D4C0023121BCB604B600B6012091D46B1
:1027C0009A4207D0E6683679FF2E05D0854202D1BD
:1027D000A3680B6070BD013501331034F0E700BF12
:1027E000286E0000C8540000B85400002DE9F74FCF
:1027F000154D164C9846641B52F8043C0646894613
:10280000174624094FF0000B5C4507D1104A0221FE
:10281000304603B0BDE8F04FFEF768BFA9680193EA
:10282000184602F0F2FCAA46103518B1019B0BF1D4
:10283000010BE9E73B464A4651463046C44603B0E1
:10284000BDE8F04F604700BFB8540000C854000016
:10285000F8680000014BFFF7C9BF00BF152E00004C
:10286000014BFFF7C3BF00BF85270000014BFFF7F7
:10287000BDBF00BF97270000014BFFF7B7BF00BFE8
:10288000412C0000037813F0040216D003F0030378
:10289000012B03D0022B09D0012070470A68008861
:1028A0000232C0F3831002440A60F5E70B684288E5
:1028B000023303EB92130B60EEE710467047000003
:1028C0002DE9F04F044685B0861C00200F461546C2
:1028D000FDF7E2FD3F4A51683960936803F5807364
:1028E0005B1A924602F21C4702F5836902F2144811
:1028F000B34219D30020002D68D004F00F039B01D0
:1029000043F0050363F30F00DAF80430DAB2033260
:102910001E444AF822000020CAF80460FDF7BEFDFC
:10292000012005B0BDE8F08F01213846FEF736FCE6
:102930004846FEF74BFC4046FEF748FCDAF8080034
:102940000090C0B203300AEB80006946FFF79AFF9F
:10295000009B30BBDAB20AEB8202D16801919A1C6B
:102960000133DBB20AEB83030092D3F80CB001F021
:102970000303012B22D0022B15D083464046FEF7DD
:1029800028FC10B1009BCAF8083059463846FEF7BB
:1029900005FCDAF80830DAF8042003F580739B1A96
:1029A000A6E7D8B2CEE7BDF80630C3F389130333E8
:1029B0004FEA1B4B02EB93030093DFE7BDF80430B3
:1029C000C3F383134FEA1B4B1344F5E7A40544F00C
:1029D000060099E7F4120020012907B5034604D048
:1029E0008168D1F84811890707D500221146184699
:1029F00003B05DF804EBFEF7ADBE53680193054BE1
:102A000000931368044A0221FEF770FE03B05DF8DC
:102A100004FB00BF316000000E6900002DE9F347A0
:102A20008368D3F84831C3F340059B07074606D5B2
:102A30000022114602B0BDE8F047FEF78BBE144EEF
:102A4000144CDFF85880DFF85890DFF858A0A41B2A
:102A50002409A54202D102B0BDE8F087F268B3684C
:102A60001179FF2907D10C4A08213846FEF73EFEAE
:102A700001351036EDE75279002A14BF42464A4626
:102A8000CDE90021384652460821FEF72FFEEFE738
:102A9000B8540000C85400002969000018690000FB
:102AA000206900004869000030B50A4B0A4A0B490A
:102AB000D21AD20800239A4201D1052006E031F84B
:102AC00023500468A54202D10360002030BD0133C9
:102AD000F1E700BFD45200005C5400001400002055
:102AE0002DE9F84F1D4B1E4801221A70FFF793FC89
:102AF000814688B91B481C4E1C4CDFF87CA0FFF7B0
:102B00007EFDA41BE4084D46A54208D10023184AC7
:102B100018481946A3421BD14846BDE8F88F4FF02C
:102B20000008474606EBC50BBD420AD056F83710E1
:102B3000DBF80000142202F0EFFA0028C8BF08F109
:102B400001080137BC42EFD12AF825800135DBE7C7
:102B500020F8231042F8041B0133DBE7F4120020B5
:102B60005C540000E46D0000D45200005C5400008E
:102B7000D8000020160000201400002007B50190A6
:102B800031B9019A064B53F8320003B05DF804FBEB
:102B900001A8FFF789FF0028F3D00020F5E700BF68
:102BA000D4520000002310B5CB604B60034B8B6008
:102BB0000C460121FFF7E2FF206010BDF06D000020
:102BC000094B013903EBC000032909D8DFE801F004
:102BD0000A02040604207047007970474079704764
:102BE0000020704702207047D452000030B5124CCC
:102BF00000EB400054F8215002FA00F3072202FAD9
:102C000000F06B400D4A03406B40C3F3821044F860
:102C1000213002EB8101C3F3C202824238BF024677
:102C2000C3F34220824203F0070338BF02469342B7
:102C300038BF13464B8030BDD80000201400002060
:102C40002DE9F04F064685B01D461746002A51D0A3
:102C5000CB6828684C4993F80490072202F05CFA8C
:102C60000446C8B9012F07D1484A0221304605B0B1
:102C7000BDE8F04FFEF73ABDDFF82C8158F8041B91
:102C800068680A2202F048FA002877D00134052C3F
:102C9000F4D16B683E4A15E03E492868082202F0EC
:102CA0003BFA044660B9012F2DD04FF001083A4A93
:102CB0003A4BDFF8F8A09B1ADB08CDE9013247E078
:102CC0002B68374A0221304605B0BDE8F04FFEF7C9
:102CD0000DBD18F83530A3420FD200212846FFF76A
:102CE0004DFF5246034602213046FEF7FFFC0135F8
:102CF000BD42EED105B0BDE8F08F224629464846D8
:102D0000FFF774FFF3E7244B244FDFF8A0A0FF1A6E
:102D1000FF08002503F10608EAE71846002103939F
:102D2000FFF72CFF5946202202F0F6F9039B0146DB
:102D300008B1013311E0029A02EBC3029279A24278
:102D400016D3224619464846FFF750FF08F10108FE
:102D5000B845CFD255F828B00023019A9A42DCD169
:102D600055F828300F4A02213046FEF7BFFCEDE748
:102D70001846FFF703FF52460346F4E7022FE4B27A
:102D8000C1D04FF0020892E7696900007069000045
:102D9000DB69000087690000D45200005C54000029
:102DA0008F690000C7690000006E0000A469000080
:102DB00013460A46C168FFF743BF000013B5044637
:102DC0000191ABB16AB90199104A04EB440052F881
:102DD000212007238340134023FA00F0C0B202B041
:102DE00010BD01A8FFF760FE0028ECD00020F6E738
:102DF0002AB9019A064B03EBC2039879EFE701A8C1
:102E0000FFF752FE0028F1D1F3E700BFD800002001
:102E1000D4520000294B2A4A2DE9F04F9B1A4FEA61
:102E2000D30ACB685B7985B005460E461BB9254AA7
:102E30000221FEF75BFC244B244ADFF8A480082122
:102E40002846FEF753FC224A08212846FEF74EFC8E
:102E50000024544502D105B0BDE8F08FF36893F823
:102E6000049001231A4621464846FFF7A7FF002396
:102E70000746214601224846FFF7A0FF03280246E5
:102E8000814628BF0322012120465FFA82FBFFF71B
:102E900075FE104A58F82B10034658F827000E4FBD
:102EA0000090D94598BF3A46CDE9011228460B4A11
:102EB0000821FEF71BFC0134CBE700BF5C54000087
:102EC000D4520000FA6900000D6A0000196A00007F
:102ED000376A0000F8690000AE5E0000746A000006
:102EE000006E000013460A46C168FFF793BF00005A
:102EF000034BD3E90130C31A58425841704700BF11
:102F0000F41200202DE9F04385B0FFF7F1FF0546EC
:102F1000002840F00481834CC4F81804BFF34F8F9D
:102F2000A3680093DBB2033304EB83006946FFF729
:102F3000A9FC009B18B1D4F81824002A5FD0DAB29B
:102F4000991C013304EB8202DBB204EB8303D268E9
:102F5000DB68029302F00303022B0192009159D126
:102F6000BDF8063070489DF80450C3F38917502F00
:102F7000B84628BF4FF0500868F38F1308F10801D6
:102F8000ADF80630FFF75FFAC5F3C2050646002824
:102F900000F0AC80FFF786FA002301A90822304632
:102FA000FFF793FA0099CB43DBB20133C9B2033187
:102FB000B8EB830F4FEA830904EB810127D908237B
:102FC0004A46A8EB09083046FFF77FFA5FFA88F80F
:102FD000564909F1080342463046FFF776FA009B4E
:102FE000033703EB97070097D4F81834002B47D129
:102FF000D4F81074DFF848914FF0070865E0626874
:103000009A428FD8A260284605B0BDE8F083082315
:103010004246E1E7012B69D1BDF804504248C5F3AF
:103020008311062928BF062161F389150231890021
:10303000ADF80450FFF707FAC5F3C20506460028AD
:1030400054D0FFF72FFA0023082201A93046FFF7DA
:103050003CFA0027BDF80420C2F38312BB0097425C
:1030600003F10803C0D200994A1CC9B2033100928F
:1030700004EB810104223046FFF727FA0137E9E724
:103080003046FFF713FAFFF733FF80F00100C5B2B7
:10309000B9E7FB685A79B2B11B79BDF8081003EBA8
:1030A000430259F8211008FA02F3052D03EA01033F
:1030B00023FA02F308BF0325AB4204D33B68314631
:1030C0001B6838469847FB681F68002FE1D13046DF
:1030D000FFF7ECF93846FDF7DFF9D4F818340BB9EF
:1030E000009BA3600020FDF7D9F9CCE7D4F8104489
:1030F00074B90F4B5B88012BC5D90E4B0E480F4995
:10310000C01AC008000440F0020000F061F8BAE7FD
:10311000236820469B689847E3681C68E8E7002519
:1031200071E700BFF41200205C540000001300207F
:103130006C000020D4520000845300008A6A000012
:10314000D80000202DE9F34704460E46924601A917
:10315000012218469946FFF7B3FB1B4F10B3019DA0
:103160004FF00008AA1CC84508EB020123D11748FC
:103170000021FDF7E4FF80F31000000440EA144052
:10318000E4006B1C04F03804DBB2EDB244F001043F
:1031900007EB8303033544EA881444EA8624D860A5
:1031A00047F825403B781BB1FFF7ACFE0028FBD168
:1031B00002B0BDE8F087C9B207EB81015AF82830A8
:1031C000CB6008F10108CEE7F412002010170020B0
:1031D00000231A46FFF7B6BF07B50123019201AAE3
:1031E000FFF7B0FF03B05DF804FB1FB5CDE9012385
:1031F000069B039301AA0323FFF7A4FF05B05DF824
:1032000004FB1FB5CDE90023069B0293079B0393A4
:103210006A460423FFF796FF05B05DF804FB000043
:103220001C4A2DE9F843D2F810340546884600249C
:10323000194689B9E9680C71A3B9C2F810540B603A
:10324000154B164EF61AF608002703F10709B74288
:103250000DD12046BDE8F883C9680879A04212D094
:103260000968E6E7DB681A680A601D60E8E719F894
:103270003720EB6842453946187928BF4246FFF7A8
:10328000B5FC0137E3E701340A2CD1D14FF0FF340C
:10329000DFE700BFF4120020D45200005C540000AD
:1032A000084A38B50123D2F8104413701D4604B9FA
:1032B00038BDE3685D71236820465B689847E36822
:1032C0001C68F4E7F412002010B588B00023CDE9A3
:1032D0000233CDE9003304931F4B204A0593204B62
:1032E00006929B1A9B08079302AA6B4643F227415A
:1032F00041F26E00FDF7E2FDB0B905A902A8FDF7A5
:10330000D5FD184B5B88022B04460AD91648174B8B
:103310001749C01AC0080004224640F00300FFF716
:103320005BFF204608B010BD48F20963984210D1F7
:1033300005A902A8FDF7B6FD0A4B5B88022B0446DF
:10334000EFD90948094B0B49C01AC00800042246AE
:10335000E3E70324E5E700BF6E102734D800002020
:103360009C0100206C00002084530000D452000017
:103370009B6A0000CC6A000010B58368D3F848311E
:103380009B07044605D50022BDE810401146FEF714
:10339000E1B9FFF799FF30B9044A08212046BDE89A
:1033A0001040FEF7A3B9024A0221F7E7FD6A0000C8
:1033B000156B000000B589B00023CDE90533CDE9D8
:1033C0000133079305AA01AB43F2274141F26E0096
:1033D000FDF774FD90B9CDE9030003A905A8FDF739
:1033E00017FD40B91048114A0499121A01F0B1FEB4
:1033F00005A8FDF733FD09B05DF804FB48F2096349
:1034000098420FD10A4B5B88012B09D909480A4B16
:103410000A49C01AC008000440F00200FFF7D8FEB5
:103420000520E8E70320E6E7D80000209C01002003
:103430006C00002084530000D45200003A6B00005E
:1034400010B58368D3F848319B07044605D50022A0
:10345000BDE810401146FEF77DB9FFF7ABFF30B96C
:10346000044A08212046BDE81040FEF73FB9024A51
:103470000221F7E75F6B0000776B000007B503469A
:103480000846197A052911D05B7A2BB1094A0A49F5
:103490000190FEF76AFC019808490190FEF765FC6F
:1034A000019803B05DF804EBFEF754BC002AF8D095
:1034B000F2E700BF706F0000CE5F0000AC5E00005E
:1034C00030B5C38885B004460D4633B1144A009226
:1034D0001449154A2846FEF748FC217A05291DD0D3
:1034E000637A4BB1A088FFF76BFB104B104953F880
:1034F00020202846FEF739FC227A0E4BA08853F88C
:10350000222003920021FFF739FB039A0A49034660
:10351000284605B0BDE83040FEF727BC05B030BDF9
:10352000706F00007D6F0000756F0000E46F000099
:10353000CE5F000008700000956F00002DE9F04399
:1035400085B01F460C9D002395F80C902B73064602
:103550000C46904629463846FFF7B2FFB8F1060FF1
:1035600009D8DFE808F00412181F2833400031465C
:103570002846FEF7FAFB002229463846FFF77EFF71
:1035800085F80C9005B0BDE8F083226831462846E6
:10359000FEF7EBFBEFE7D4E9002331462846FEF7C0
:1035A000E4FBE8E7A36800933146D4E9002328460A
:1035B000FEF7DBFBDFE7E3680193A3680093314686
:1035C000D4E900232846FEF7D0FBD4E72369029311
:1035D000E3680193A36800933146D4E900232846A9
:1035E000FEF7C3FBC7E76369039323690293E368AC
:1035F0000193A36800933146D4E900232846FEF7DF
:10360000B4FBB8E708292DE9F74F80460E46174668
:103610001C463CD8002593F80C901D7319461046A3
:10362000FFF74EFFDFF888A0DFF888B0AE4231D94F
:1036300018F8052059462046FEF797FB0135082D5E
:10364000F4D11949194DDFF870A02046FEF78DFB23
:103650004FF0000B5E4522D918F80B207E2A05D8C2
:103660001046019201F053FD019A00B92E225146F5
:103670002046FEF77AFB0BF1010BBBF1080FE9D1F5
:10368000012221463846FFF7F9FE84F80C9003B07A
:10369000BDE8F08F51462046FEF767FBCEE729468E
:1036A0002046FEF762FBE6E7A96F0000A76F000067
:1036B000A56F00009F6F0000485F0000F0B595B057
:1036C0001D46164608460C46FEF7ECFE1A9B0D9367
:1036D000CDE9086500252B46082205A920460A9554
:1036E0008DF82C500C95FEF7FAFE079B0293069B73
:1036F00003939DF814308DF8115003F00302012A52
:103700001DD1BDF81420059DC3F3C203C2F3831677
:103710008DF81030B20008230EA92046FEF7DFFE18
:10372000C5F3952508AB0093324602AB0EA9284697
:10373000FFF704FF2046FEF7B9FE15B0F0BD022AE0
:10374000F8D1BDF81650C3F3C203C5F389158DF83F
:1037500010300827082D2E4628BF08263B46324643
:103760000EA92046FEF7BBFEAD1B08AB02AA3146F0
:103770000EA83744FFF746FF002DEBD1DAE770477C
:1037800007B5044B0093044A4023FFF797FF03B0AB
:103790005DF804FBED370000AD17002030B5104D8B
:1037A0000FCD89B06C460FC495E80F0084E80F0078
:1037B0004FF0FF330622CDE90023CDE9023309485B
:1037C0004FF0EB7300226946069300F08FF808B1C2
:1037D000FCF7FEFD044B00221A7009B030BD00BF9B
:1037E0001C700000D0010020AC17002038B50D4B34
:1037F0000D4D002018700D4804782D5DD2B21C4686
:1038000065B1043001F01CFA08B1FCF7E1FD084B8A
:103810001A7812B12378002BFBD038BD0C3000F0A1
:10382000D1FFF1E7ED17002044180020D00100205F
:10383000AC17002008B50848084A0378D35C33B1B8
:10384000043001F06DF9BDE80840FFF7A7BF0C3068
:1038500000F04EFFF7E700BFD00100204418002021
:10386000FFF79CBF08B5FFF7FBFF04480421FFF7F3
:10387000D7FC034B01225A7108BD00BFB8540000A9
:10388000E40100201FB503788DF8003043680193F0
:1038900083688DF80830C368054A0393054B684672
:1038A00053F8213052F82110984705B05DF804FB19
:1038B0003C180020401800201FB503788DF8003018
:1038C0004368019383688DF80830C368054A039301
:1038D000054B684653F8213052F82110984705B03F
:1038E0005DF804FB3C18002040180020F0B5194B8F
:1038F00090F800C091F81DE043F82C20164B1646B6
:103900000A6943F82C20154B03F80CE00C460746D7
:103910000FCC89B06D460FC594E80F0085E80F0005
:10392000CDF810C0BEF1000F09D0002E0C4A694638
:1039300008BF3246381D01F02FF809B0F0BD002E47
:10394000084A694608BF324607F10C0000F01AFE2B
:10395000F3E700BF401800203C1800204418002066
:1039600085380000B938000000F18040002382B0A3
:10397000036003680193019B02B07047124B1B6800
:1039800010B573B14FF48070FFF7EEFF4FF0804336
:103990000122C3F808230D4B587910B95A711B68DE
:1039A00098470B4B1B6873B14FF48270FFF7DCFF35
:1039B0004FF080430222C3F80823044BBDE81040B7
:1039C0001B680120184710BD000100404818002066
:1039D0000401004000F1804000F5C040002382B0A7
:1039E000036003680193019B02B07047800000F1FF
:1039F000A040D0F8002722F44032C0F80027D0F8C9
:103A0000003743EA0141C0F8001770472DE9F74F2E
:103A100000244E4D01944FF48072012102F1804345
:103A200003F5C04390B21B68012B06D1D5F80433CF
:103A30000B4202D0FFF7CEFF0C430432B2F5907F69
:103A40004FEA4101EAD1424B1B68012B0CD14FF4E4
:103A5000BE70FFF7BFFF4FF0A04344F00044D3F81F
:103A600020250192C3F8202514F0FF0F1AD0394FFA
:103A700000250126344210D0AB0003F1804303F54A
:103A8000C043D3F81005D3F8101557F8253023B1EB
:103A9000C1F30141C0F3042098470135082D4FEAD6
:103AA0004606E7D1002C48DA2A4D4FF0A0482A4EAE
:103AB0004FF00009012716F9013B5A1C31D0C3F31E
:103AC000C20202A90A44DCB212F8042C03F03F0A35
:103AD00003F0070307FA03F31A4222D00AF5E07352
:103AE000504658F82330C3F3014BBBF1020F0CBF13
:103AF00003210221FFF77AFF07FA0AF3C8F82035FD
:103B000005EB0A0393F9303055F823304BB1A10986
:103B1000032904D0BBF1020F12D1012901D1504673
:103B2000984709F10109B9F1040FC4D1D8F820353B
:103B30000193C8F82035002BB9D103B0BDE8F08F50
:103B4000BBF1030FEDD10229E8E700BF00600040A0
:103B50007C61004050180020A0180020F0B5394BBF
:103B6000394C1A6885B07AB100221A601B6800933C
:103B7000009B637943F0080303F01202122A637179
:103B800004BF43F020036371304B1A687AB10022FE
:103B90001A601B680193019B637943F0040303F0EF
:103BA0001102112A637104BF43F020036371284B93
:103BB0001A68B2B100251D601B680293029B254B59
:103BC00025480422C3F808232946C3F80055236872
:103BD000984723682148294698470123237105B057
:103BE000F0BD637903F00F020F2A08D0D80701D483
:103BF000190704D462799207F1D45B07EFD5627993
:103C0000276802F0F30312F0200208D023F03003FB
:103C100043F01003637101210020B847DFE70E4D28
:103C200095E8030002AE86E8030015E9030043F0BF
:103C3000100385E80300C4E90222637101213046C4
:103C4000EBE700BF14510240AC18002004510240C1
:103C50000851024000500240BC180020B418002057
:103C600000F1804000F5E830002382B00360036873
:103C70000193019B02B070471FB53C4B3C4C1A6846
:103C8000002A47D04FF48070FFF7EAFFA37CDA43A5
:103C900002F0010204EB8201496811B9617C02293A
:103CA0002DD1607C022818BF04EB83034FF0000184
:103CB0000BBF01235868637459604FF001038DF8FE
:103CC0000C10E1740EBF02910290A2748DF80430C2
:103CD000236801A89847637C022B01D101236374F8
:103CE000237D53B101238DF80430002302938DF816
:103CF0000C30237501A82368984704B010BDE37CFD
:103D0000002BE8D18DF80430029301238DF80C309C
:103D1000E374DDE7174B1B68002BE1D04FF4827092
:103D2000FFF79EFF144BC3F80025A37C627404EBDD
:103D300083038DF80C2059688DF8042021B15A6056
:103D40000291236801A89847A37CDB4303F0010399
:103D500004EB83035A682AB1029200225A6001A838
:103D6000236898470023A374BAE700BF00D101403D
:103D7000C418002004D1014000D0014000F180436C
:103D800082B01A68002A14BF0120002004D000224B
:103D90001A601B680193019B02B070474FF080438B
:103DA00010B5D3F80443610707D54FF48470FFF7CB
:103DB000E5FF10B10D4B1B689847A20608D54FF4DC
:103DC0008A70FFF7DBFF18B1094B00201B6898478A
:103DD00063060AD54FF48C70FFF7D0FF28B1044B6F
:103DE000BDE810401B680120184710BDDC180020FA
:103DF000E018002008B5FFF7D1FFBDE80840FFF745
:103E0000BDBD00000E4B984211D0B0F1402F10D034
:103E100003F5003398420ED0A3F5803398420CD0BE
:103E2000084A094B90420CBF1846002070470748CB
:103E3000704707487047074870470748704700BFFA
:103E4000003000400020004004190020E418002049
:103E5000EC180020F4180020FC180020014B1B680F
:103E6000184700BFE4180020014B1B68184700BF2B
:103E7000EC180020014B1B68184700BFF418002005
:103E8000014B1B68184700BFFC180020014B1B6842
:103E9000184700BF0419002070B50D46FFF7B2FFA8
:103EA000044608B9002070BD0020FCF7F5FA267919
:103EB00016B90123256023710020FCF7EFFA002ECC
:103EC000F0D01120EFE708B5FFF79CFF10B10023F9
:103ED0000360037108BD0023435082B0435801932F
:103EE000019B02B07047D0F8103170B505460C4602
:103EF00053B14FF48871FFF7EEFF63795A0703D58A
:103F000023680BB101209847D5F814315BB14FF409
:103F10008A712846FFF7DFFF63791B0703D5236803
:103F20000BB102209847D5F81C315BB128464FF4FD
:103F30008E71FFF7D0FF607910F0100002D1236876
:103F400003B19847D5F8043163B14FF48271284624
:103F5000FFF7C1FF0123237123681BB1BDE8704047
:103F60000320184770BD000001490248FFF7BBBF9E
:103F70000C19002000C0014001490248FFF7B3BFFF
:103F8000141900200010024001490248FFF7ABBF9E
:103F90001C190020002002407FB52B4B1A68BAB1D3
:103FA0002A4AD2F80413C80712D5002119601B68E9
:103FB0000193019B4FF48073ADF81030D2F80C35AB
:103FC0008DF81230224B06AA12E903001B689847AD
:103FD000204A1368DBB11D4BD3F80413890716D5AB
:103FE0000021116012680292029A4FF48272ADF8B9
:103FF0001020D3F81825D3F84835ADF81430144BF9
:10400000ADF8122006AA12E903001B689847124B6C
:104010001A68B2B10D4AD2F80423520711D5002212
:104020001A601B680393039B4FF48473ADF8103040
:1040300006AA074B12E903001B6807B05DF804EB02
:10404000184707B05DF804FB002101400020014043
:10405000241900200421014008210140074B0022BF
:104060001A6082B01B680193019B054BD3F80805C9
:10407000044B1B68C0B202B0184700BF00D100401B
:1040800000D00040281900200023435082B043583C
:104090000193019B02B070472DE9F047DFF894804F
:1040A00004460E4691464FF48037002500F5A07A6D
:1040B000D4F80433A90001F5A0713B4289B20DD0B8
:1040C0005AF8253053B1C4F848732046C4F8087331
:1040D000FFF7DAFF58F82630E8B298470135A945CE
:1040E0004FEA4707E4D1D4F80433DA070CD5D4F803
:1040F00000314BB120464FF48071FFF7C5FF0D4BE7
:10410000042053F826309847D4F804339B070ED583
:10411000D4F804315BB120464FF48271FFF7B4FF4D
:10412000044B052053F82630BDE8F0471847BDE89A
:10413000F08700BF2C190020024803220021FFF75E
:10414000ABBF00BF00B00040024804220121FFF7CE
:10415000A3BF00BF0040024000F1804000F5E040F6
:10416000002382B0036003680193019B02B0704793
:10417000F0B5504B504C1B6885B0002B3DD04FF430
:10418000827094F82E20FFF7E7FF2AB394F82F30BF
:1041900013BB4A4B1B68002B33D04FF48070FFF7E2
:1041A000DBFF638B94F82D108B424FD922895B1A69
:1041B0009BB292B26383D31A626802EB4303404A14
:1041C000C2F82C36C2F830164FF48270FFF7C4FFE5
:1041D0003C4B01221A6014E0636802932389ADF816
:1041E0000C30E36800218DF8041023BB237423688E
:1041F00001A89847002384F82F3094F82E30002B24
:10420000C7D1314B1B685BB14FF48870FFF7A4FF37
:104210000023237402238DF8043001A823689847F3
:104220002A4B1B68EBB14FF48A70FFF795FF002310
:10423000237405B0F0BD208B608363602081E16052
:10424000002AD4D11E4B01221A60D0E7BCD1E3680A
:10425000012284F82F2013B100226283AFE7638329
:10426000B2E766694FF000470125002EE1D0B6FAAB
:1042700086F227FA02F34632920026EA030602F19A
:10428000804303F5E0431B68002BEED01046FFF798
:1042900063FFA2F58C72D30882F00402C2F380029D
:1042A0008DF808308DF8045023688DF8092001A896
:1042B0009847DAE70471004034190020007100408B
:1042C0000070004004700040107100401471004004
:1042D00030B4064A52F82040054A002532F8101042
:1042E00022F81050234630BC184700BF7019002038
:1042F000641900200020FFF7EBBF0120FFF7E8BFA3
:104300000220FFF7E5BF0320FFF7E2BF0420FFF71D
:10431000DFBF0520FFF7DCBF2DE9F3470024064689
:104320000F46904600F5A0754FF48039A2462B68E1
:104330008BB1D6F8043309FA04F21A420BD0C5F84F
:1043400000A02B680193A000019B00F5A07398B218
:10435000D7E9003198470134A04505F10405E6D1BD
:1043600002B0BDE8F0870000024903480422FFF7CD
:10437000D3BF00BF881900200080004002490348D5
:104380000422FFF7C9BF00BF94190020009000402D
:10439000024903480422FFF7BFBF00BFA019002055
:1043A00000A00040024903480622FFF7B5BF00BF46
:1043B000AC19002000A00140024903480622FFF783
:1043C000ABBF00BFB819002000B00140002343502C
:1043D00082B043580193019B02B070470A4610B562
:1043E0004FF48E71FFF7F2FF136A9168C95C136A8C
:1043F00001331362C0F81C1510BD8B690A4610B555
:104400004FF4847123B9FFF7E1FFD0F8183510BDE0
:10441000FFF7DCFF536AD168D0F81805C854536A17
:1044200001335362F3E700001FB501238DF800301C
:10443000044BCDE90110D3E900126846904705B05E
:104440005DF804FBC419002030B54C48D0F80433A3
:1044500013F4007F85B005464DD0D0F82431002BF1
:1044600049D04FF49271FFF7B1FF4FF40173C0F8D8
:104470000833434B93F829200AB9012242603F498F
:1044800002228DF80020D1F88024C1F88024039204
:104490009A690292DA6801920022C3E9062268460C
:1044A000D3E9001290473548D0F81C315BB134494C
:1044B0004A690B6A9A420A464AD991F82830002B79
:1044C00046D1FFF78BFF2D48D0F844318BB14FF424
:1044D000A271FFF77BFF2A4B93F829200AB1012232
:1044E00002609A692AB10022586AD9689A61FFF776
:1044F0009BFF05B030BDD5F804335B07D3D5D5F8A5
:104500000831002BCFD01E4C1C482146FFF775FF09
:10451000636AA2699A422346C5D1E269E1684AB159
:104520002369E3600023606AA261E3616362FFF7CD
:104530007BFFB8E794F829200AB901226A600F4A84
:104540004FF40170C2F808030022586A9A61EEE73E
:104550000A484FF48E71FFF739FF5369002BB2D030
:1045600051690291002391688DF8003001915361E7
:104570006846D2E900139847A5E700BF0020004035
:10458000C41900202DE9F843544B057991462C229B
:1045900002FB0532064692F82A200C469846002A6D
:1045A00040F098804E490068FFF776FC07460028E7
:1045B00040F0928021683368481C0BD04FF0A04037
:1045C00001228A40C0F8082501F5E0724FF0030C83
:1045D00040F822C06068421C1FBF00F5E0724FF037
:1045E000A04C4FF0000E4CF822E0A269C3F824253D
:1045F00094F814C0627DBCF1010F4CEA0202C3F8CA
:104600006C25C3F81405C3F80C151DD1A1684A1C0C
:104610001FBF01F5E0724FF0A0404FF0000C40F8D2
:1046200022C0E268501C0BD04FF0A04C01209040FB
:10463000CCF8080502F5E0704FF0030E4CF820E0CE
:10464000C3F80825C3F810152C236B4308EB0302AD
:10465000C2F80490226948F80320B9F1000F21D074
:104660003068247F4FF48E71FFF7B0FE4FF4A271D3
:104670003068FFF7ABFE32681A4BC2F80433110BF7
:1046800042F307326301002ADBB21EDB16488418AE
:1046900084F800330123520901F01F0103FA01F1EC
:1046A00040F8221033680422C3F800252C2303FBB2
:1046B00005830022C3E9062283F829205A610122DA
:1046C00083F82A203846BDE8F883084A01F00F0134
:1046D0005354E7E70827F5E71127F3E7C41900204B
:1046E000494400008000020000E100E014ED00E019
:1046F000F8B503680479304D0022C3F800252C2258
:1047000002FB04525268A2B12C4AC3F808231A0BC8
:1047100043F30733002B0CDB02F01F015B0901227E
:104720008A402033264941F82320BFF34F8FBFF33F
:104730006F8F0068D0F80C65D0F81415D0F80835E4
:10474000D0F810254FF0FF37BE42C0F8147518BFDF
:1047500006F5E076C0F80C75C0F80875C0F810755D
:104760001EBF4FF0A0474FF0020C47F826C04E1C6A
:104770001FBF4FF0A04601F5E071022746F82170F7
:10478000511C1FBF4FF0A04102F5E072022641F814
:1047900022605A1C1FBF03F5E0734FF0A0420221B4
:1047A00042F82310FFF78FFB2C2303FB0454002354
:1047B00084F82A306360F8BDC41900208402020026
:1047C00000E100E02DE9F047204F90F804904FF011
:1047D0002C0808FB097405466669002E34D1626115
:1047E0000068A16026624FF48E7184F82860FFF79C
:1047F000EDFD2868012383602146FFF7EFFD636824
:10480000A0468BB92868D4F814A0236A9A4511D819
:104810002A68D2F81C31002BFBD00123D3602C2353
:1048200003FB097300225A613046BDE8F08794F813
:1048300028303BB9D0F81C31002BF8D04146FFF7A7
:10484000CDFDE2E70F26EAE71126EDE7C4190020C7
:104850000023435082B043580193019B02B070473C
:104860001FB501238DF80030044BCDE90110D3E9C9
:1048700000126846904705B05DF804FBF01900206F
:104880007FB5434AD2F82461002E60D010464FF421
:104890009271FFF7DDFF02238DF80030D2F88034EB
:1048A000C2F880340393D2F83C350293394BDA686E
:1048B00001920022C3E906226846D3E9001290471C
:1048C0003348D0F8443173B14FF4A271FFF7C0FF01
:1048D000304B9A693AB10022C3E90622D968D0F870
:1048E0003C05FFF7BDFF2A48D0F82031ABB14FF4AB
:1048F0009071FFF7ADFF0123C360264B5A6962B187
:10490000D0F84C150291002299688DF80020019191
:104910005A616846D3E9001290471D48D0F85831D3
:104920009BB14FF4AC71FFF793FF1A4B5A6962B118
:10493000D0F84C150291002299688DF80020019161
:104940005A616846D3E90012904704B070BDD2F8AE
:104950001031002BB4D04FF488711046FFF778FF68
:104960000C4BD2F83C0599698842A9D1DC69D96819
:1049700064B1D2F8005225F02005C2F800521A693D
:104980009C61DA60DE61FFF76BFF99E79C61FAE7F3
:1049900000200040F01900202DE9F8435B4B067918
:1049A0009146242202FB0632044692F820200D464E
:1049B0009846002A40F0A58055490068FFF76CFA38
:1049C0000746002840F09F8029682368481C0BD0C8
:1049D0004FF0A04001228A40C0F8082501F5E0729E
:1049E0004FF0030C40F822C06868421C1FBF00F55E
:1049F000E0724FF0A04C4FF0000E4CF822E0AA6994
:104A0000C3F8242595F814C06A7DBCF1010F4CEA67
:104A10000202C3F86C25C3F80C15C3F814051DD1A8
:104A2000A9684A1C1FBF01F5E0724FF0A0404FF08B
:104A3000000C40F822C0EA68501C0BD04FF0A04C8C
:104A400001209040CCF8080502F5E0704FF0030E0D
:104A50004CF820E0C3F80825C3F81015242373434D
:104A600008EB0302C2F804902A6948F80320B9F160
:104A7000000F30D020682A7F4FF48871FFF7E8FEDE
:104A800020684FF49071FFF7E3FE20684FF49271B5
:104A9000FFF7DEFE20684FF4A271FFF7D9FE4FF456
:104AA000AC712068FFF7D4FE23681A49C3F80413D9
:104AB000190B43F307335201002BD2B21CDB16480B
:104AC000C51885F8002301225B0901F01F0102FAD5
:104AD00001F140F8231023680822C3F8002524239D
:104AE00003FB06830022C3E906225A61012283F8F0
:104AF00020203846BDE8F883084B01F00F015A54D6
:104B0000E9E70827F5E71127F3E700BFF0190020D0
:104B1000814800001003420000E100E014ED00E0D5
:104B2000F8B5444D0479242303FB045302465B6823
:104B30000068ABB1404BC0F8083340F30733002B9B
:104B40004FEA10310CDB01F01F065B090121B14077
:104B500020333A4E46F82310BFF34F8FBFF36F8FC9
:104B6000D0F8003223F02003C0F80032242303FBE6
:104B700004539B692BB14FF4A271FFF769FE012327
:104B800043604FF4AC71FFF763FE0123C36024233D
:104B900003FB0453D0F858110029FBD0996919B1CF
:104BA000D0F844110029F5D00023C0F8003513686F
:104BB000D3F80C75D3F81465D3F80825D3F810157D
:104BC0004FF0FF3C6745C3F80CC518BF07F5E07709
:104BD000C3F814C5C3F808C5C3F810C51EBF4FF00D
:104BE000A0434FF0020C43F827C0771C1FBF4FF0C3
:104BF000A04306F5E076022743F826704E1C1FBF3F
:104C000001F5E0714FF0A043022643F82160531CE8
:104C10001FBF4FF0A04302F5E072022143F82210BB
:104C2000FFF751F9242303FB0454002384F82030B8
:104C30006360F8BDF01900201003420000E100E0BD
:104C400001F06043B3F1005F2DE9F041064638D131
:104C50001E4B0779242505FB073598466C69002C07
:104C600031D16A610068A9604FF49071FFF7F0FDDF
:104C70004FF4AC713068FFF7EBFD33686A69A968DF
:104C8000C3F84415C3F8482501229A606A68AAB996
:104C9000D3F82021D3F858411AB9002CF8D00F24AA
:104CA00007E0002CFBD10122DA60D3F85821002A5A
:104CB000FBD0242303FB078700237B612046BDE84C
:104CC000F0811024FAE71124F8E700BFF019002062
:104CD00013B5064C23683BB1054B1B68984700236E
:104CE000236023680193019B02B010BD00010140C5
:104CF000141A00202DE9F8434FF480410020FDF7FD
:104D0000EFFE08B1FBF764FBFEF7ACFD134C144B50
:104D1000144DE41A6A88E4082404022A44F00304C7
:104D200003D911492046FEF753FA104FDFF840909F
:104D3000002647F001076B88022B04D9324649460A
:104D40002046FEF749FA4FF4FA784FF47A40B84714
:104D5000B8F10108F9D10136EDE700BF8453000036
:104D6000D45200006C000020DC70000020710000B4
:104D700002710000044B1868421C04BF034B1878F2
:104D8000831F58425841704730010010E00F00F077
:104D9000074B1B78062B09D1064B1B68C3F3031383
:104DA000033B042B02D8044AD05C704700207047B4
:104DB000E00F00F0E80F00F035710000024AD2F871
:104DC0000034002BFBD0704700E0014010B5FFF726
:104DD000D1FF28B1874B884A1B68C3F304231360B3
:104DE000FFF7D6FF10B1854B854A1A60FFF7C2FF67
:104DF00028B1844B844A1B68C3F342331360FFF726
:104E0000C7FF20B1814AD36823F08073D360FFF7D6
:104E1000B1FF40B14FF080430022C3F80C21C3F82A
:104E20001021C3F83825FFF7B3FF10B1784B0322E8
:104E30001A60FFF7ADFF40B1764B05221A600122E0
:104E40009A6700229A603F225A60734B1A68511C7D
:104E50000BBF724B724B1A781B6802BF08331B687A
:104E6000C3F30313062A4DD1033B042B03D86D4A29
:104E7000D35C002B46D04FF080526B4BD2F8041419
:104E8000C3F82015D2F80814C3F82415D2F80C146E
:104E9000C3F82815D2F81014C3F82C15D2F814143E
:104EA000C3F83015D2F81814C3F83415D2F81C140E
:104EB000C3F84015D2F82014C3F84415D2F82414CE
:104EC000C3F84815D2F82814C3F84C15D2F82C149E
:104ED000C3F85015D2F83014C3F85415D2F834146E
:104EE000C3F86015D2F83814C3F86415D2F83C142E
:104EF000C3F86815D2F84014C3F86C15D2F84424EE
:104F0000C3F87025FFF736FF28B1484B484A1B68A5
:104F100003F04F031360FFF72DFF48B14FF08043BC
:104F2000D3F80024D20744BF6FF00102C3F8002475
:104F3000394B1B68062B0CD1394B1B68033B042BE8
:104F400002D83C4AD35C23B13B4A136843F48063E4
:104F500013603A4AD2F8883043F47003C2F88830BC
:104F6000BFF34F8FBFF36F8F2B4B1B68062B0FD1F7
:104F70002B4B1B68033B042B02D8314AD35C3BB15B
:104F80004FF01023D3F808224FF08043C3F8582580
:104F90004FF01023D3F80022002A03DBD3F80432A9
:104FA000002B22DA27490123C1F80435FFF706FF59
:104FB0004FF010201524C0F80042FFF7FFFEC0F8A4
:104FC0000442FFF7FBFE0023C1F80435FFF7F6FEAD
:104FD000BFF34F8F19491C4BCA6802F4E0621343B8
:104FE000CB60BFF34F8F00BFFDE7184B184A1A6024
:104FF00010BD00BF240300104035014074C00740BD
:105000000DF0ADBA440200103C050040F0ED00E0A8
:10501000A00500401056004030010010E00F00F0E5
:10502000340100102671000000C00040580200103A
:10503000E40E00402B7100003C17004000ED00E042
:105040003071000000E001400400FA05EC0100208E
:105050000090D0037F2805D8034B185C034B5B5CA2
:10506000184070470020704754710000D471000050
:10507000A0F16103192B98BF20387047A0F14103BC
:10508000192B98BF203070477F2805D8034B185C38
:10509000034B5B5C18407047002070475471000060
:1050A000D4710000A0F16103192B98BF203870471C
:1050B000A0F14103192B98BF203070477F299ABF78
:1050C000017001206FF02E0070475AB10A787F2AD4
:1050D0000AD800B10260002119605960501A18BF47
:1050E00001207047002070476FF02E0070470000CD
:1050F00008B5034B5B689B681B68984708BD00BFF9
:10510000F001002008B50821FFF7F2FF08BD08B53F
:105110000921FFF7EDFF08BDCAB170B41446012A9A
:1051200010D00A4603462044461E1146184613F87E
:10513000014B3CB101320D78A54203D1184611460E
:105140009E42F2D100780B78C01A70BC70470020E4
:105150007047844640EA010313F0030F18D18446D8
:10516000202A0BD32DE9F007B1E8F807A0E8F807EB
:10517000A2F12002202AF7D2BDE8F007042A07D3C3
:1051800051F8043B40F8043BA2F10402042AF7D290
:10519000002A05D011F8013B00F8013B013AF9D192
:1051A000604670478446002A2DD010F0030F04D0CB
:1051B00000F8011B013A26D0F7E7C9B241EA012104
:1051C00041EA0141202A12D3A2F120022DE9F00385
:1051D0000B460C460D460E460F4688468946A0E80B
:1051E000FA03203AFBD2BDE8F00320320BD0042AA8
:1051F00005D340F8041B043A05D0042AF9D200F87C
:10520000011B013AFBD16046704710F0030F19D122
:1052100011F0030F16D12DE970004FF001364FF059
:10522000803350F8044B51F8045BAC4205D1A4EB39
:10523000060525EA04051D40F3D0A0F10400A1F104
:10524000040170BC10F8012B11F8013BD21A01D1F6
:10525000002BF7D11046704700F1010110F0030F49
:1052600011D010F8012B002A23D010F0030F0AD020
:1052700010F8012B002A1CD010F0030F03D010F8F7
:10528000012B002A15D02DE970004FF001324FF0AC
:10529000803350F8044BA4EB020525EA04051D40B9
:1052A00000D1F6E7A0F1040070BC10F8012B002A31
:0852B000FBD1A0EB01007047E7
:1052B80030180020EE170020400000000100000018
:0C52C8000000000065700000C000002025
:1052D40075700000000000008870000000000000ED
:1052E4007B700000000000008270000000000000DD
:1052F40086700000000000008D70000000000000B7
:105304009170000000000000957000000000000093
:1053140099700000000000009D7000000000000073
:10532400A270000000000000A67000000000000051
:10533400AA70000000000000B0700000000000002F
:10534400B570000000000000BA700000000000000A
:10535400BE70000000000000C470000000000000E7
:10536400C870000000000000CD70000000000000C4
:10537400D270000000000000D8700000000000009F
:10538400C36D0000000003030F570000000000007D
:105394004557000000000000CC5D00000000000341
:1053A4009F56000000000003845600000000000324
:1053B400B956000000000003EA5600000000000394
:1053C400E55D000000000003F86400000000000335
:1053D4004F57000000000003335700000000000393
:1053E400C76D000000000003EF640000000000002F
:1053F4005970000000000000DF6600000000030395
:10540400585D000000000303055E0000000000007A
:10541400AC66000000000303D25600000000000048
:10542400E3660000000000005F700000000000035D
:105434007170000000000000D86700000000000048
:10544400DE560000000003038E6800000000030322
:085454003A71000000000000A5
:10545C0024120020EC120020F41200202C12002048
:0C546C009C000020CE6D00001800000025
:1054780000000000205F000000000000DC64000065
:1054880000000000CC64000000000000BC640000C4
:1054980000000000AC64000000000000A0670000ED
:1054A80000000000E868000000000000606F0000D5
:1054B8003C7000000000000048700000E40100207B
:1054C8000000000000000000F50C000000000000D3
:0454D80000000000D0
:1054DC0000000000000000000000000000000000C0
:1054EC0000000000000000000000000000000000B0
:1054FC0000000000000000000000000000000000A0
:10550C00000000000000000000000000000000008F
:10551C00000000000000000000000000000000007F
:10552C00000000000000000000000000000000006F
:10553C00000000000000000000000000000000005F
:10554C00000000000000000000000000000000004F
:10555C00000000000000000000000000000000003F
:10556C00000000000000000000000000000000002F
:10557C00000000000000000000000000000000001F
:10558C00000000000000000000000000000000000F
:04559C00000000000B
:1055A00000000000000000000000000000000000FB
:1055B00000000000000000000000000000000000EB
:1055C00000000000000000000000000000000000DB
:1055D00000000000000000000000000000000000CB
:1055E00000000000000000000000000000000000BB
:1055F00000000000000000000000000000000000AB
:10560000000000000000000000000000000000009A
:10561000000000000000000000000000000000008A
:10562000000000000000000000000000000000007A
:10563000000000000000000000000000000000006A
:10564000000000000000000000000000000000005A
:10565000000000000000000000000000000000004A
:045660000000000046
:105664000000000000000000000000000000000036
:105674000000000000000000000000000000000026
:105684006170705F74696D65722E6D5F6273705FB7
:10569400627574746F6E5F746D72006170705F74A4
:1056A400696D65722E6D5F6273705F616C65727493
:1056B4005F746D72006170705F74696D65722E6DD8
:1056C4005F6273705F6C6564735F746D72006E7299
:1056D400665F6D70755F6C696200737461636B5FA4
:1056E4006775617264006170705F74696D65722EB4
:1056F4006D5F646574656374696F6E5F64656C6126
:10570400795F74696D65725F6964006170705F626E
:105714007574746F6E00466174616C206572726F8B
:10572400720053797374656D2072657365740061DA
:10573400746669666F2E6D5F7265715F6669666F08
:10574400006170705F74696D65720061746669668A
:105754006F2E6D5F71756575650000000000FFFFB9
:10576400DEC0ADDEFE011EF1DEC0ADDEFF011EF1C6
:1057740048415244204641554C54206174203078AD
:105784002530385800202052303A202030782530F7
:105794003858202052313A2020307825303858208B
:1057A4002052323A20203078253038582020523385
:1057B4003A20203078253038580020205231323AAF
:1057C4002030782530385820204C523A2020307828
:1057D4002530385820205053523A2030782530381C
:1057E4005800537461636B2076696F6C6174696FE0
:1057F4006E3A20737461636B20706F696E746572A6
:10580400206F75747369646520737461636B2061C0
:105814007265612E0043617573653A204275734663
:1058240061756C74206F6E206120766563746F728D
:10583400207461626C6520726561642064757269AC
:105844006E6720657863657074696F6E2070726F1F
:1058540063657373696E672E0043617573653A20DF
:1058640025732E004D656D4D616E6167652046613F
:10587400756C7420416464726573733A20307825C2
:1058840030385800427573204661756C7420416449
:1058940064726573733A2030782530385800546840
:1058A400652070726F636573736F72206861732013
:1058B400617474656D7074656420746F20657865B7
:1058C4006375746520616E20756E646566696E65C6
:1058D4006420696E737472756374696F6E005468C2
:1058E400652070726F636573736F72206174746581
:1058F4006D707465642061206C6F6164206F722028
:1059040073746F72652061742061206C6F636174BD
:10591400696F6E207468617420646F6573206E6FA4
:1059240074207065726D697420746865206F706589
:10593400726174696F6E00556E737461636B206677
:105944006F7220616E20657863657074696F6E2074
:1059540072657475726E2068617320636175736516
:1059640064206F6E65206F72206D6F7265206163B5
:10597400636573732076696F6C6174696F6E73000D
:10598400537461636B696E6720666F7220616E2069
:10599400657863657074696F6E20656E74727920C2
:1059A40068617320636175736564206F6E65206F31
:1059B40072206D6F7265206163636573732076690D
:1059C4006F6C6174696F6E730041204D656D4D613C
:1059D4006E616765206661756C74206F63637572B0
:1059E40072656420647572696E6720666C6F617499
:1059F400696E672D706F696E74206C617A7920739B
:105A04007461746520707265736572766174696F10
:105A14006E00496E737472756374696F6E2062757B
:105A240073206572726F72004461746120627573D1
:105A3400206572726F72202850432076616C756500
:105A440020737461636B656420666F72207468658B
:105A540020657863657074696F6E20726574757201
:105A64006E20706F696E747320746F207468652083
:105A7400696E737472756374696F6E20746861748F
:105A84002063617573656420746865206661756C54
:105A94007429004461746120627573206572726FA9
:105AA40072202872657475726E2061646472657305
:105AB4007320696E2074686520737461636B20665B
:105AC40072616D65206973206E6F742072656C61FC
