:1000000000000120750300005D0300005F03000095
:1000100061030000630300006503000000000000AE
:100020000000000000000000000000006703000066
:1000300069030000000000006B0300006D03000076
:100040006F0300006F0300006F0300006F030000E8
:100050006F0300006F0300006F0300006F030000D8
:100060006F0300006F0300006F0300006F030000C8
:100070006F0300006F0300006F0300006F030000B8
:100080006F0300006F0300006F0300006F030000A8
:100090006F0300006F0300006F0300006F03000098
:1000A0006F0300006F0300006F0300006F03000088
:1000B0006F0300006F03000000000000000000005C
:1000C0006F0300006F0300006F0300006F03000068
:1000D0006F0300006F0300006F03000000000000CA
:1000E0000000000000000000000000000000000010
:1000F0000000000000000000000000000000000000
:1001000000000000000000000000000000000000EF
:1001100000000000000000000000000000000000DF
:1001200000000000000000000000000000000000CF
:1001300000000000000000000000000000000000BF
:1001400000000000000000000000000000000000AF
:10015000000000000000000000000000000000009F
:10016000000000000000000000000000000000008F
:10017000000000000000000000000000000000007F
:10018000000000000000000000000000000000006F
:10019000000000000000000000000000000000005F
:1001A000000000000000000000000000000000004F
:1001B000000000000000000000000000000000003F
:1001C000000000000000000000000000000000002F
:1001D000000000000000000000000000000000001F
:1001E000000000000000000000000000000000000F
:1001F00000000000000000000000000000000000FF
:10020000354936480A1A02D0072291438D463449AF
:1002100034480A1A06D00722914381F30988022242
:1002200082F3148830483149314A00F044F83148AB
:100230003149324A00F03FF831483249324A00F041
:100240003AF832483249334A00F035F832483349F7
:10025000334A00F030F833483349344A00F02BF881
:1002600033483449344A00F026F8344834490022EF
:1002700000F02CF833483449002200F027F83348C6
:100280003349091A082902DB002202604160314A21
:1002900090471F481F49884205D00268043003B4C4
:1002A000904703BCF7E700208646EC46002000217B
:1002B000294A9047FEE7884207D0521A05D00378B2
:1002C00001300B700131013AF9D17047884202D0F8
:1002D00002700130FAE770470000012000E00020C2
:1002E00000000120000001202C0700000000002079
:1002F00004000020D0030000D0030000100700001D
:100300002C07000000000020000000201007000063
:100310001007000010070000100700001007000081
:100320001007000010070000100700002C07000055
:10033000300700000400002004000020040000201A
:10034000040000200400002004000020040000201D
:10035000042000209D030000D1030000FEE7FEE71B
:10036000FEE7FEE7FEE7FEE7FEE7FEE7FEE7FEE765
:1003700000F002B8FFF7FCBF0F484FF007018843B9
:1003800085460E4880470E48016841F470010160BF
:10039000BFF34F8FBFF36F8FFFF732BF09480A4992
:1003A0000A4A884207D0521A05D0037801300B70F0
:1003B0000131013AF9D170470000012089040000A1
:1003C00088ED00E010070000000000200000002081
:1003D0004FF0A044154D03234FF4003680B545F08F
:1003E0000105C4F844373746C4F84C37C4F80875DB
:1003F0004FF064084FF47A40A847B8F10108F9D1EA
:10040000C4F80C654FF064084FF47A40A847B8F17F
:100410000108F9D1D4F80435DA4302F4002203F4D8
:100420000023C4F80825C4F80C35DFE710070000E6
:10043000044B1868421C04BF034B1878831F5842B2
:100440005841704730010010E00F00F0074B1B7857
:10045000062B09D1064B1B68C3F30313033B042B84
:1004600002D8044AD05C704700207047E00F00F0CB
:10047000E80F00F025070000024AD2F80034002BF4
:10048000FBD0704700E0014010B5FFF7D1FF28B165
:10049000874B884A1B68C3F304231360FFF7D6FF1A
:1004A00010B1854B854A1A60FFF7C2FF28B1844B13
:1004B000844A1B68C3F342331360FFF7C7FF20B1C0
:1004C000814AD36823F08073D360FFF7B1FF40B156
:1004D0004FF080430022C3F80C21C3F81021C3F869
:1004E0003825FFF7B3FF10B1784B03221A60FFF7EE
:1004F000ADFF40B1764B05221A6001229A670022B7
:100500009A603F225A60734B1A68511C0BBF724BA2
:10051000724B1A781B6802BF08331B68C3F30313BE
:10052000062A4DD1033B042B03D86D4AD35C002B24
:1005300046D04FF080526B4BD2F80414C3F820150C
:10054000D2F80814C3F82415D2F80C14C3F82815EF
:10055000D2F81014C3F82C15D2F81414C3F83015BF
:10056000D2F81814C3F83415D2F81C14C3F8401587
:10057000D2F82014C3F84415D2F82414C3F848154F
:10058000D2F82814C3F84C15D2F82C14C3F850151F
:10059000D2F83014C3F85415D2F83414C3F86015E7
:1005A000D2F83814C3F86415D2F83C14C3F86815AF
:1005B000D2F84014C3F86C15D2F84424C3F870255F
:1005C000FFF736FF28B1484B484A1B6803F04F033A
:1005D0001360FFF72DFF48B14FF08043D3F800249C
:1005E000D20744BF6FF00102C3F80024394B1B68E7
:1005F000062B0CD1394B1B68033B042B02D83C4A19
:10060000D35C23B13B4A136843F4806313603A4AD6
:10061000D2F8883043F47003C2F88830BFF34F8FAC
:10062000BFF36F8F2B4B1B68062B0FD12B4B1B6817
:10063000033B042B02D8314AD35C3BB14FF010236B
:10064000D3F808224FF08043C3F858254FF0102309
:10065000D3F80022002A03DBD3F80432002B22DA7D
:1006600027490123C1F80435FFF706FF4FF010209A
:100670001524C0F80042FFF7FFFEC0F80442FFF760
:10068000FBFE0023C1F80435FFF7F6FEBFF34F8FE2
:1006900019491C4BCA6802F4E0621343CB60BFF3F4
:1006A0004F8F00BFFDE7184B184A1A6010BD00BFFE
:1006B000240300104035014074C007400DF0ADBA6E
:1006C000440200103C050040F0ED00E0A0050040B1
:1006D0001056004030010010E00F00F0340100100F
:1006E0001607000000C0004058020010E40E004051
:1006F0001B0700003C17004000ED00E02007000051
:1007000000E001400400FA05000000200090D00342
:100710000338FDD87047000001010100000001010D
:0C072000000000000101000000000000CB
:04072C000090D00366
:040000030000037581
:00000001FF
