:1000000000000120750300005D03000029120000BC
:1000100061030000630300006503000000000000AE
:100020000000000000000000000000006703000066
:1000300069030000000000006B0300006D03000076
:100040002D2C00006F0300006D2C00003D2C0000E3
:10005000492C00006F03000045280000112F00000C
:10006000093100001D31000031310000D92E00009F
:100070006F030000FD2D00006F0300006F03000000
:100080006D310000490A0000392D0000612C00008C
:10009000953000009B300000A1300000A730000028
:1000A000AD300000B3300000453100005931000090
:1000B000092D0000B12A000000000000000000002F
:1000C0006F030000192D0000292D0000552C0000A1
:1000D000E92E0000952900006F03000000000000D9
:1000E0000000000000000000000000000000000010
:1000F0000000000000000000000000000000000000
:1001000000000000000000000000000000000000EF
:1001100000000000000000000000000000000000DF
:1001200000000000000000000000000000000000CF
:1001300000000000000000000000000000000000BF
:1001400000000000000000000000000000000000AF
:10015000000000000000000000000000000000009F
:10016000000000000000000000000000000000008F
:10017000000000000000000000000000000000007F
:10018000000000000000000000000000000000006F
:10019000000000000000000000000000000000005F
:1001A000000000000000000000000000000000004F
:1001B000000000000000000000000000000000003F
:1001C000000000000000000000000000000000002F
:1001D000000000000000000000000000000000001F
:1001E000000000000000000000000000000000000F
:1001F00000000000000000000000000000000000FF
:10020000354936480A1A02D0072291438D463449AF
:1002100034480A1A06D00722914381F30988022242
:1002200082F3148830483149314A00F044F83148AB
:100230003149324A00F03FF831483249324A00F041
:100240003AF832483249334A00F035F832483349F7
:10025000334A00F030F833483349344A00F02BF881
:1002600033483449344A00F026F8344834490022EF
:1002700000F02CF833483449002200F027F83348C6
:100280003349091A082902DB002202604160314A21
:1002900090471F481F49884205D00268043003B4C4
:1002A000904703BCF7E700208646EC46002000217B
:1002B000294A9047FEE7884207D0521A05D00378B2
:1002C00001300B700131013AF9D17047884202D0F8
:1002D00002700130FAE770470000012000E00020C2
:1002E00000000120000001201C430000300000201D
:1002F00070000020D0030000D0030000FC36000096
:100300001C43000030000020300000207C3700003B
:100310007C3700007C3700007C3700007C37000011
:100320007C3700007C3700007C3700001C43000055
:100330005C4300007000002070000020700000206E
:100340000C1300200C1300200C1300200C130020B1
:100350000C3300209D030000AD310000FEE7FEE7F6
:10036000FEE7FEE7FEE7FEE7FEE7FEE7FEE7FEE765
:1003700000F002B8FFF7FCBF0F484FF007018843B9
:1003800085460E4880470E48016841F470010160BF
:10039000BFF34F8FBFF36F8FFFF732BF09480A4992
:1003A0000A4A884207D0521A05D0037801300B70F0
:1003B0000131013AF9D170470000012055320000A7
:1003C00088ED00E04C3700000000002030000020E5
:1003D0001FB50021039001AA44F20100CDE90111EB
:1003E00000F004F805B05DF804FB000072B6094B9C
:1003F0001B68DB0700D500BEBFF34F8F0649074BD4
:10040000CA6802F4E0621343CB60BFF34F8F00BFB2
:10041000FDE700BFF0ED00E000ED00E00400FA05AC
:10042000D0E90223D1E90201994208BF90422CBFD2
:10043000012000207047000008B50B4800F0EDFADD
:100440000A4B0B49D3E900231218D1E9000143F10B
:1004500000038B4208BF824203D212F1807243F143
:1004600000031046194608BD300000207800002027
:10047000F000002037B505460C460A4801A900F0F7
:100480001CFF60B10570446001A9064800F03FFF01
:1004900018B1054800F0C6FA002003B030BD0420B2
:1004A000FBE700BFDC00002030000020234B70B5CC
:1004B0001E78044616B90026304670BD0028FAD0D2
:1004C000FFF7BAFFD4E90223994208BF90422ED326
:1004D000002000F099F923692BB94FF0FF324FF05B
:1004E000FF33C4E90223002000F090F9D4E905307D
:1004F0009847002000F088F9256965B1D4E9022306
:10050000591C08BFB2F1FF3F0FD0521943F100034D
:10051000C4E902233546002000F078F9002DCAD046
:100520000748214601F0BBFFC6E70025F3E701338A
:1005300008BFB2F1FF3FBED0F2E700BF800000204D
:100540008037000013B5114B11491868019008233A
:100550001048582200F09EFE044698B90E4A0F48F3
:1005600001A900F063F9044660B90C48012100F0CC
:1005700037FA01230A4A0948194600F099F9094B4C
:1005800001221A70204602B010BD00BF7C37000067
:1005900084000020DC00002029060000300000203C
:1005A000FFFF7F008000002030B56AB103684FF084
:1005B000FF344FF0FF355A614A1E5142C3E90245EC
:1005C00051411961002030BD0720FCE7F8B5044611
:1005D000002017460D4600F017F9D4E90223013335
:1005E00008BFB2F1FF3F15D1FFF726FF401941F1D7
:1005F0000001C4E902010126002000F007F95EB104
:100600002369A76103B1256121460020BDE8F840B8
:10061000FFF730BF0026EFE73046F8BD014800F095
:10062000FCB900BF300000202DE9F74F804600F0F4
:10063000DFF940B1634AD2E9003113F1807341F12F
:100640000001C2E900310021404600F0E0F938B174
:100650005D4E336823B13068FFF728FF0023336015
:100660000121404600F0D3F920B1FFF7E5FE574BDA
:10067000C3E900015648DFF8509101A900F057FE88
:100680004FF0FF364FF0FF3798B9DFF848A14E4FD3
:10069000504601F01AFF002800F08780D0E90223BD
:1006A000591C08BFB2F1FF3F34D1504601F007FF9B
:1006B000EEE70378012B20D0022B09D1DFF814A13B
:1006C000504601F0FCFE002877D0C0E90267F7E74A
:1006D00053B94168D1E90223013308BFB2F1FF3FAA
:1006E00002D03C4801F0DBFE01A9394800F04AFE87
:1006F00001A9374800F01BFEC6E74168D9F8003071
:10070000994203D10023C9F80030EDE7314801F0E8
:10071000DFFEE9E7396891B13968D1E902018B421E
:1007200008BF82422FD23B68D3E90223013308BFBE
:10073000B2F1FF3F03D03968504601F0B0FE504699
:1007400001F0BDFED0E9026B8146FFF775FE341A59
:100750006BEB0105012C75F1000319DBB4F5350FC6
:1007600014D3FFF75BFF1C4A02441C484FF4960366
:10077000002100F0BDF898B93B6813B9404600F07D
:100780008FF8C7F8009003B0BDE8F08F3246ECE771
:100790001248002100F031F94846FFF787FE01E0DA
:1007A0000D28F9D000233B6072E7074B1B68002B34
:1007B000E9D1404600F078F8E5E7094B01221A70CC
:1007C00092E700BF78000020F8000020F000002031
:1007D000DC00002080370000FFFFB4003000002064
:1007E0008000002072B6024A13680133136070471C
:1007F000FC000020034A1368013B136003B962B692
:10080000704700BFFC000020FFF7ECBFFFF7F2BF0E
:10081000435882B03BB10023435043580193019B9E
:10082000012002B070471846FBE7000070B5184C75
:10083000437944F82320174C04EBC3031B792BBBEB
:1008400003680A88C3F8082590F904508B78027968
:100850005B01002DDBB214DB0F494E1986F8003323
:1008600001236D0902F01F0203FA02F241F825206C
:10087000437904EBC302012144F8330011710020D5
:1008800070BD064902F00F028B54F1E70820F7E72C
:10089000080100200001002000E100E014ED00E06C
:1008A000036801221A607047036801225A6070478A
:1008B00073B501F15005AD000068ADB24FF480345E
:1008C0008C400026C0F80843C0F84843465101F563
:1008D000A8714559019522F07F42019D40F82120E1
:1008E000C0F844430BB1C0F8044302B070BD00002F
:1008F0002DE9F74F0D4622F07F4402684FF4803710
:1009000005F150068F408046B60002EB8500C2F824
:100910004873B6B2C2F80873D2F8041599464FF07E
:10092000000BD0F84035C0F8401542F806B05B1A0D
:100930009259009223F07F43012B009A4FEA850AD7
:100940000CD1264B4FF4806043F001039847D8F850
:10095000003043F806B09B590193019BD8F8001072
:10096000D1F80465C1F84473A31B23F07F43012B26
:100970001CD11A4B05F5A875013443F0010341F869
:1009800025404FF480609847D8F80030D3F80435FC
:100990009E4209D1D8F800300020C3F84473C3F850
:1009A000047303B0BDE8F08F0D20FAE78A44C9F163
:1009B000FF13CAF84045D1F80405221A013A22F083
:1009C0007F4203F57F439342EED3002AE2D1013404
:1009D000CAF84045D1F804359842DAE7903700006C
:1009E00003680222C3F8442309B1C3F80423704703
:1009F00000684FF48271FFF70BBF4FF4803303FAA6
:100A000001F10368C3F84813C3F808137047503165
:100A10008900006889B2FFF7FBBE0368D3F80405BC
:100A20007047000090F90430002B09DB5A090121BE
:100A300003F01F0301FA03F34032024941F8223068
:100A4000704700BF00E100E0024B034A1B681068DA
:100A5000184700BF080100200001002070B5064DB6
:100A60000646002455F8043B0BB130469847013444
:100A7000042CF7D170BD00BF180100200B4A0C4BAD
:100A80005188142000FB0131CB6833B90420496838
:100A900010700122074801F009BC074905231370B3
:100AA00002238B80012209680023F3E73001002034
:100AB00048010020000000208401002007B5002329
:100AC00005490093054A09680548082301F0C0FB61
:100AD00003B05DF804FB00BF84010020A4370000D0
:100AE0000000002007B5002301460093034A044894
:100AF000082301F0ADFB03B05DF804FB9C37000058
:100B00000000002013B500230C4600930146084A5C
:100B10000848042301F09CFB38B90749142303FB60
:100B200004140123237402B010BD48F20D60FAE7EB
:100B300098370000000000204801002037B50A481F
:100B40000A4B42689C881968538803250333057053
:100B50009BB2002000909B0001EB8401044801F04F
:100B600077FB03B030BD00BF3001002084010020BE
:100B7000000000204388033300EB830399420BD32A
:100B800082884FF6FF739A4208D0038833B1806899
:100B9000431C58425841704702207047012070475B
:100BA00038B5144B14220D4602FB00302B68446804
:100BB00004F58051A3B15C88033403EB84048C42B8
:100BC00015D22368013312D02046FFF7D3FF012846
:100BD00008D002280BD00028F1D12C60012038BDAC
:100BE0000834ECE76388033304EB8304E7E7002071
:100BF000F5E700BF48010020426873B504460D4682
:100C00006AB3244BD9688A4229D31B699A4226D8F1
:100C100012F0030323D120490089098988421ED19B
:100C20002068916888421AD11C494868824203D9D9
:100C300000F5805082420DD389698A420CD901F5B2
:100C400080518A4208D201222A80B3FA83F04009F7
:100C500002B070BD1A46F7E748F20963F5E70023D2
:100C60002B801E460196288801A9FFF799FF30B90D
:100C70002B8801339BB2012B2B80F3D9E8E7019B32
:100C8000226899689142EED16360034B1B892381EE
:100C9000DEE700BF000000203001002048010020F6
:100CA0002DE9F8431C461D4B1B7806460F4615469A
:100CB00073B382B37CB3DFF86C804FF01409A38860
:100CC000012B02D948F2096020E009FB03F318F870
:100CD00003302BB9A0882146FFF762FF20B92060BE
:100CE000A3880133A380EAE723681EB1998832887C
:100CF0009142EFD11FB119883A889142EAD19A689E
:100D0000C5E90023064B1B892B810020BDE8F88331
:100D100048F20160FAE748F20460F7E72801002092
:100D2000300100204801002008B5074B5888191DE4
:100D3000FFF736FF18B1BDE80840FFF7FFBEBDE87A
:100D40000840FFF79BBE00BF300100202DE9F04FA7
:100D5000A14FDFF8A89289B00646B8463B6823B990
:100D60009E48494600F0E3FA3860D8F800502978E8
:100D70004B1E052B07D8DFE813F022007700770021
:100D800009010901600148F20E641422002103A840
:100D900002F02AFC41F61D539C4208BF0024D8F8FB
:100DA000003004941A78013A052A00F2F281DFE853
:100DB00012F0DE01E201020212021E0228022EB12E
:100DC000874B00225A604FF40644DEE72B79032B51
:100DD0001DD8DFE803F015022B3682490B78022B71
:100DE00008461AD00B7D022B4FF0010317D11422B5
:100DF0005343C2180020C8545068FFF773FE03E045
:100E000001232B71FFF75AFE002800F0B980744BC4
:100E100000225A6048F20D64B7E70023E7E7704A02
:100E200013700023536041F61D54AEE76E496F48BE
:100E3000002302222B718A800968012201F036FA10
:100E4000E2E76B4B684A5988106800262E7114231C
:100E5000644D4B43E918EE544C6814609488486024
:100E60000C8102219180C8E7B5F814A0AA7DDFF8B3
:100E700074B1AEB1022AEB8806D9142101FB0AB184
:100E8000DA1C088902440A81142202FB0ABAC3F55B
:100E90007F43BAF80A20FD331344AAF80A3092E7D8
:100EA000142303FB0AB318895C6804EB8004062A48
:100EB00069D8DFE802F0274E36441D5A040041F697
:100EC0001D54AA7DEB88022A06D9142101FB0AB120
:100ED000DA1C088902440A81142202FB0ABAC3F50B
:100EE0007F43BAF80A20FD331344AAF80A304CE7CE
:100EF0004048414900234360AB690360FFF77CFE33
:100F000000285BD00223AB75002300930423EA186A
:100F10002146364801F09CF9002831D048F20D6492
:100F2000CFE72B69002B14BF03230123AB750023EC
:100F3000009305F10C02042304F10801E9E7012301
:100F4000AB750022EB8800922A699B0004F10C012A
:100F5000DFE703290CBF05230623AB7500230093AD
:100F6000042305F10802E118D3E70623AB75224BF1
:100F70001988204B5868FFF7C5FD04460028A0D10A
:100F800009B0BDE8F08F48F20E649AE7002E7FF4B6
:100F90001AAF2B79012B33D0022B3FF444AF002B37
:100FA0007FF4F1AE02232B710DF10A01EB6803937C
:100FB00003A8CDE90466FFF71FFE10B948F20964E3
:100FC000E3E60498BDF80A108388EB8003882B8140
:100FD000FFF798FD044626E0440100207001002040
:100FE000280100204801002084010020000000208A
:100FF000300100200C0100208C0100204001002065
:10100000814B03AA3146A81DFFF74AFE7E4B0446DA
:1010100068B999880498FFF775FD044648F209639A
:101020009C423FF400AF002C7FF4AFAEA8E708224B
:101030003146184602F0D8FAF0E7002E7FF4C3AE2E
:10104000724B1A7BB2B11E731A78013A062A3FF628
:101050009AAE01A151F822F00311000029110000FD
:10106000471100004D110000870D000053110000D2
:10107000651100001A78072AE6D801A151F822F07C
:10108000A11000004910000049100000C710000026
:10109000DB100000FF100000FF100000C310000074
:1010A0001A895B4901321A8100225A801A730A7820
:1010B000B2FA82F252099A720A7DB2FA82F25209A7
:1010C000DA72012207E0534958688A88408803325F
:1010D00002448A8002221A70B6E74D4C5A884D4964
:1010E000142505FB02420868546850608888108106
:1010F00002200C608880002111740622EBE7072291
:10110000E9E79A7A32B9DA7A8AB900221A705A80F3
:101110005A6088E63E4900229A72CA68002AF2D1D3
:10112000097C0029EFD05A80FFF7FEFD52E700222C
:10113000DA72374A116A0029E7D192F82420002A8E
:10114000E3D00122EFE7FFF7F9FC43E7FFF796FC56
:1011500040E72F4A5B88142101FB03235868FFF7FF
:10116000C1FC37E700225A60FFF7A8FC32E70023F2
:101170008DF80C300DE001228DF80C201A89ADF8A5
:1011800018209A88DB680593ADF81A2000238DF8A3
:101190001C3003A8FFF762FC002649461E48C8F829
:1011A000006000F0EFF81D48012100F0FBF8002876
:1011B0007FF4D4ADE4E602228DF80C201A89ADF854
:1011C00018209A88ADF81A20DA689B7D05929A1F3C
:1011D00053425341DBE703228DF80C20DA88ADF847
:1011E00018201A89DB68ADF81A200593D1E704228C
:1011F0008DF80C20DB88ADF818300023ADF81A30DC
:10120000F3E70523B4E700BF900100203001002080
:10121000480100208401002070010020800100208E
:101220004068FFF793BD00001EF0040F1CBFEFF3F2
:1012300009800AE0EFF308800549064A884201D890
:10124000904202D88D464FF00000034B1847000033
:101250000000012000E0002081120000BFF34F8F4A
:101260000549064BCA6802F4E0621343CB60BFF342
:101270004F8F00BFFDE700BF00ED00E00400FA055E
:1012800008B5034B9A6ADB6AFFF7E8FF08BD00BFA9
:1012900000ED00E010B561B1B2FBF3F403FB1424E0
:1012A000A4B244B9C0E9001484608281C38120469D
:1012B00010BD0E20FCE70920FAE737B550E8013FE2
:1012C0009DB2C48925448489A54228BF2D1B048969
:1012D000A54202BFBFF32F8F002207E0C5EA030536
:1012E00040E80154002CE9D14FF001028DF80320B1
:1012F0000193019B9DF803200B6002F0FF0322B1D4
:101300000B880068184403B030BD1846FBE70A8814
:101310004B889A4209D150E8012FC2EA024240E8C4
:101320000123002BF7D1012070470020704737B50B
:1013300050E8023F1FFAA3F5C488A54202BFBFF3DD
:101340002F8F00220DE0C48925448489A54228BF3F
:101350002D1BC3EA054540E80254002CE8D14FF0AC
:1013600001028DF803200193019B9DF803200B607F
:1013700002F0FF0322B14B880068184403B030BD6F
:101380001846FBE70A884B889A4209D150E8022F99
:10139000C2EA224240E80223002BF7D10120704725
:1013A0000020704710B5034653E8002FA2EB010060
:1013B00043E8000494F0000FF6D110BD2DE9F0478A
:1013C0008368D3F84831C3F340059B0788B00746CC
:1013D00006D50022114608B0BDE8F04700F060BA1B
:1013E000012906D91E4A022108B0BDE8F04700F0E5
:1013F00023BA1C4C1C4EDFF874A04FF06408A946B9
:10140000361B1823B6FBF3F6AE4204F1180402D1E2
:1014100008B0BDE8F08754F8180C54E905230179A9
:1014200000689A1A1B1ADBB2039308FB03F3B3FBA1
:10143000F2F3CDE9019334F8043C0093CDE90612B0
:1014400054F8083C11FB08F13846B1FBF2F1CDE944
:1014500004215246082100F0EFF90135D4E700BF1E
:10146000AC3700001437000014370000BF3700000D
:1014700008B102F013B970472DE9F843089E1C46E5
:101480000D46E9B9194E1A4B9B1BB2EBD30F4FEA2D
:10149000D30804D2174F07EB8207A84501D10023D8
:1014A00009E073683868196802F0D1F8B146083667
:1014B00020B9D9F804302360BDE8F8830135ECE7A2
:1014C0000028ECD00178436839B13146104698477E
:1014D0003368002BE3D02660EEE7110103EB021224
:1014E0005B58002BDBD02260E6E700BF143700001A
:1014F0004C3700001400002007B58368B9B1DA7ECC
:101500008A4211D00B4A009233228DF8042001F157
:101510002F028DF805206D22ADF80620D9766A4697
:101520000549006900F0C7FC03B05DF804FB034AFD
:10153000D976F5E71B5B313B753900000F3D0000A4
:1015400007B583681A7F8A4213D045F61B32ADF87F
:10155000002034228DF8022001F12F0219778DF836
:1015600003206D22ADF80420034900696A4600F0AB
:10157000A2FC03B05DF804FB75390000014900F0DE
:101580009ABC00BF4B3800000A460068014900F0D1
:1015900092BC00BFD438000009B1FFF7F5BF704717
:1015A0002DE9F34105460F461446002614B902B052
:1015B000BDE8F081686803682246D3F80C80B91949
:1015C00001ABC047019B1E44E41A002BEED1AB686F
:1015D0001A78032AEAD0D3F848219206FBD5B3F84B
:1015E00048216FF34512A3F84821DFE72DE9F04FBA
:1015F0002DED028B044683B090460E46002973D031
:101600000025705D01F0C2FF50BB04F1100308EE2D
:10161000103A5FFA88FB3046FFF72AFFA36893F879
:101620001990401BA9EB080906EB050A48455346EB
:101630004FF0000717D913F8010BCDE9003301F083
:10164000A5FF009B20B113F8012C0A2A34D0B9461B
:10165000A268507E08EB070290422CD90137EAE7D6
:101660000135CEE70137B84219D013F8012B0A2A09
:1016700005EB0709F6D1206900F012FC3A4627462F
:1016800051462046FFF78CFF57F8100FFFF776FF03
:101690005FFA88F1384609F10105FFF77DFF2069FF
:1016A000711900F008FC206903B0BDEC028BBDE8A5
:1016B000F04FFFF763BF4F46206900F0F1FB3A4659
:1016C00051462046FFF76CFF3D44705D01F05EFF20
:1016D00040B92069FFF752FF18EE100A5946FFF78C
:1016E0005BFF98E70135F0E703B0BDEC028BBDE886
:1016F000F08F00000A4619B10249006800F0DBBB18
:10170000704700BFDA3800000A4619B10249006884
:1017100000F0D1BB704700BFE03800002DE9F34175
:1017200005468068424F002480222146A0308DF873
:10173000034001F059FF3F49286900F0BCFB2869CC
:1017400000F0AEFB4FF47A7647F001076868036853
:101750000122D3F810800DF1030101ABC047019BBA
:101760005BB94FF6C010B847019B002BEED1013E8C
:10177000B6B2002EEAD10D2035E09DF80330AA68FC
:101780001B2B48D092F8A0101B29EDD1522B42D12F
:101790001444002384F8A03092F8A1105B291FD1D3
:1017A00002F1A20602211D4616F8010B4C1C3B2833
:1017B000E1B264B21AD1002C20DB01F1A004144480
:1017C000002314F8010BD8B9FA2B28BFFA23FA2DFD
:1017D00013752B4628BFFA23937582F8A00002E008
:1017E00082F8A0300B2002B0BDE8F08105EB850344
:1017F00000EB4303303B80299DB2D5D10C20F2E7AA
:1018000003EB830300EB43004E1C303883B23006F9
:10181000F1B2F3D4D5E711190134E4B2092C81F8FF
:10182000A030A1D9002382F8A0300420DBE700BF5C
:10183000303D0000223D00000CB473B506AB0D46F0
:1018400053F8046B81680193D1F848315B07044673
:1018500020D5CB7EAB421DD002221B31684601F061
:101860009AFE29462046FFF747FE206901AA314625
:1018700000F0A0FB9DF800102046FFF73DFE9DF80C
:10188000011011B12046FFF75BFE02B0BDE87040C9
:1018900002B07047206901AA314600F08BFBF4E7E3
:1018A0002DE9F04F07468BB07F48DFF81C82914648
:1018B0000D4601F0F3FE06467C4801F0EFFEBB68E2
:1018C000CDF80080301A7A4A5B68082186B2384623
:1018D000FFF7B2FFBB685868FFF7CAFD04464046F1
:1018E00001F0DCFEBB68204482B299683846FFF7FD
:1018F0007DFE704A00213846FFF79EFFB9F1000FC8
:1019000007D035B14FF00C08AA4608FB0958C2456C
:1019100029D1664801F0C2FE841C3444A4B2624B53
:10192000654A009304F103080821384623461FFA4C
:1019300088F8FFF781FF614942463846FFF756FEB7
:1019400045B10C2606FB0956DFF880B1DFF8689137
:10195000B54222D1BB68D3F80C80B8F1000F5AD140
:101960000BB0BDE8F08FDAF80400FFF781FD044604
:10197000DAF80000FFF77CFD2044B0420AD9DAF81B
:101980000400FFF775FD0446DAF80000FFF770FD6C
:10199000204486B20AF10C0AB9E7D5E9002393B3D3
:1019A0004AB30192414A009208215A463846FFF74D
:1019B00043FF6868FFF75CFD03902868FFF758FD58
:1019C00082463A4801F06AFE039AA21AA2EB0A0381
:1019D000181AC1B207F11000FFF7DEFD3849386967
:1019E0003A2200F068FAA96889B142463846FFF702
:1019F000FDFD0C35ACE7009323464A4608213846E6
:101A0000FFF71AFFEFE7002AEDD00092F4E73869FC
:101A1000FFF7B4FDEDE700220592164606AD0095EE
:101A200005AB0121404602F10109FFF725FD059CA8
:101A30005CB12068FFF71CFDB04204D9059B186813
:101A4000FFF716FD86B24A46E9E7B9F1010F87D0E4
:101A50001C4ADFF864A021463846FFF7EDFE224617
:101A6000B41CA4B205AB00950121404602F1010966
:101A7000FFF702FD059B002B3FF472AF1B6800933C
:101A80000821234652463846FFF7D6FE059B596883
:101A900031B1721D92B23846FFF7A8FD4A46E1E720
:101AA0003869FFF76BFDF9E7363D00009C3E00000A
:101AB0006F39000078390000823900008A3900004F
:101AC000EC380000A6390000273D00009D390000D9
:101AD00000221146FFF7E4BE022910B5044608D1E2
:101AE0008368D3F848319B0703D5BDE81040FFF762
:101AF000EFBF2069054A064900F0DDF92069054A73
:101B00000349BDE8104000F0D6B900BF133D000006
:101B100075390000173D0000012906D0022906D1C1
:101B20008368D3F848319B0701D5FFF7D1BF024A3C
:101B30000221FFF781BE00BF2139000038B583685C
:101B4000D3F84821C2F3400592070C4606D500227F
:101B50001146FFF7A5FE2C46204638BD0029FBD0D4
:101B60005B68024A0221FFF767FEF5E7B43900001F
:101B7000012937B50546144604D103B0BDE830400D
:101B8000FFF7A6BF023918BF0121FFF7D7FF48B9F9
:101B900063680193044B0093044A2368022128469A
:101BA000FFF74AFE03B030BDD8390000CF3900003E
:101BB000012907B504D103B05DF804EBFFF788BF36
:101BC00002290AD153680193084B00931368084A0D
:101BD000FFF732FE03B05DF804FB8CBF012100214A
:101BE00003B05DF804EBFFF7A9BF00BFD8390000D0
:101BF000CF390000013910B518BF01210446FFF7A5
:101C00009DFF40B9044A0549206900F054F9A368D2
:101C100045F218021A8310BD1C3D00007539000002
:101C200001292DE9F3410446154637D18668FFF7AF
:101C300075FD38BBA36804F11005FA21284693F816
:101C400014809F7DFFF7A0FC20691E49FA2200F056
:101C500032F92046FFF762FDA0B9A368197D7176BD
:101C6000A368A1EB08019B7D33762846C9B2FFF734
:101C700041FD317EC91BC9B2284602B0BDE8F04122
:101C8000FFF742BDA36845F218021A830E4A0421E9
:101C9000204602B0BDE8F041FFF7CEBD022994BF57
:101CA00000210121FFF74AFF48B96B680193074BF8
:101CB00000932B68064A02212046FFF7BDFD02B0C3
:101CC000BDE8F081E6380000ED390000D8390000A9
:101CD000CF3900002DE9F041013986B018BF01214C
:101CE0000546FFF72BFF40BBAB68DFF85480D3F805
:101CF00040610446EEB1082C1BD030460023092277
:101D000003A900F03CFB9DF81420A9683046092384
:101D10000132A03100F033FBAB68049EA033009386
:101D2000671C2346424600212846FFF785FD3C46B6
:101D3000E0E7AB68002283F8A02006B0BDE8F081A0
:101D4000273A0000013910B518BF01210446FFF7FA
:101D5000F5FE30B9A368B3F8482160F38202A3F816
:101D6000482110BD013910B518BF01210446FFF705
:101D7000E5FE30B9A268B2F8483143F00403A2F896
:101D8000483110BD013910B518BF01210446FFF7D5
:101D9000D5FE30B9A368B3F8482160F3C302A3F8B5
:101DA000482110BD013910B518BF01210446FFF7C5
:101DB000C5FE30B9A268B2F8483143F00803A2F872
:101DC000483110BD022973B50D4694BF0021012191
:101DD00004461646FFF7B2FE014658B9022D0BD154
:101DE000736801930C4B00930C4A336829462046D4
:101DF000FFF722FD02B070BDA368094AD3F848314D
:101E000013F0080F074B18BF1346074A204602B0CD
:101E1000BDE87040FFF710BDD8390000CF39000091
:101E2000313A0000343A0000383A0000013910B568
:101E300018BF01210446FFF781FE48B9A368C3F823
:101E40003801E3685B68BDE81040186800F023BB08
:101E500010BD00007FB5013918BF01210446FFF70E
:101E60006DFE0546B8B9E3685B681E68304600F051
:101E70000FFBB168A268C0B2CDE9010164234343FE
:101E8000B3FBF1F3DBB20093D2F83831034A2946B1
:101E90002046FFF7D1FC04B070BD00BF493A0000F6
:101EA000826810B504462AB1436901680069984701
:101EB0000023A36010BD0EB403B5039921B104AB98
:101EC00001AA019300F076F802B05DF804EB03B0CC
:101ED00070470A2938B504460D4602D10D21FFF797
:101EE000F8FFA3682268591CA160D554D4E90132D7
:101EF0009A4204D32046BDE83840FFF7D1BF38BD31
:101F00002DE9F84F9846DDE90A43154682460F460B
:101F10000A464FF00109AA420FD2C14538BFC14657
:101F200013F0010B01D16CB900240126B8F1010FA7
:101F30001BD908F1FF386E43F8E709F10109B2FB3C
:101F4000F5F2E8E79B070ED5B8F1000F0CBF30267D
:101F50002026A145E9D2013C31465046FFF7B9FFA2
:101F6000002CF6D1E0E72026F3E7B7FBF6F39D421D
:101F7000E1D9DFF83C80B7FBF6F3504618F80310C0
:101F800006FB1377FFF7A5FF3346AB42B6FBF5F62A
:101F9000F1D2BBF1000F02D00CB1A14501D3BDE8D5
:101FA000F88F20215046013CFFF793FFF4E700BF74
:101FB0009F3E00002DE9F74F054617468846002949
:101FC00000F0428118F8011B49B92B7B002B00F06F
:101FD0003B81284603B0BDE8F04FFFF761BF2529DC
:101FE00040F0B780002698F800302D2B424608F1CB
:101FF000010823D0302B24D02B2B25D000242A2BD2
:1020000002F1010123D13B681A1D1B683A601C4490
:102010000A4613782E2B26D101324FF0000A1046C3
:1020200010F8011BA1F1300CBCF1090F1DD80A23D7
:1020300003FB0A13A3F1300A0246F0E746F001065B
:10204000D1E746F00206CEE746F00406CBE711F8EA
:10205000013CA3F130000928DBD80A2202FB04343A
:10206000303C0A46CBE74FF0000A12F8011B01F0A2
:10207000FB0068289046F8D0782909D86F290CD839
:10208000632962D022D8252963D0582900F088809E
:1020900098F80030002B95D197E770390829F7D8C8
:1020A00001A353F821F000BF23220000912000007B
:1020B00091200000B1210000912000008F2100003C
:1020C0009120000091200000A1210000642901D08E
:1020D0006929DDD13A68D2F80090111D89EAE972C8
:1020E0003960A2EBE9724FF0010B092A35DCD345C8
:1020F00038BFD3462CB1B9F1000F01DB720700D510
:10210000013CB30702D5BAF1000F03D0F00701D4A8
:102110004CBB0024B9F1000F2DDAC9F100092D21C3
:102120002846FFF7D6FE06F00302022A04D1BAF1D0
:10213000000F01D11CBB0024CDE9004653460A2202
:1021400049462846FFF7DCFEA2E73B681A1D1978CE
:102150003A602846FFF7BDFE9AE70A230BF1010B10
:10216000B2FBF3F2C1E7A345D4D220212846013CBB
:10217000FFF7AFFECCE77107D5D52B21D0E7A345FC
:10218000DAD230212846013CFFF7A3FED2E73968B6
:10219000CDE900460A1D3A6053460A220968D0E795
:1021A00039680A1D3A60CDE9004653461022F5E72A
:1021B0003B681A1D3A6016F00106D3F8009028D14A
:1021C000B9F1000F03D0484601F068FA0646B44260
:1021D00000D904BB09F1FF3919F8011F00293FF4A8
:1021E00057AF2846FFF775FEF6E728460136FFF79A
:1021F00070FE19F806100029F7D1A642BFF448AFC7
:10220000002C3FF445AF20212846013CFFF761FE3A
:10221000F3E70026EDE720212846013CFFF759FEB1
:10222000D5E73B681A1D3A60302128461C68FFF745
:1022300050FE78212846FFF74CFE00220823CDE906
:102240000032214610227CE703B0BDE8F08F00BFCA
:102250002DE9F04108B302B3D0F800E0BEF1000F61
:102260001ED0FBB14568D5F80480B3FBF8F508FB38
:102270001535BDB942EA010C1CF0030F14D1C56835
:10228000A94211D34D1EEC180569AC420CD8DEF8FA
:102290000C40A446BDE8F04160470E20BDE8F08147
:1022A0000820FBE70920F9E71020F7E7F0B5D8B1DF
:1022B000D0F800C0BCF1000F18D0CAB14768D7F8F9
:1022C00000E00EF1FF370F4214D1C768B94211D3B5
:1022D00004694D1E0EFB0255A5420BD8DCF81040D8
:1022E000A446BDE8F04060470E20F0BD0820FCE7A2
:1022F0000920FAE71020F8E72DE9F84FB0F806A01A
:102300004579D2F800B09DF828900AFB05F5043D08
:1023100088460BEB0301A94203F1040488BFA5EB37
:10232000030BB4FBFAF607460AFB1644C2F800B0EA
:102330004EB9AAEB04055D4528BF5D46BBF1000F11
:1023400004D1BDE8F88F3F68013EF1E7043408EBA3
:1023500006003C442A46B9F1000F0DD02146ABEBF4
:10236000050B01F018F9DA452E443F6855464FF049
:10237000000428BF5D46E1E701462046EFE71FB5B0
:1023800003920122009203AAFFF7B6FF05B05DF8A1
:1023900004FB026813685268934291BFD01A8068A8
:1023A0000130801888BFC01A704710B5044600205D
:1023B000FEF72AFA2046FFF7ECFF04460020FEF75E
:1023C00025FA204610BD00002DE9F04F8368D3F8B0
:1023D0004831C3F340059B078BB0074606D5002262
:1023E00011460BB0BDE8F04FFFF75ABA012906D9E4
:1023F000214A02210BB0BDE8F04FFFF71DBA1F4C78
:102400001F4EDFF88090DFF880A0DFF880B0361B29
:102410001823B6FBF3F6AE4202D10BB0BDE8F08F45
:10242000E36808932368D4F808809A6809922046E4
:10243000FFF7BBFF099A94F810E0642303FB00FC4C
:10244000BEF1000F0CBFCE46D6465343B3FBF8F3A4
:10245000CDE90432BCFBF8F1089B0191CDE90208FB
:102460000093CDE9068E63695A4608213846FFF786
:10247000E3F901351834CEE7AC370000FC36000034
:1024800014370000AF3E0000B83E0000C43E00001C
:10249000036898687047036800229A60704770B5B7
:1024A000446806460D46206818B1B3682946984727
:1024B00018B923682B60256070BD2468F3E7436872
:1024C000186808B102681A60704743681868704756
:1024D0004368186800B97047884203D102681A60DF
:1024E0000120704703460068F4E700004FF4A06342
:1024F00000FB0330084B1A18A0F5806030B5034488
:10250000064C03F580619342A1EB030003D253F81C
:10251000045BA542F7D030BD000200200ED0ADDE36
:102520002DE9F04F374FDFF80C91DFF80CB185B093
:10253000044600250020FEF767F93E685FFA85FA39
:1025400026B17E68304B002E08BF1E460020FEF7E5
:102550005DF9002E42D05046FFF7C8FF2B465A4681
:10256000082180462046FFF767F9284A33460821AC
:102570002046FFF761F909F5807309F2FF42B8F1CF
:10258000000F35D0642000FB08F04FF48061800A12
:10259000CDE90020CDE902811D4A08212046FFF740
:1025A0004BF91C4B1B78534529D01B4B1A684FF035
:1025B0000043EB401342194A194B08BF1346194A0E
:1025C00008212046FFF738F90E4A0C2303FB0523A8
:1025D00008219B68144A2046FFF72EF90135032D88
:1025E00007F10C0709F5A069A4D105B0BDE8F08F8B
:1025F000009208210D4A2046FFF71EF9D1E70C4B47
:10260000DDE700BF00110020A03F0000CD3F00002B
:10261000DB3F0000980100209C010020B83F000033
:10262000AF3F00002D4000003A4000001540000080
:10263000A73F000000020020C23F000038B5074C51
:10264000051E04F1080318BF1C4623682BB11A6845
:1026500022605B6828469847F7E738BD2C110020B8
:1026600020B9054B01225A70FFF7E8BF012802D1BB
:10267000014A9070F8E770472411002038B50C4CDF
:1026800023789BB90B486360A3602361E36000F08B
:1026900049F8054600F052F801232370064BD3F8A1
:1026A00000340BB10123A370284638BD8525F5E71A
:1026B00024110020612600000000014038B5134CB1
:1026C000A378054603F0FF0073B115B16B680120D4
:1026D00098470020FEF798F8E3680133E360002094
:1026E000BDE83840FEF792B8FEF78EF825B12269B2
:1026F00013463BB92A602561E368002BECD100F05A
:1027000033F8E9E79D42F7D01B68F2E72411002077
:1027100000F18040002382B0036003680193019BB5
:1027200002B07047044A137923B9012110609180E7
:10273000184670478520704788110020084B1A689A
:10274000D20704D4C02283F8002301221A604FF07C
:1027500080420123C2F81835024A1370704700BF47
:1027600000E100E09011002038B54FF48270FFF7CF
:10277000CFFF4FF080430222C3F804230A4AD068F7
:1027800040F08073D360094B1C6844F0010119606C
:102790005D685968491BB1F50A5FFAD31C60044BA8
:1027A000D06001221A6038BDF0ED00E0001000E0BA
:1027B00008000040124B1B6810B573B14FF48070D5
:1027C000FFF7A6FF4FF080430122C3F808230D4B0B
:1027D000587910B95A711B6898470B4B1B6873B135
:1027E0004FF48270FFF794FF4FF080430222C3F84A
:1027F0000823044BBDE810401B680120184710BD9A
:1028000000010040881100200401004000F18040D8
:1028100000F5C040002382B0036003680193019B70
:1028200002B07047800000F1A040D0F8002722F4E9
:102830004032C0F80027D0F8003743EA0141C0F821
:10284000001770472DE9F74F00244E4D01944FF4C7
:102850008072012102F1804303F5C04390B21B68EE
:10286000012B06D1D5F804330B4202D0FFF7CEFF7F
:102870000C430432B2F5907F4FEA4101EAD1424B5A
:102880001B68012B0CD14FF4BE70FFF7BFFF4FF058
:10289000A04344F00044D3F820250192C3F820253A
:1028A00014F0FF0F1AD0394F01260025344210D002
:1028B000AB0003F1804303F5C043D3F81005D3F810
:1028C000101557F8253023B1C1F30141C0F304209E
:1028D00098470135082D4FEA4606E7D1002C48DA23
:1028E0002A4D4FF0A0482A4E4FF00009012716F953
:1028F000013B5A1C31D0C3F3C20202A90A44DCB224
:1029000012F8042C03F03F0A03F0070307FA03F35D
:102910001A4222D00AF5E073504658F82330C3F328
:10292000014BBBF1020F0CBF03210221FFF77AFF1D
:1029300007FA0AF3C8F8203505EB0A0393F930309B
:1029400055F823304BB1A109032904D0BBF1020F84
:1029500012D1012901D15046984709F10109B9F175
:10296000040FC4D1D8F820350193C8F82035002BC6
:10297000B9D103B0BDE8F08FBBF1030FEDD102294F
:10298000E8E700BF006000407C6100409411002037
:10299000E4110020F0B5394B394C1A6885B07AB192
:1029A00000221A601B680093009B637943F00803C0
:1029B00003F01202122A637104BF43F02003637113
:1029C000304B1A687AB100221A601B680193019B90
:1029D000637943F0040303F01102112A637104BF09
:1029E00043F020036371284B1A68B2B100251D60C3
:1029F0001B680293029B254B25480422C3F8082339
:102A00002946C3F80055236898472368214829467A
:102A100098470123237105B0F0BD637903F00F02DD
:102A20000F2A08D0D80701D4190704D46279920775
:102A3000F1D45B07EFD56279276802F0F30312F057
:102A4000200208D023F0300343F01003637101210A
:102A50000020B847DFE70E4D95E8030002AE86E898
:102A6000030015E9030043F0100385E80300C4E9FF
:102A70000222637101213046EBE700BF145102408E
:102A8000F011002004510240085102400050024061
:102A900000120020F811002000F1804000F5E8301D
:102AA000002382B0036003680193019B02B070476A
:102AB0001FB53C4B3C4C1A68002A47D04FF480703D
:102AC000FFF7EAFFA37CDA4302F0010204EB820184
:102AD000496811B9617C02292DD1607C022818BF98
:102AE00004EB83034FF000010BBF012358686374AC
:102AF00059604FF001038DF80C10E1740EBF029184
:102B00000290A2748DF80430236801A89847637C72
:102B1000022B01D101236374237D53B101238DF86E
:102B20000430002302938DF80C30237501A823682C
:102B3000984704B010BDE37C002BE8D18DF8043039
:102B4000029301238DF80C30E374DDE7174B1B680B
:102B5000002BE1D04FF48270FFF79EFF144BC3F8B7
:102B60000025A37C627404EB83038DF80C20596864
:102B70008DF8042021B15A600291236801A898477A
:102B8000A37CDB4303F0010304EB83035A682AB1FF
:102B9000029200225A6001A8236898470023A37478
:102BA000BAE700BF00D101400812002004D1014063
:102BB00000D0014000F1804382B01A68002A14BF9F
:102BC0000120002004D000221A601B680193019BA1
:102BD00002B070474FF0804310B5D3F8044361074B
:102BE00007D54FF48470FFF7E5FF10B10D4B1B685C
:102BF0009847A20608D54FF48A70FFF7DBFF18B19B
:102C0000094B00201B68984763060AD54FF48C7067
:102C1000FFF7D0FF28B1044BBDE810401B6801202E
:102C2000184710BD201200202412002008B5FFF71D
:102C3000D1FFBDE80840FFF7BDBD0000014B1B6898
:102C4000184700BF28120020014B1B68184700BF1F
:102C500030120020014B1B68184700BF38120020BB
:102C6000014B1B68184700BF40120020014B1B6836
:102C7000184700BF481200200023435082B0435839
:102C80000193019B02B07047D0F8103170B5054632
:102C90000C4653B14FF48871FFF7EEFF63795A0782
:102CA00003D523680BB101209847D5F814315BB1E7
:102CB0004FF48A712846FFF7DFFF63791B0703D5BE
:102CC00023680BB102209847D5F81C315BB1284628
:102CD0004FF48E71FFF7D0FF607910F0100002D131
:102CE000236803B19847D5F8043163B14FF482717A
:102CF0002846FFF7C1FF0123237123681BB1BDE8FC
:102D000070400320184770BD01490248FFF7BCBF5F
:102D10005012002000C0014001490248FFF7B4BF33
:102D2000581200200010024001490248FFF7ACBFD2
:102D300060120020002002407FB52B4B1A68BAB108
:102D40002A4AD2F80413C80712D5002119601B685B
:102D50000193019B4FF48073ADF81030D2F80C351D
:102D60008DF81230224B06AA12E903001B6898471F
:102D7000204A1368DBB11D4BD3F80413890716D51D
:102D80000021116012680292029A4FF48272ADF82B
:102D90001020D3F81825D3F84835ADF81430144B6B
:102DA000ADF8122006AA12E903001B689847124BDF
:102DB0001A68B2B10D4AD2F80423520711D5002285
:102DC0001A601B680393039B4FF48473ADF81030B3
:102DD00006AA074B12E903001B6807B05DF804EB75
:102DE000184707B05DF804FB0021014000200140B6
:102DF000681200200421014008210140074B0022F5
:102E00001A6082B01B680193019B054BD3F808053B
:102E1000044B1B68C0B202B0184700BF00D100408D
:102E200000D000406C1200200023435082B0435871
:102E30000193019B02B070472DE9F047DFF89480C1
:102E400004460E4691464FF48037002500F5A07ADF
:102E5000D4F80433A90001F5A0713B4289B20DD02A
:102E60005AF8253053B1C4F848732046C4F80873A3
:102E7000FFF7DAFF58F82630E8B298470135A94540
:102E80004FEA4707E4D1D4F80433DA070CD5D4F875
:102E900000314BB120464FF48071FFF7C5FF0D4B59
:102EA000042053F826309847D4F804339B070ED5F6
:102EB000D4F804315BB120464FF48271FFF7B4FFC0
:102EC000044B052053F82630BDE8F0471847BDE80D
:102ED000F08700BF70120020024803220021FFF794
:102EE000ABBF00BF00B00040024804220121FFF741
:102EF000A3BF00BF0040024000F1804000F5E04069
:102F0000002382B0036003680193019B02B0704705
:102F1000F0B5504B504C1B6885B0002B3DD04FF4A2
:102F2000827094F82E20FFF7E7FF2AB394F82F3031
:102F300013BB4A4B1B68002B33D04FF48070FFF754
:102F4000DBFF638B94F82D108B424FD922895B1ADB
:102F50009BB292B26383D31A626802EB4303404A86
:102F6000C2F82C36C2F830164FF48270FFF7C4FF57
:102F70003C4B01221A6014E0636802932389ADF888
:102F80000C30E36800218DF8041023BB2374236800
:102F900001A89847002384F82F3094F82E30002B96
:102FA000C7D1314B1B685BB14FF48870FFF7A4FFAA
:102FB0000023237402238DF8043001A82368984766
:102FC0002A4B1B68EBB14FF48A70FFF795FF002383
:102FD000237405B0F0BD208B608363602081E160C5
:102FE000002AD4D11E4B01221A60D0E7BCD1E3687D
:102FF000012284F82F2013B100226283AFE763839C
:10300000B2E766694FF000470125002EE1D0B6FA1D
:1030100086F227FA02F34632920026EA030602F10C
:10302000804303F5E0431B68002BEED01046FFF70A
:1030300063FFA2F58C72D30882F00402C2F380020F
:103040008DF808308DF8045023688DF8092001A808
:103050009847DAE7047100407812002000710040C0
:103060000070004004700040107100401471004076
:1030700030B4064A52F82040054A002532F81010B4
:1030800022F81050234630BC184700BFB41200206D
:10309000A81200200020FFF7EBBF0120FFF7E8BFD8
:1030A0000220FFF7E5BF0320FFF7E2BF0420FFF790
:1030B000DFBF0520FFF7DCBF2DE9F34700240646FC
:1030C0000F46904600F5A0754FF48039A2462B6854
:1030D0008BB1D6F8043309FA04F21A420BD0C5F8C2
:1030E00000A02B680193A000019B00F5A07398B28B
:1030F000D7E9003198470134A04505F10405E6D130
:1031000002B0BDE8F0870000024903480422FFF73F
:10311000D3BF00BFCC12002000800040024903480A
:103120000422FFF7C9BF00BFD81200200090004062
:10313000024903480422FFF7BFBF00BFE41200208A
:1031400000A00040024903480622FFF7B5BF00BFB8
:10315000F012002000A00140024903480622FFF7B8
:10316000ABBF00BFFC12002000B0014013B5064CFD
:1031700023683BB1054B1B689847002323602368F5
:103180000193019B02B010BD000101400813002013
:103190004FF0A042D2F80435D94301F4003103F4D2
:1031A0000033C2F80815C2F80C35704708B54FF067
:1031B000A0430322C3F84427FFF760FA08B1FDF7E4
:1031C00007F90020FFF77AFAFDF7BCF908B1FDF71F
:1031D000FFF8074A07480121FDF7E6F908B1FDF7B6
:1031E000F7F80548002240F26661FDF7EFF9FEE7C7
:1031F00091310000C440000038000020044B1868E2
:10320000421C04BF034B1878831F58425841704733
:1032100030010010E00F00F0074B1B78062B09D19E
:10322000064B1B68C3F30313033B042B02D8044A69
:10323000D05C704700207047E00F00F0E80F00F00E
:10324000D7400000024AD2F80034002BFBD0704770
:1032500000E0014010B5FFF7D1FF28B1874B884A45
:103260001B68C3F304231360FFF7D6FF10B1854B2F
:10327000854A1A60FFF7C2FF28B1844B844A1B6855
:10328000C3F342331360FFF7C7FF20B1814AD3680D
:1032900023F08073D360FFF7B1FF40B14FF080435C
:1032A0000022C3F80C21C3F81021C3F83825FFF71A
:1032B000B3FF10B1784B03221A60FFF7ADFF40B1A6
:1032C000764B05221A6001229A6700229A603F22FB
:1032D0005A60734B1A68511C0BBF724B724B1A78B1
:1032E0001B6802BF08331B68C3F30313062A4DD1C2
:1032F000033B042B03D86D4AD35C002B46D04FF020
:1033000080526B4BD2F80414C3F82015D2F808147D
:10331000C3F82415D2F80C14C3F82815D2F81014E9
:10332000C3F82C15D2F81414C3F83015D2F81814B9
:10333000C3F83415D2F81C14C3F84015D2F8201481
:10334000C3F84415D2F82414C3F84815D2F8281449
:10335000C3F84C15D2F82C14C3F85015D2F8301419
:10336000C3F85415D2F83414C3F86015D2F83814E1
:10337000C3F86415D2F83C14C3F86815D2F84014A9
:10338000C3F86C15D2F84424C3F87025FFF736FF54
:1033900028B1484B484A1B6803F04F031360FFF7FE
:1033A0002DFF48B14FF08043D3F80024D20744BF2B
:1033B0006FF00102C3F80024394B1B68062B0CD1B7
:1033C000394B1B68033B042B02D83C4AD35C23B126
:1033D0003B4A136843F4806313603A4AD2F888305A
:1033E00043F47003C2F88830BFF34F8FBFF36F8F81
:1033F0002B4B1B68062B0FD12B4B1B68033B042B5D
:1034000002D8314AD35C3BB14FF01023D3F80822E5
:103410004FF08043C3F858254FF01023D3F8002213
:10342000002A03DBD3F80432002B22DA27490123D8
:10343000C1F80435FFF706FF4FF010201524C0F83F
:103440000042FFF7FFFEC0F80442FFF7FBFE002337
:10345000C1F80435FFF7F6FEBFF34F8F19491C4B37
:10346000CA6802F4E0621343CB60BFF34F8F00BF22
:10347000FDE7184B184A1A6010BD00BF2403001066
:103480004035014074C007400DF0ADBA4402001051
:103490003C050040F0ED00E0A00500401056004063
:1034A00030010010E00F00F034010010C8400000AF
:1034B00000C0004058020010E40E0040CD40000063
:1034C0003C17004000ED00E0D240000000E0014069
:1034D0000400FA05580000200090D0037F2805D88A
:1034E000034B185C034B5B5C18407047002070472F
:1034F000E840000068410000A0F16103192B98BF6B
:1035000020387047A0F14103192B98BF2030704735
:103510007F2805D8034B185C034B5B5C1840704751
:1035200000207047E840000068410000A0F16103FE
:10353000192B98BF20387047A0F14103192B98BF71
:10354000203070477F299ABF017001206FF02E0054
:1035500070475AB10A787F2A0AD800B10260002168
:1035600019605960501A18BF012070470020704739
:103570006FF02E007047000008B5034B5B689B6836
:103580001B68984708BD00BF5C00002008B50821F3
:10359000FFF7F2FF08BD844640EA010313F0030F72
:1035A00018D18446202A0BD32DE9F007B1E8F8079B
:1035B000A0E8F807A2F12002202AF7D2BDE8F00720
:1035C000042A07D351F8043B40F8043BA2F104025B
:1035D000042AF7D2002A05D011F8013B00F8013B7C
:1035E000013AF9D1604670478446002A2DD010F088
:1035F000030F04D000F8011B013A26D0F7E7C9B247
:1036000041EA012141EA0141202A12D3A2F120021C
:103610002DE9F0030B460C460D460E460F46884634
:103620008946A0E8FA03203AFBD2BDE8F003203235
:103630000BD0042A05D340F8041B043A05D0042A11
:10364000F9D200F8011B013AFBD16046704710F037
:10365000030F19D111F0030F16D12DE970004FF0AF
:1036600001364FF0803350F8044B51F8045BAC4204
:1036700005D1A4EB060525EA04051D40F3D0A0F111
:103680000400A1F1040170BC10F8012B11F8013BFA
:10369000D21A01D1002BF7D11046704700F1010179
:1036A00010F0030F11D010F8012B002A23D010F0D6
:1036B000030F0AD010F8012B002A1CD010F0030FC2
:1036C00003D010F8012B002A15D02DE970004FF01F
:1036D00001324FF0803350F8044BA4EB020525EA89
:1036E00004051D4000D1F6E7A0F1040070BC10F8FD
:0C36F000012B002AFBD1A0EB0100704769
:1036FC007C11002038110020400000000100000067
:08370C0000000000B8400000BD
:1037140000000000C4380000000000008C3E0000DF
:10372400000000007C3E0000000000006C3E000031
:10373400000000005C3E000000000000683F000044
:0837440000000000A840000095
:10374C00000000000000000021120000000000003A
:04375C000000000069
:103760000000000000000000000000000000000059
:0C3770000000000000000000000000004D
:10377C000100060000000000700000202104000081
:10378C00000000000338FDD8704700000000FFFF68
:10379C00DEC0ADDEFE011EF1DEC0ADDEFF011EF1AE
:1037AC0042616420617267756D656E7420636F751C
:1037BC006E740025730D0A092D20456C656D656EC0
:1037CC00742073697A653A092564202B20256420BE
:1037DC006279746573206F66206465627567206911
:1037EC006E666F726D6174696F6E0D0A092D2055CE
:1037FC00736167653A092575252520282575206F85
:10380C007574206F6620257520656C656D656E740A
:10381C0073290D0A092D204D6178696D756D3A0972
:10382C002575252520282575206F7574206F662039
:10383C00257520656C656D656E7473290D0A0D0A0E
:10384C000062616C6C6F6300436F6D6D616E6473CD
:10385C0020666F722042414C4C4F43206D616E616B
:10386C0067656D656E740073746174757300507266
:10387C00696E7420737461747573206F6620626155
:10388C006C6C6F6320696E7374616E6365732E006C
:10389C0000000000A4380000733800007A380000E3
:1038AC0000000000BD13000000000000000000003C
:1038BC0000000000000000004D38000054380000EB
:1038CC009C380000BD1300001B5B256443001B5B90
:1038DC00256444001B5B256441001B5B256442008E
:1038EC002563006E6F74207465726D696E6174650A
:1038FC00643A2025630A003A20636F6D6D616E6433
:10390C00206E6F7420666F756E64002D68002D2D0F
:10391C0068656C7000506C656173652073706563CD
:10392C00696679206120737562636F6D6D616E6479
:10393C002E0A005461622066756E6374696F6E3A6C
:10394C0020636F6D6D616E647320636F756E74654B
:10395C0072206F766572666C6F7765642E0A002034
:10396C0020000A25732573000A2573004F707469B3
:10397C006F6E733A0A002020252D2A733A00536883
:10398C006F7720636F6D6D616E642068656C702E4F
:10399C0000202025732573257300537562636F6DAA
:1039AC006D616E64733A0A0025733A2077726F6EFC
:1039BC006720706172616D6574657220636F756EDE
:1039CC00740A0025733A257325730A0020756E6BF3
:1039DC006E6F776E20706172616D657465723A20DE
:1039EC00004E6F20726573706F6E73652066726F18
:1039FC006D20746865207465726D696E616C2C2025
:103A0C00617373756D65642038307832342073635C
:103A1C007265656E2073697A650A005B2533645D97
:103A2C002025730A006F6E006F6666004563686F31
:103A3C00207374617475733A2025730A004C6F738C
:103A4C0074206C6F67733A2025750A4D6178206C71
:103A5C006F67207175657565207574696C697A611D
:103A6C0074696F6E3A2025752525205B25752F25E9
:103A7C00755D0A00726573697A6500436F6E736FCA
:103A8C006C652067657473207465726D696E616C0A
:103A9C002073637265656E2073697A65206F72207E
:103AAC00617373756D657320383020696E206361A6
:103ABC0073652074686520726561646F7574206627
:103ACC0061696C732E204974206D75737420626566
:103ADC002065786563757465642061667465722011
:103AEC0065616368207465726D696E616C207769BD
:103AFC00647468206368616E676520746F20656EFE
:103B0C007375726520636F72726563742074657867
:103B1C007420646973706C61792E00686973746FBA
:103B2C00727900436F6D6D616E6420686973746F98
:103B3C0072792E00636C690055736566756C2C2068
:103B4C006E6F7420556E69782D6C696B6520434CD3
:103B5C004920636F6D6D616E64732E00636C6561DB
:103B6C007200436C6561722073637265656E2E0022
:103B7C0064656661756C7400417373756D6520388E
:103B8C00302063686172732073637265656E207791
:103B9C006964746820616E642073656E6420746857
:103BAC0069732073657474696E6720746F20746810
:103BBC0065207465726D696E616C2E00636F6C6F3D
:103BCC00727300546F67676C6520636F6C6F7265FE
:103BDC00642073796E7461782E006563686F00548D
:103BEC006F67676C6520434C49206563686F2E00D6
:103BFC00737461747300434C4920737461746973FA
:103C0C00746963732E007265736574005265736515
:103C1C007420434C492073746174697374696373C1
:103C2C0020666F7220746865204C6F676765722020
:103C3C006D6F64756C652E0073686F7700476574E3
:103C4C0020434C49207374617469737469637320E5
:103C5C00666F7220746865204C6F67676572206DA3
:103C6C006F64756C652E0044697361626C652043EA
:103C7C004C49206563686F2E204172726F777320F8
:103C8C00616E6420627574746F6E733A2042616366
:103C9C006B73706163652C2044656C6574652C20B6
:103CAC00456E642C20486F6D652C20496E736572CF
:103CBC007420617265206E6F742068616E646C652F
:103CCC00642E00456E61626C6520434C492065632F
:103CDC00686F2E0044697361626C6520636F6C6F52
:103CEC007265642073796E7461782E00456E616222
:103CFC006C6520636F6C6F7265642073796E746190
:103D0C00782E001B5B6D001B5B48001B5B324A006E
:103D1C001B5B3F336C001B5B366E00202D200000BC
:103D2C00000000000338FDD870472D682C202D2D85
:103D3C0068656C7000000000000000004C3D000045
:103D4C00C83B0000CF3B0000C43D0000711B0000CD
:103D5C00E63B0000EB3B0000FC3D0000C51D0000F5
:103D6C00FC3B0000023C00008C3D0000B11B00003D
:103D7C000000000000000000000000000000000037
:103D8C0000000000943D0000123C0000183C0000B4
:103D9C00000000002D1E0000443C0000493C0000C7
:103DAC0000000000551E0000000000000000000094
:103DBC00000000000000000000000000CC3D0000EE
:103DCC00343A0000E03C000000000000451D0000FB
:103DDC00313A0000F83C000000000000651D0000B6
:103DEC0000000000000000000000000000000000C7
:103DFC0000000000043E0000343A0000733C000058
:103E0C0000000000851D0000313A0000CF3C00008E
:103E1C0000000000A51D00000000000000000000D4
:103E2C000000000000000000000000003C3E00000C
:103E3C007C3B0000843B000000000000F51B0000F0
:103E4C000000000000000000000000000000000066
:103E5C00683B00006E3B000000000000D91A000017
:103E6C00403B0000443B0000443D0000191B000097
:103E7C00273B00002F3B000000000000D51C000079
:103E8C00803A0000873A0000343E0000211C0000FC
:103E9C002C200030313233343536373839414243F7
:103EAC004445464F766572666C6F77004E6F206F97
:103EBC00766572666C6F770025730D0A092D2045A7
:103ECC006C656D656E742073697A653A0925640DAD
:103EDC000A092D2055736167653A0925752525203A
:103EEC00282575206F7574206F6620257520656CEC
:103EFC00656D656E7473290D0A092D204D61786905
:103F0C006D756D3A092575252520282575206F7549
:103F1C0074206F6620257520656C656D656E7473F5
:103F2C00290D0A092D204D6F64653A090925730D79
:103F3C000A0D0A007175657565005072696E742002
:103F4C00737461747573206F662071756575652067
:103F5C00696E7374616E6365732E0000403F0000E0
:103F6C0054380000783F0000C92300000000000016
:103F7C00803F000073380000463F00000000000046
:103F8C00C923000000000000000000000000000039
:103F9C00000000003C4E554C4C3E0052756E6E6954
:103FAC006E670052756E6E61626C6500537573704E
:103FBC00656E646564005461736B2025753A0D0A57
:103FCC0000094E616D653A09272573270D0A000912
:103FDC00537461636B3A093078253038582D30783A
:103FEC0025303858207573656420696E2025752539
:103FFC002520282575206F7574206F662025752067
:10400C006279746573290D0A0009537461636B3A04
:10401C00093078253038582D3078253038580D0A2D
:10402C00000953746174653A0925730D0A00094639
:10403C006C6167733A093078253038580D0A0D0ACF
:10404C00007461736B5F6D616E6167657200636FA5
:10405C006D6D616E647320666F72207461736B207A
:10406C006D616E61676572007461736B7320696E4C
:10407C00666F000000000000884000007A400000DD
:10408C00744000000000000021250000000000002A
:10409C000000000000000000000000004D40000087
:1040AC005A40000080400000000000006D5F72610B
:1040BC006E645F706F6F6C003800002000000101AF
:1040CC0001000000010100000000010100000000DF
:1040DC0043000000504F534958000000202020207E
:1040EC00202020202068282828282020202020205C
:1040FC0020202020202020202020202048101010BC
:10410C0010101010101010101010101084848484D3
:10411C008484848484841010101010101081818188
:10412C0081818101010101010101010101010101F3
:10413C000101010101010110101010101082828286
:10414C0082828202020202020202020202020202C3
:10415C0002020202020202101010102000070320BB
:10416C00041702010857104080000000DC400000DA
:10417C00E0410000F442000053756E004D6F6E007C
:10418C005475650057656400546875004672690083
:10419C0053617400000000004A616E0046656200C5
:1041AC004D617200417072004D6179004A756E006C
:1041BC004A756C0041756700536570004F6374005D
:1041CC004E6F76004465630000000000414D0050C6
:1041DC004D0000001843000014430000144300007D
:1041EC001443000014430000144300001443000067
:1041FC00144300001443000014430000FFFFFFFFB2
:10420C00FFFFFFFFFFFFFFFFFFFF00005442000016
:10421C008441000090420000A4410000D8410000FD
:10422C0038420000E842000044420000256D2F2572
:10423C00642F25790000000025612025622025656A
:10424C00202554202559000053756E646179004D6A
:10425C006F6E64617900547565736461790057659C
:10426C00646E657364617900546875727364617906
:10427C000046726964617900536174757264617986
:10428C00000000004A616E756172790046656272C9
:10429C0075617279004D6172636800417072696C6E
:1042AC00004D6179004A756E65004A756C79004164
:1042BC0075677573740053657074656D6265720013
:1042CC004F63746F626572004E6F76656D626572D6
:1042DC0000446563656D62657200000025483A25EF
:1042EC004D3A255300000000DD340000F934000085
:1042FC0005350000113500002D3500003935000062
:10430C004535000053350000000000002E00000071
:10431C00001001401100040000000000000000002B
:10432C00FFFFFFFFFFFFFFFF000000000000000089
:10433C0000000000000000000090D0037841000055
:10434C00784100007841000078410000784100007D
:040000030000037581
:00000001FF
