:1000000000000120750300005D0300005F03000095
:1000100061030000630300006503000000000000AE
:100020000000000000000000000000006703000066
:1000300069030000000000006B0300006D03000076
:100040006F0300006F0300006F0300006F030000E8
:100050006F0300006F030000D10700006F03000072
:10006000D90900006F0300006F0300006F03000058
:100070006F0300006F0300006F0300006F030000B8
:100080006F0300006F0300006F0300006F030000A8
:100090006F0300006F0300006F0300006F03000098
:1000A0006F0300006F0300006F0300006F03000088
:1000B0006F0300006F03000000000000000000005C
:1000C0006F0300006F0300006F0300006F03000068
:1000D0006F0300006F0300006F03000000000000CA
:1000E0000000000000000000000000000000000010
:1000F0000000000000000000000000000000000000
:1001000000000000000000000000000000000000EF
:1001100000000000000000000000000000000000DF
:1001200000000000000000000000000000000000CF
:1001300000000000000000000000000000000000BF
:1001400000000000000000000000000000000000AF
:10015000000000000000000000000000000000009F
:10016000000000000000000000000000000000008F
:10017000000000000000000000000000000000007F
:10018000000000000000000000000000000000006F
:10019000000000000000000000000000000000005F
:1001A000000000000000000000000000000000004F
:1001B000000000000000000000000000000000003F
:1001C000000000000000000000000000000000002F
:1001D000000000000000000000000000000000001F
:1001E000000000000000000000000000000000000F
:1001F00000000000000000000000000000000000FF
:10020000354936480A1A02D0072291438D463449AF
:1002100034480A1A06D00722914381F30988022242
:1002200082F3148830483149314A00F044F83148AB
:100230003149324A00F03FF831483249324A00F041
:100240003AF832483249334A00F035F832483349F7
:10025000334A00F030F833483349344A00F02BF881
:1002600033483449344A00F026F8344834490022EF
:1002700000F02CF833483449002200F027F83348C6
:100280003349091A082902DB002202604160314A21
:1002900090471F481F49884205D00268043003B4C4
:1002A000904703BCF7E700208646EC46002000217B
:1002B000294A9047FEE7884207D0521A05D00378B2
:1002C00001300B700131013AF9D17047884202D0F8
:1002D00002700130FAE770470000012000E00020C2
:1002E0000000012000000120440E0000000000205A
:1002F00004000020D0030000D0030000280E0000FE
:10030000440E00000000002000000020280E000025
:10031000280E0000280E0000280E0000280E000005
:10032000280E0000280E0000280E0000440E0000D9
:10033000480E0000040000200400002004000020FB
:10034000690000206C0000206C0000206C00002080
:100350006C2000209D030000310A0000FEE7FEE74C
:10036000FEE7FEE7FEE7FEE7FEE7FEE7FEE7FEE765
:1003700000F002B8FFF7FCBF0F484FF007018843B9
:1003800085460E4880470E48016841F470010160BF
:10039000BFF34F8FBFF36F8FFFF732BF09480A4992
:1003A0000A4A884207D0521A05D0037801300B70F0
:1003B0000131013AF9D1704700000120390B0000EA
:1003C00088ED00E0280E0000000000200000002062
:1003D0001FB50021039001AA44F20100CDE90111EB
:1003E00000F004F805B05DF804FB000072B6094B9C
:1003F0001B68DB0700D500BEBFF34F8F0649074BD4
:10040000CA6802F4E0621343CB60BFF34F8F00BFB2
:10041000FDE700BFF0ED00E000ED00E00400FA05AC
:1004200072B6024A1368013313607047040000205B
:10043000034A1368013B136003B962B6704700BFFB
:1004400004000020FFF7ECBFFFF7F2BF034B187862
:1004500010B901221A7070478520704708000020EB
:1004600000F1804000F5C040002382B003600368C3
:100470000193019B02B07047800000F1A040D0F8CA
:10048000002722F44032C0F80027D0F8003743EAB2
:100490000141C0F800177047054B4FF0FF320728A5
:1004A00043F8202084BFC01880F83C20704700BF6C
:1004B0000C00002010B51A4C94F849306BBB4FF07B
:1004C000FF3222FA03F1C90748BFE11803F1010323
:1004D00048BF81F82420202BF3D10021C8B2FFF7B8
:1004E000DBFF01310929F9D1042200210D4800F078
:1004F00067FC0D4BC02283F8062340221A604FF49C
:10050000BE70FFF7ADFF094B4FF00042C3F8042364
:10051000012384F84930002010BD0820FCE700BF0B
:100520000C0000205100002000E100E000600040CD
:1005300030B52E4B1A1892F92440013453D18C78DF
:10054000002C4CD01C46002254F8045B013541D1EC
:100550001C1884F82420002443F82240920002F161
:10056000804202F5C0420B78D2F810554C7825F441
:1005700098151B04240525F4F85504F4801403F49D
:100580004033C2F8105523430402D2F8105504F446
:10059000F85423432B43C2F810354A780123012A2B
:1005A0004FF0A04203FA00F30CBFC2F80835C2F8BE
:1005B0000C3500F5E073032142F82310C2080C4902
:1005C000012300F0070003FA00F08B5C1843885405
:1005D000002003E00132082AB6D1042030BDFE23FA
:1005E00082F82430D9E70820F8E700BF0C0000208B
:1005F00051000020074B184490F924309B0003F170
:10060000804303F5C043D3F8102542F00302C3F83A
:10061000102570470C000020054B184490F9240069
:100620008000C0B200F1804000F5C040704700BFBC
:100630000C000020F0B5364D2C1894F92440002C05
:1006400064DA8C78C4F34004002C0BBF0823002329
:1006500009260826B34201D10420F0BD55F82370C5
:1006600001373FD12E1845F8232086F8243014B9DD
:10067000EA1882F83C008A78540713D4D60733D599
:10068000820002F1A042D2F8004724F00204C2F82E
:100690000047204EC20800F007070124BC40B75CA9
:1006A0003C43B4548A780C7812F0020225D09B00A7
:1006B00003F1804303F5C0430202D3F8101521F47F
:1006C000473121F44071C3F810152404D3F81015F4
:1006D00002F4F85204F4403422430A43C3F81025CC
:1006E0000020BAE70133B5E74C7800F5E0724FF02F
:1006F000A046A40046F82240CBE7083B2B4493F8E1
:10070000441041EA841483F84440E9E70820A4E750
:100710000C0000205100002038B51F4C251895F919
:100720002420072A16DD224492F83C309B09032B33
:100730000BD14FF0A043D3F81015C14001F00101D7
:100740000231BDE83840FFF797BE012B0CBF0221F4
:100750000321F6E7D3B2072B1CD8930003F18043A3
:1007600003F5C043D3F8100540F00100C3F81005AD
:1007700002F14000800080B2FFF772FE51B195F99E
:10078000243054F823302BB1012303FA02F2034B37
:10079000C3F8042338BD00BF0C00002000600040F7
:1007A000064B034493F9240093F82430072B9DBF94
:1007B0004030800080B24FF4BE7070470C000020C3
:1007C00008B5FFF7EDFF00F1804000F5C04008BD1F
:1007D0002DE9F34700244B4D01944FF48072012121
:1007E00002F1804303F5C04390B21B68012B06D190
:1007F000D5F804330B4202D0FFF732FE0C4304322B
:10080000B2F5907F4FEA4101EAD13F4B1B68012BC3
:100810000CD14FF4BE70FFF723FE4FF0A04344F01D
:100820000044D3F820250192C3F8202514F0FF0FCF
:100830001AD0364F01260025344210D0AB0003F108
:10084000804303F5C043D3F81005D3F8101557F8CB
:10085000253023B1C1F30141C0F30420984701358D
:10086000082D4FEA4606E7D1002C1FDA274E4FF03D
:10087000A049374696F944305A1C10D0C3F3C2023F
:1008800002A90A44DCB212F8042C03F03F054FF031
:10089000010A03F007030AFA03F31A4209D1D9F84F
:1008A00020350193C9F82035002BE3D102B0BDE813
:1008B000F08705F5E073284659F82330C3F3014863
:1008C000B8F1020F0CBF03210221FFF7D5FD0AFA90
:1008D00005F3C9F820357B1993F9243057F82330F4
:1008E000002BDCD0A109032904D0B8F1020F04D1F8
:1008F0000129D4D128469847D1E7B8F1030FCED1CA
:100900000229F6E7006000407C6100400C000020F6
:100910002DE9F84F134DDFF8508007464FF0000ADD
:1009200004264FF001095FFA8AFB002009FA0BF454
:10093000FFF788FD2C420AD0D8F8003014EA0302F1
:1009400001BF2343C8F8003087F800B016460020E6
:10095000FFF77AFD1EB1A5430AF1010AE3D1304643
:10096000BDE8F88FFFFF0F005800002010B5A1B1BF
:100970009AB101238340C3F3130484B10A4C246861
:1009800023420ED0C00000F1804000F5F830C0F8DE
:100990001015C0F81425002010BD0E20FCE707201C
:1009A000FAE70820F8E700BF58000020012303FA07
:1009B00000F0C0F313031BB1054B1B68184204D0B1
:1009C000044BC3F80405002070470820704700BF9F
:1009D0005800002000F001402DE9F341104C114F68
:1009E000114E00254FF48038236883B1D7F80433C3
:1009F00008FA05F21A420AD0002323602368019303
:100A0000A4F50040019B80B2D6E90031984701353A
:100A1000042D04F10404E7D102B0BDE8F08100BF69
:100A200040810040008000405C00002070470000D2
:100A30001FB5FFF73FFD08B1FFF7CAFC244B1A882A
:100A40009B78ADF808208DF80A30224A032302A9CA
:100A50000D208DF80930FFF7EDFD08B1FFF7B8FC68
:100A60001D4B03A91A889B78ADF80C2011208DF836
:100A70000E30FFF75DFD08B1FFF7AAFC1120FFF76C
:100A8000B9FD01210D20FFF747FEFFF7DFFC08B19C
:100A9000FFF79EFC1148FFF73BFF08B1FFF798FCFA
:100AA0000D20FFF78DFE01901120FFF7B5FD0B4CD7
:100AB000019902462078FFF759FF08B1FFF788FC3B
:100AC0002078FFF773FF08B1FFF782FCFEE700BF55
:100AD000280E00002D0A00002B0E000068000020E8
:100AE000044B1868421C04BF034B1878831F5842FC
:100AF0005841704730010010E00F00F0074B1B78A1
:100B0000062B09D1064B1B68C3F30313033B042BCD
:100B100002D8044AD05C704700207047E00F00F014
:100B2000E80F00F03D0E0000024AD2F80034002B1E
:100B3000FBD0704700E0014010B5FFF7D1FF28B1AE
:100B4000874B884A1B68C3F304231360FFF7D6FF63
:100B500010B1854B854A1A60FFF7C2FF28B1844B5C
:100B6000844A1B68C3F342331360FFF7C7FF20B109
:100B7000814AD36823F08073D360FFF7B1FF40B19F
:100B80004FF080430022C3F80C21C3F81021C3F8B2
:100B90003825FFF7B3FF10B1784B03221A60FFF737
:100BA000ADFF40B1764B05221A6001229A67002200
:100BB0009A603F225A60734B1A68511C0BBF724BEC
:100BC000724B1A781B6802BF08331B68C3F3031308
:100BD000062A4DD1033B042B03D86D4AD35C002B6E
:100BE00046D04FF080526B4BD2F80414C3F8201556
:100BF000D2F80814C3F82415D2F80C14C3F8281539
:100C0000D2F81014C3F82C15D2F81414C3F8301508
:100C1000D2F81814C3F83415D2F81C14C3F84015D0
:100C2000D2F82014C3F84415D2F82414C3F8481598
:100C3000D2F82814C3F84C15D2F82C14C3F8501568
:100C4000D2F83014C3F85415D2F83414C3F8601530
:100C5000D2F83814C3F86415D2F83C14C3F86815F8
:100C6000D2F84014C3F86C15D2F84424C3F87025A8
:100C7000FFF736FF28B1484B484A1B6803F04F0383
:100C80001360FFF72DFF48B14FF08043D3F80024E5
:100C9000D20744BF6FF00102C3F80024394B1B6830
:100CA000062B0CD1394B1B68033B042B02D83C4A62
:100CB000D35C23B13B4A136843F4806313603A4A20
:100CC000D2F8883043F47003C2F88830BFF34F8FF6
:100CD000BFF36F8F2B4B1B68062B0FD12B4B1B6861
:100CE000033B042B02D8314AD35C3BB14FF01023B5
:100CF000D3F808224FF08043C3F858254FF0102353
:100D0000D3F80022002A03DBD3F80432002B22DAC6
:100D100027490123C1F80435FFF706FF4FF01020E3
:100D20001524C0F80042FFF7FFFEC0F80442FFF7A9
:100D3000FBFE0023C1F80435FFF7F6FEBFF34F8F2B
:100D400019491C4BCA6802F4E0621343CB60BFF33D
:100D50004F8F00BFFDE7184B184A1A6010BD00BF47
:100D6000240300104035014074C007400DF0ADBAB7
:100D7000440200103C050040F0ED00E0A0050040FA
:100D80001056004030010010E00F00F03401001058
:100D90002E0E000000C0004058020010E40E00407B
:100DA000330E00003C17004000ED00E0380E00005C
:100DB00000E001400400FA05000000200090D0038C
:100DC0008446002A2DD010F0030F04D000F8011B38
:100DD000013A26D0F7E7C9B241EA012141EA0141CF
:100DE000202A12D3A2F120022DE9F0030B460C4673
:100DF0000D460E460F4688468946A0E8FA03203A7B
:100E0000FBD2BDE8F00320320BD0042A05D340F812
:100E1000041B043A05D0042AF9D200F8011B013A58
:080E2000FBD1604670470000A1
:100E280002000203010100000101010000000101AC
:0C0E3800000000000101000000000000AC
:040E44000090D00347
:040000030000037581
:00000001FF
