:1000000000000120750300005D0300005F03000095
:1000100061030000630300006503000000000000AE
:100020000000000000000000000000006703000066
:1000300069030000000000006B0300006D03000076
:100040006F0300006F0300006F0300006F030000E8
:100050006F0300006F030000350600006F0300000F
:10006000850900006F0300006F0300006F030000AC
:100070006F0300006F0300006F0300006F030000B8
:100080006F0300006F0300006F0300006F030000A8
:100090006F0300006F0300006F0300006F03000098
:1000A0006F0300006F0300006F0300006F03000088
:1000B0006F0300006F03000000000000000000005C
:1000C0006F0300006F0300006F0300006F03000068
:1000D0006F0300006F0300006F03000000000000CA
:1000E0000000000000000000000000000000000010
:1000F0000000000000000000000000000000000000
:1001000000000000000000000000000000000000EF
:1001100000000000000000000000000000000000DF
:1001200000000000000000000000000000000000CF
:1001300000000000000000000000000000000000BF
:1001400000000000000000000000000000000000AF
:10015000000000000000000000000000000000009F
:10016000000000000000000000000000000000008F
:10017000000000000000000000000000000000007F
:10018000000000000000000000000000000000006F
:10019000000000000000000000000000000000005F
:1001A000000000000000000000000000000000004F
:1001B000000000000000000000000000000000003F
:1001C000000000000000000000000000000000002F
:1001D000000000000000000000000000000000001F
:1001E000000000000000000000000000000000000F
:1001F00000000000000000000000000000000000FF
:10020000354936480A1A02D0072291438D463449AF
:1002100034480A1A06D00722914381F30988022242
:1002200082F3148830483149314A00F044F83148AB
:100230003149324A00F03FF831483249324A00F041
:100240003AF832483249334A00F035F832483349F7
:10025000334A00F030F833483349344A00F02BF881
:1002600033483449344A00F026F8344834490022EF
:1002700000F02CF833483449002200F027F83348C6
:100280003349091A082902DB002202604160314A21
:1002900090471F481F49884205D00268043003B4C4
:1002A000904703BCF7E700208646EC46002000217B
:1002B000294A9047FEE7884207D0521A05D00378B2
:1002C00001300B700131013AF9D17047884202D0F8
:1002D00002700130FAE770470000012000E00020C2
:1002E0000000012000000120080E00000000002096
:1002F0000C000020D0030000D0030000E80D000037
:10030000080E00000000002000000020E80D0000A2
:10031000E80D0000E80D0000E80D0000E80D000009
:10032000E80D0000E80D0000E80D0000080E0000D8
:10033000140E00000C0000200C0000200C00002017
:10034000700000207000002070000020700000206D
:10035000702000209D030000DD090000FEE7FEE79D
:10036000FEE7FEE7FEE7FEE7FEE7FEE7FEE7FEE765
:1003700000F002B8FFF7FCBF0F484FF007018843B9
:1003800085460E4880470E48016841F470010160BF
:10039000BFF34F8FBFF36F8FFFF732BF09480A4992
:1003A0000A4A884207D0521A05D0037801300B70F0
:1003B0000131013AF9D1704700000120F90A00002B
:1003C00088ED00E0E80D00000000002000000020A3
:1003D0001FB50021039001AA44F20100CDE90111EB
:1003E00000F004F805B05DF804FB000072B6094B9C
:1003F0001B68DB0700D500BEBFF34F8F0649074BD4
:10040000CA6802F4E0621343CB60BFF34F8F00BFB2
:10041000FDE700BFF0ED00E000ED00E00400FA05AC
:1004200072B6024A13680133136070470C00002053
:10043000034A1368013B136003B962B6704700BFFB
:100440000C000020FFF7ECBFFFF7F2BF034B18785A
:1004500010B901221A7070478520704710000020E3
:1004600000F1804000F5C040002382B003600368C3
:100470000193019B02B07047800000F1A040D0F8CA
:10048000002722F44032C0F80027D0F8003743EAB2
:100490000141C0F800177047054B4FF0FF320728A5
:1004A00043F8202084BFC01880F83C20704700BF6C
:1004B0001400002010B51A4C94F849306BBB4FF073
:1004C000FF3222FA03F1C90748BFE11803F1010323
:1004D00048BF81F82420202BF3D10021C8B2FFF7B8
:1004E000DBFF01310929F9D1042200210D4800F078
:1004F00047FC0D4BC02283F8062340221A604FF4BC
:10050000BE70FFF7ADFF094B4FF00042C3F8042364
:10051000012384F84930002010BD0820FCE700BF0B
:10052000140000205900002000E100E000600040BD
:1005300030B52E4B1A1892F92440013453D18C78DF
:10054000002C4CD01C46002254F8045B013541D1EC
:100550001C1884F82420002443F82240920002F161
:10056000804202F5C0420B78D2F810554C7825F441
:1005700098151B04240525F4F85504F4801403F49D
:100580004033C2F8105523430402D2F8105504F446
:10059000F85423432B43C2F810354A780123012A2B
:1005A0004FF0A04203FA00F30CBFC2F80835C2F8BE
:1005B0000C3500F5E073032142F82310C2080C4902
:1005C000012300F0070003FA00F08B5C1843885405
:1005D000002003E00132082AB6D1042030BDFE23FA
:1005E00082F82430D9E70820F8E700BF1400002083
:1005F00059000020074B184490F924309B0003F168
:10060000804303F5C043D3F8102542F00302C3F83A
:100610001025704714000020054B184490F9240061
:100620008000C0B200F1804000F5C040704700BFBC
:10063000140000202DE9F34700244B4D01944FF4A2
:100640008072012102F1804303F5C04390B21B6820
:10065000012B06D1D5F804330B4202D0FFF700FF7F
:100660000C430432B2F5907F4FEA4101EAD13F4B8F
:100670001B68012B0CD14FF4BE70FFF7F1FE4FF059
:10068000A04344F00044D3F820250192C3F820256C
:1006900014F0FF0F1AD0364F01260025344210D037
:1006A000AB0003F1804303F5C043D3F81005D3F842
:1006B000101557F8253023B1C1F30141C0F30420D0
:1006C00098470135082D4FEA4606E7D1002C1FDA7E
:1006D000274E4FF0A049374696F944305A1C10D0A7
:1006E000C3F3C20202A90A44DCB212F8042C03F0DC
:1006F0003F054FF0010A03F007030AFA03F31A4219
:1007000009D1D9F820350193C9F82035002BE3D160
:1007100002B0BDE8F08705F5E073284659F82330AC
:10072000C3F30148B8F1020F0CBF03210221FFF708
:10073000A3FE0AFA05F3C9F820357B1993F9243092
:1007400057F82330002BDCD0A109032904D0B8F1DD
:10075000020F04D10129D4D128469847D1E7B8F136
:10076000030FCED10229F6E7006000407C61004013
:10077000140000202DE9F84F134DDFF85080074694
:100780004FF0000A04264FF001095FFA8AFB0020AF
:1007900009FA0BF4FFF756FE2C420AD0D8F80030C5
:1007A00014EA030201BF2343C8F8003087F800B001
:1007B00016460020FFF748FE1EB1A5430AF1010AC4
:1007C000E3D13046BDE8F88FFFFF0F006000002046
:1007D00010B5A1B19AB101238340C3F3130484B1CE
:1007E0000A4C246823420ED0C00000F1804000F57E
:1007F000F830C0F81015C0F81425002010BD0E20E8
:10080000FCE70720FAE70820F8E700BF60000020B7
:10081000012303FA00F0C0F313031BB1054B1B685F
:10082000184204D0044BC3F8040500207047082088
:10083000704700BF6000002000F00140F7B5067966
:100840002F4D0C237343EF183C7A002C55D1EA50FE
:100850004B687B60477903682246A446D4B2A7421E
:100860003CD8CA7843F307345201002CC3F3073352
:10087000D2B23DDB234F07EB040C8CF8002301229E
:10088000640903F01F0302FA03F347F824300368F6
:100890004A78D3F8040502F0030220F00300024373
:1008A000C3F80425D3F808058A7820F0030002F085
:1008B00003020243C3F80825D3F810050A7820F094
:1008C0000F0102F00F020A43C3F810250C2303FBAB
:1008D000065501232B72002003B0F0BD940004F5EF
:1008E000A074013243F804C01C590194019CB5E77F
:1008F000054C03F00F03E254C9E70820ECE700BF02
:100900006400002000E100E014ED00E00368012233
:100910001A600379034A0C2101FB032302221A7295
:10092000704700BF6400002037B54FF48034006882
:100930008C407BB18B0003F5A0730025C550C358D4
:100940000193019BC0F8044301F5A87140F82120F0
:1009500003B030BDC0F80843F6E770B4046840F255
:100960000116D4F800528E4025EA0605C4F800525C
:10097000D4F800522B43C4F800329DF80C3070BC00
:10098000FFF7D2BF2DE9F341104C114F114E002556
:100990004FF48038236883B1D7F8043308FA05F29E
:1009A0001A420AD00023236023680193A4F5004073
:1009B000019B80B2D6E9003198470135042D04F13E
:1009C0000404E7D102B0BDE8F08100BF40810040DF
:1009D00000800040640000207047000000B589B02E
:1009E000FFF768FDFFF732FD08B1FFF7F1FC0DF1ED
:1009F0001300FFF7BFFE08B1FFF7EAFC234B05A980
:100A00001A889B78ADF8142011208DF81630FFF766
:100A10008FFD08B1FFF7DCFC1D4A92E8030006AB2E
:100A200083E803001B4A1C481946FFF707FF08B17B
:100A3000FFF7CEFC184C19492368D3F81025012381
:100A4000D2B221FA02F2009300212046FFF785FF7F
:100A50002168112001F5A0710391FFF7DDFD0399D5
:100A600002469DF81300FFF7B3FE08B1FFF7B0FC94
:100A70009DF81300FFF7CCFE08B1FFF7A9FC112089
:100A8000FFF7B8FD0448FFF741FFFEE7E80D00005F
:100A9000EC0D0000D90900000000002000127A00CF
:100AA000044B1868421C04BF034B1878831F58423C
:100AB0005841704730010010E00F00F0074B1B78E1
:100AC000062B09D1064B1B68C3F30313033B042B0E
:100AD00002D8044AD05C704700207047E00F00F055
:100AE000E80F00F0030E0000024AD2F80034002B99
:100AF000FBD0704700E0014010B5FFF7D1FF28B1EF
:100B0000874B884A1B68C3F304231360FFF7D6FFA3
:100B100010B1854B854A1A60FFF7C2FF28B1844B9C
:100B2000844A1B68C3F342331360FFF7C7FF20B149
:100B3000814AD36823F08073D360FFF7B1FF40B1DF
:100B40004FF080430022C3F80C21C3F81021C3F8F2
:100B50003825FFF7B3FF10B1784B03221A60FFF777
:100B6000ADFF40B1764B05221A6001229A67002240
:100B70009A603F225A60734B1A68511C0BBF724B2C
:100B8000724B1A781B6802BF08331B68C3F3031348
:100B9000062A4DD1033B042B03D86D4AD35C002BAE
:100BA00046D04FF080526B4BD2F80414C3F8201596
:100BB000D2F80814C3F82415D2F80C14C3F8281579
:100BC000D2F81014C3F82C15D2F81414C3F8301549
:100BD000D2F81814C3F83415D2F81C14C3F8401511
:100BE000D2F82014C3F84415D2F82414C3F84815D9
:100BF000D2F82814C3F84C15D2F82C14C3F85015A9
:100C0000D2F83014C3F85415D2F83414C3F8601570
:100C1000D2F83814C3F86415D2F83C14C3F8681538
:100C2000D2F84014C3F86C15D2F84424C3F87025E8
:100C3000FFF736FF28B1484B484A1B6803F04F03C3
:100C40001360FFF72DFF48B14FF08043D3F8002425
:100C5000D20744BF6FF00102C3F80024394B1B6870
:100C6000062B0CD1394B1B68033B042B02D83C4AA2
:100C7000D35C23B13B4A136843F4806313603A4A60
:100C8000D2F8883043F47003C2F88830BFF34F8F36
:100C9000BFF36F8F2B4B1B68062B0FD12B4B1B68A1
:100CA000033B042B02D8314AD35C3BB14FF01023F5
:100CB000D3F808224FF08043C3F858254FF0102393
:100CC000D3F80022002A03DBD3F80432002B22DA07
:100CD00027490123C1F80435FFF706FF4FF0102024
:100CE0001524C0F80042FFF7FFFEC0F80442FFF7EA
:100CF000FBFE0023C1F80435FFF7F6FEBFF34F8F6C
:100D000019491C4BCA6802F4E0621343CB60BFF37D
:100D10004F8F00BFFDE7184B184A1A6010BD00BF87
:100D2000240300104035014074C007400DF0ADBAF7
:100D3000440200103C050040F0ED00E0A00500403A
:100D40001056004030010010E00F00F03401001098
:100D5000F40D000000C0004058020010E40E0040F6
:100D6000F90D00003C17004000ED00E0FE0D000012
:100D700000E001400400FA05080000200090D003C4
:100D80008446002A2DD010F0030F04D000F8011B78
:100D9000013A26D0F7E7C9B241EA012141EA01410F
:100DA000202A12D3A2F120022DE9F0030B460C46B3
:100DB0000D460E460F4688468946A0E8FA03203ABB
:100DC000FBD2BDE8F00320320BD0042A05D340F853
:100DD000041B043A05D0042AF9D200F8011B013A99
:080DE000FBD1604670470000E2
:100DE80003000100040003060000000000000101E8
:100DF80001000000010100000000010100000000E6
:0C0E080000800040000400000090D003B7
:040000030000037581
:00000001FF
