:1000000000000120750300005D0300005F03000095
:1000100061030000630300006503000000000000AE
:100020000000000000000000000000006703000066
:1000300069030000000000006B0300006D03000076
:100040006F0300006F0300006F0300006F030000E8
:100050006F0300006F0300006F0300006F030000D8
:10006000610C00006F0300006F0300006F030000CD
:100070006F0300006F0300006F0300006F030000B8
:100080006F0300006F0300006F0300006F030000A8
:100090006F0300006F0300006F0300006F03000098
:1000A0006F0300006F0300006F0300006F03000088
:1000B0006F0300006F03000000000000000000005C
:1000C0006F0300006F0300006F0300006F03000068
:1000D0006F0300006F0300006F03000000000000CA
:1000E0000000000000000000000000000000000010
:1000F0000000000000000000000000000000000000
:1001000000000000000000000000000000000000EF
:1001100000000000000000000000000000000000DF
:1001200000000000000000000000000000000000CF
:1001300000000000000000000000000000000000BF
:1001400000000000000000000000000000000000AF
:10015000000000000000000000000000000000009F
:10016000000000000000000000000000000000008F
:10017000000000000000000000000000000000007F
:10018000000000000000000000000000000000006F
:10019000000000000000000000000000000000005F
:1001A000000000000000000000000000000000004F
:1001B000000000000000000000000000000000003F
:1001C000000000000000000000000000000000002F
:1001D000000000000000000000000000000000001F
:1001E000000000000000000000000000000000000F
:1001F00000000000000000000000000000000000FF
:10020000354936480A1A02D0072291438D463449AF
:1002100034480A1A06D00722914381F30988022242
:1002200082F3148830483149314A00F044F83148AB
:100230003149324A00F03FF831483249324A00F041
:100240003AF832483249334A00F035F832483349F7
:10025000334A00F030F833483349344A00F02BF881
:1002600033483449344A00F026F8344834490022EF
:1002700000F02CF833483449002200F027F83348C6
:100280003349091A082902DB002202604160314A21
:1002900090471F481F49884205D00268043003B4C4
:1002A000904703BCF7E700208646EC46002000217B
:1002B000294A9047FEE7884207D0521A05D00378B2
:1002C00001300B700131013AF9D17047884202D0F8
:1002D00002700130FAE770470000012000E00020C2
:1002E0000000012000000120D418000000000020C0
:1002F00004000020D0030000D0030000101800000C
:10030000D418000000000020000000203418000075
:1003100034180000341800003418000034180000AD
:10032000341800003418000034180000D4180000FD
:10033000D818000004000020040000200400002061
:1003400010050020100500201005002010050020D9
:10035000102500209D030000B90C0000FEE7FEE719
:10036000FEE7FEE7FEE7FEE7FEE7FEE7FEE7FEE765
:1003700000F002B8FFF7FCBF0F484FF007018843B9
:1003800085460E4880470E48016841F470010160BF
:10039000BFF34F8FBFF36F8FFFF732BF09480A4992
:1003A0000A4A884207D0521A05D0037801300B70F0
:1003B0000131013AF9D1704700000120850D00009C
:1003C00088ED00E03418000000000020000000204C
:1003D00001F0F8B9037813F0040216D003F0030318
:1003E000012B03D0022B09D0012070470A68008836
:1003F0000232C0F3831002440A60F5E70B684288BA
:10040000023303EB92130B60EEE7104670470000D7
:100410002DE9F04F044685B0861C00200F46154696
:1004200000F078FA3F4A51683960936803F58073A9
:100430005B1A924602F21C4702F5836902F21448E5
:10044000B34219D30020002D68D004F00F039B01A4
:1004500043F0050363F30F00DAF80430DAB2033235
:100460001E444AF822000020CAF8046000F054FA42
:10047000012005B0BDE8F08F0121384600F071FA87
:10048000484600F086FA404600F083FADAF80800A1
:100490000090C0B203300AEB80006946FFF79AFF74
:1004A000009B30BBDAB20AEB8202D16801919A1C40
:1004B0000133DBB20AEB83030092D3F80CB001F0F6
:1004C0000303012B22D0022B15D08346404600F0B7
:1004D00063FA10B1009BCAF808305946384600F05C
:1004E00040FADAF80830DAF8042003F580739B1A32
:1004F000A6E7D8B2CEE7BDF80630C3F389130333BD
:100500004FEA1B4B02EB93030093DFE7BDF8043087
:10051000C3F383134FEA1B4B1344F5E7A40544F0E0
:10052000060099E7D400002070470000034BD3E990
:100530000130C31A58425841704700BFD400002010
:100540002DE9FF41FFF7F2FF0546002840F0E28069
:10055000714CC4F81804BFF34F8FA3680093DBB24B
:10056000033304EB83006946FFF734FF009B18B1A7
:10057000D4F81824002A55D0DAB2991C013304EBC0
:100580008202DBB204EB8303D268DB68029302F0E1
:100590000303022B019200914FD1BDF806305F4852
:1005A000C3F38917502F3E4628BF502666F38F139A
:1005B00006F10801ADF8063000F07FFA0546002884
:1005C00000F0938000F0A8FA002301A90822284631
:1005D00000F0B5FA0099CB43DBB20133C9B2033165
:1005E000B6EB830F4FEA830804EB810122D908237D
:1005F0004246A6EB0806284600F0A1FAF6B24849A2
:1006000008F108033246284600F099FA009B0337A8
:1006100003EB97070097D4F81834002B41D1D4F896
:10062000106451E062689A4299D8A260284604B0EA
:10063000BDE8F08108233246E5E7012B55D1BDF82E
:1006400004303648C3F38311062928BF062161F31D
:10065000891302318900ADF8043000F02EFA054606
:10066000002842D000F058FA0023082201A92846A9
:1006700000F065FA0026BDF80420C2F38312B3002F
:10068000964203F10803C6D200994A1CC9B203314D
:10069000009204EB81010422284600F050FA013652
:1006A000E9E7284600F03CFAFFF740FF80F0010040
:1006B000C5B2BBE7F3685B7923B1336829461B6891
:1006C00030469847F3681E68002EF3D1284600F0A4
:1006D00027FA304600F01EF9D4F818340BB9009B05
:1006E000A360002000F018F9DEE7D4F8104454B9F4
:1006F0000C4B0D480D49C01AC008000440F0020020
:1007000000F05EF8D0E7236820469B689847E368CE
:100710001C68ECE7002589E7D400002020180000C1
:10072000E000002010180000181800003418000025
:100730002DE9F34704460E46924601A901221846C8
:100740009946FFF765FE1C4F10B3019D4FF000085E
:10075000AA1CC84508EB020125D11848002100F069
:10076000DDF880F31000000440EA1440E4006B1C44
:1007700004F03804DBB2EDB244F0010407EB83036C
:10078000033544EA881444EA8624D86047F82540B3
:100790003B781BB1FFF7D4FE0028FBD1FFF7C4FE66
:1007A00002B0BDE8F087C9B207EB81015AF82830E2
:1007B000CB6008F10108CCE7D4000020F004002051
:1007C00000231A46FFF7B4BF084A38B50123D2F810
:1007D000104413701D4604B938BDE3685D71236889
:1007E00020465B689847E3681C68F4E7D400002063
:1007F000044B1A5C012393404FF0A042C2F8083525
:10080000704700BF4918000008B50020FFF7F0FF4F
:100810000120FFF7EDFF0220FFF7EAFFBDE80840E7
:100820000320FFF7E5BFC20708B501460CD54FF01E
:10083000A0430322C3F84427C3F84827C3F84C2732
:10084000C3F85027FFF7E0FF8B070AD54FF0A0430E
:100850000C22C3F83427C3F83827C3F83C27C3F861
:10086000402708BD1FB50021039001AA44F20100F2
:10087000CDE9011100F004F805B05DF804FB0000BB
:1008800010B572B6FFF7A0FFFFF75AFE0028FBD1A4
:10089000104B114C1149E41AE408240444F00100FF
:1008A000FFF78EFF0E4B1B68DB0700D500BE0D491E
:1008B00044F00200FFF784FFBFF34F8F0A490B4B50
:1008C000CA6802F4E0621343CB60BFF34F8F00BFEE
:1008D000FDE700BF10180000181800004D180000B8
:1008E000F0ED00E05918000000ED00E00400FA050A
:1008F00072B6024A1368013313607047F404002093
:10090000034A1368013B136003B962B6704700BF26
:10091000F4040020FFF7ECBFFFF7F2BF10B5034669
:1009200053E8000F0A4643E8002494F0000FF7D183
:1009300010BD10B5034653E8002F42EA010043E81A
:10094000000494F0000FF6D110BD10B5034653E833
:10095000000F00EA010243E8002494F0000FF6D1F2
:1009600010BD10B5034653E8002F02EB010043E829
:10097000000494F0000FF6D110BD10B5034653E803
:10098000002FA2EB010043E8000494F0000FF6D121
:1009900010BD0121FFF7CDBF0021FFF7D6BF38B54D
:1009A00004460020FFF7B6FF226863681168994289
:1009B00013D9481E106011F8015CE368218A01FB1D
:1009C0000535A36811791B1ADBB2994200D2137165
:1009D0000020FFF7A1FF284638BD0025F8E738B50D
:1009E000054600200C46FFF795FF2A681368591C3E
:1009F0001160E968641A298AB4FBF1F41C70BDE83F
:100A000038400020FFF788BF2DE9F84FB0F806A066
:100A10004579D2F800B09DF828900AFB05F5043D11
:100A200088460BEB0301A94203F1040488BFA5EB40
:100A3000030BB4FBFAF607460AFB1644C2F800B0F3
:100A40004EB9AAEB04055D4528BF5D46BBF1000F1A
:100A500004D1BDE8F88F3F68013EF1E7043408EBAC
:100A600006003C442A46B9F1000F0DD02146ABEBFD
:100A7000050B00F032FBDA452E443F6855464FF037
:100A8000000428BF5D46E1E701462046EFE7F8B5E0
:100A900046790146721E0546002393422D6803D312
:100AA0000024A64202D8F8BD0133F6E70F682846B5
:100AB000FFF795FF01343946F3E72DE9F843068A3D
:100AC000CD1C0746FFF76BFF043E35440446B5FBDB
:100AD000F6F5F0B14FF48073EDB28380C680013D2E
:100AE000076081464FF00008A84512D23846FFF74C
:100AF00056FF064648B163790133637108F1010876
:100B0000C9F8000007608146EEE72046FFF7BFFF07
:100B100034462046BDE8F88301210430FFF721BFA9
:100B200010B5012104460430FFF727FF10F0FF0F36
:100B300004D12046BDE81040FFF7A9BF10BD1FB586
:100B400003920022009203AAFFF75EFF05B05DF852
:100B500004FB0000F7B506792F4D0C237343EF1803
:100B60003C7A002C55D1EA504B687B60477903688A
:100B70002246A446D4B2A7423CD8CA7843F30734ED
:100B80005201002CC3F30733D2B23DDB234F07EBF6
:100B9000040C8CF800230122640903F01F0302FAFD
:100BA00003F347F8243003684A78D3F8040502F0C9
:100BB000030220F003000243C3F80425D3F808051C
:100BC0008A7820F0030002F003020243C3F80825EC
:100BD000D3F810050A7820F00F0102F00F020A4343
:100BE000C3F810250C2303FB065501232B720020AC
:100BF00003B0F0BD940004F5A074013243F804C0C2
:100C00001C590194019CB5E7054C03F00F03E25415
:100C1000C9E70820ECE700BFF804002000E100E08D
:100C200014ED00E0036801221A600379034A0C21E5
:100C300001FB032302221A72704700BFF804002050
:100C4000036801229A6070478B0040330268DBB270
:100C50000120D05001F5A87152F821007047000022
:100C60002DE9F341104C114F114E00254FF48038FF
:100C7000236883B1D7F8043308FA05F21A420AD080
:100C80000023236023680193A4F50040019B80B2F8
:100C9000D6E9003198470135042D04F10404E7D169
:100CA00002B0BDE8F08100BF4081004000800040FC
:100CB000F804002070470000F7B50120FFF7B3FDEE
:100CC000154A92E803006B46012283E803008DF881
:100CD00001201248124A1946FFF73CFF08B1FFF7FE
:100CE000C1FD0E480F4C0D4E0F4FFFF79BFF44F018
:100CF00001043046FFF7A4FF00213046FFF7A4FFB0
:100D00000146384600F0B8F94FF47A754FF47A404E
:100D1000A047013DFAD1ECE78018000088180000D8
:100D2000B50C0000901800006C180000044B186807
:100D3000421C04BF034B1878831F58425841704728
:100D400030010010E00F00F0074B1B78062B09D193
:100D5000064B1B68C3F30313033B042B02D8044A5E
:100D6000D05C704700207047E00F00F0E80F00F003
:100D7000A5180000024AD2F80034002BFBD07047BF
:100D800000E0014010B5FFF7D1FF28B1874B884A3A
:100D90001B68C3F304231360FFF7D6FF10B1854B24
:100DA000854A1A60FFF7C2FF28B1844B844A1B684A
:100DB000C3F342331360FFF7C7FF20B1814AD36802
:100DC00023F08073D360FFF7B1FF40B14FF0804351
:100DD0000022C3F80C21C3F81021C3F83825FFF70F
:100DE000B3FF10B1784B03221A60FFF7ADFF40B19B
:100DF000764B05221A6001229A6700229A603F22F0
:100E00005A60734B1A68511C0BBF724B724B1A78A5
:100E10001B6802BF08331B68C3F30313062A4DD1B6
:100E2000033B042B03D86D4AD35C002B46D04FF014
:100E300080526B4BD2F80414C3F82015D2F8081472
:100E4000C3F82415D2F80C14C3F82815D2F81014DE
:100E5000C3F82C15D2F81414C3F83015D2F81814AE
:100E6000C3F83415D2F81C14C3F84015D2F8201476
:100E7000C3F84415D2F82414C3F84815D2F828143E
:100E8000C3F84C15D2F82C14C3F85015D2F830140E
:100E9000C3F85415D2F83414C3F86015D2F83814D6
:100EA000C3F86415D2F83C14C3F86815D2F840149E
:100EB000C3F86C15D2F84424C3F87025FFF736FF49
:100EC00028B1484B484A1B6803F04F031360FFF7F3
:100ED0002DFF48B14FF08043D3F80024D20744BF20
:100EE0006FF00102C3F80024394B1B68062B0CD1AC
:100EF000394B1B68033B042B02D83C4AD35C23B11B
:100F00003B4A136843F4806313603A4AD2F888304E
:100F100043F47003C2F88830BFF34F8FBFF36F8F75
:100F20002B4B1B68062B0FD12B4B1B68033B042B51
:100F300002D8314AD35C3BB14FF01023D3F80822DA
:100F40004FF08043C3F858254FF01023D3F8002208
:100F5000002A03DBD3F80432002B22DA27490123CD
:100F6000C1F80435FFF706FF4FF010201524C0F834
:100F70000042FFF7FFFEC0F80442FFF7FBFE00232C
:100F8000C1F80435FFF7F6FEBFF34F8F19491C4B2C
:100F9000CA6802F4E0621343CB60BFF34F8F00BF17
:100FA000FDE7184B184A1A6010BD00BF240300105B
:100FB0004035014074C007400DF0ADBA4402001046
:100FC0003C050040F0ED00E0A00500401056004058
:100FD00030010010E00F00F03401001096180000FE
:100FE00000C0004058020010E40E00409B180000B2
:100FF0003C17004000ED00E0A018000000E00140B8
:101000000400FA05000000200090D00338B5044623
:101010000846A26842B1236861685D1C8D4208BF22
:1010200000208B4208D2D054E3682BB1216862685B
:10103000914201D22146984723680133236038BD8D
:1010400070B54C1E09D41646C5B229463046FFF786
:10105000DDFF013CB4F1FF3FF7D170BD10F0100F80
:1010600008D108B510F4007F14BF30202020FFF70E
:10107000E7FF08BD704700000FB410B586B008AB9D
:1010800053F8044B0593002303936FF0004302933E
:10109000084B049300F094FB059A214601A800F048
:1010A00075F8044600F08DFB204606B0BDE8104000
:1010B00004B07047D1030000037853B159B1014423
:1010C000034613F8012F12B18B42FAD10B46181ABE
:1010D00070470346FBE70346F9E7844640EA01030D
:1010E00013F0030F18D18446202A0BD32DE9F00703
:1010F000B1E8F807A0E8F807A2F12002202AF7D209
:10110000BDE8F007042A07D351F8043B40F8043B3C
:10111000A2F10402042AF7D2002A05D011F8013BFB
:1011200000F8013B013AF9D16046704700F1010136
:1011300010F0030F11D010F8012B002A23D010F06B
:10114000030F0AD010F8012B002A1CD010F0030F57
:1011500003D010F8012B002A15D02DE970004FF0B4
:1011600001324FF0803350F8044BA4EB020525EA1E
:1011700004051D4000D1F6E7A0F1040070BC10F892
:10118000012B002AFBD1A0EB010070472DE9F04FA5
:1011900089B007460392002303600C4614F8011B34
:1011A000002900F0FA82DFF814B5E9E2002507E033
:1011B0005E2868D145F4805501E045F040051C46A5
:1011C000234613F8010B3028F2D81F2837D9A0F195
:1011D0002002102A33D801A151F822F0BB110000DF
:1011E0003F1200003F120000211200003F120000D9
:1011F0003F1200003F120000271200003F120000C3
:101200003F1200003F1200002D1200003F120000AC
:10121000331200003F1200003F120000391200009C
:1012200045F08005CBE745F40045C8E745F02005CB
:10123000C5E745F01005C2E745F40075BFE72A2869
:1012400021D1039A111D0391D2F800A0BAF1000F29
:10125000BCBFCAF1000A45F010051878A31C2AEAA1
:10126000EA7A2E2826D00021742847D07A2845D043
:101270006C2800F0A8804C2800F0AB80682800F0B3
:10128000B8801C463DE0A0F13002D2B2092A88BFE6
:101290004FF0000AE3D84FF0000A0AEB8A0A303810
:1012A00000EB4A0A13F8010BA0F13002D2B2092A6E
:1012B000F3D9D4E718782A280AD1039A111D03918B
:1012C0001168587802330029CEDB45F48075CBE7EE
:1012D0000133A0F13002D2B2092A88BF0021F4D82C
:1012E000002101EB8101303800EB410113F8010BC3
:1012F000A0F13002D2B2092AF3D9E4E71C4614F86F
:10130000010B002800F05582A0F12503DBB2532B1E
:1013100062D8A0F12503532B5ED8DFE813F07600E6
:101320005D005D005D005D005D005D005D005D00D5
:101330005D005D005D005D005D005D005D005D00C5
:101340005D005D005D005D005D005D005D005D00B5
:101350005D005D005D005D005D005D005D005D00A5
:101360005D005D005D005D005D005D005D005D0095
:101370005D005D005D005D005D005D005D005D0085
:101380005D005D00EB005D005D005D005D005D00E7
:101390005D005D005D005D005D007B0020015D0083
:1013A0005D005D005D0020015D005D005D005D0091
:1013B00095000E01D1005D005D00A6005D001901E1
:1013C0005D005D00ED001C4614F8010B45F00105C1
:1013D00097E745F001051C46B44B1E68002E00F04F
:1013E000CC8103AB0193009153462A463946B0475E
:1013F000C3E11878682803D05C1C45F0040580E739
:1014000045F008059C1C58787BE725213846FFF7F6
:10141000FDFDB2E1039B1A1D03921E780AF1FF3A0B
:101420003A4651462846FFF719FE31463846FFF73F
:10143000EDFDA94619F0100F00F09F813A46514684
:101440002020FFF7FDFD98E115F0080F06D03A685F
:10145000039B191D03911B681A708EE1039B1A1DD3
:1014600003921B683A681A6087E1039B1A1D039276
:10147000D3F800808E4BB8F1000F08BF984646465F
:1014800025F4007915F4807F15D04046FFF714FE4F
:101490000546AAEB050A3A4651464846FFF7DEFDE7
:1014A000002DC7D0454416F8011B3846FFF7AEFDA6
:1014B000B542F8D1BEE74046FFF738FE0546E8E7FB
:1014C000039B1A1D03921B6815F0800F0CBF0026AA
:1014D000232645F4807508211A46002B00F0298147
:1014E00005AB4FF0000805F4005CA64660468C464C
:1014F0000146D1E045F4005515F0800F1BD043F2B2
:10150000780643F25803782818BF1E4615F4807FEA
:1015100001D025F4007515F4804F32D0039B1A1DBD
:1015200003921B6815F0040F1FD01BB2002B20DAAA
:101530005B422D262DE00026E8E715F0800F0CBF5A
:101540000026302615F4807FE5D025F40075E2E70B
:1015500015F4807F07D025F400750026DBE745F4FD
:1015600080450026D7E70026D5E715F0080FDDD027
:10157000DBB215F0200F60D115F0400F18BF202608
:1015800007E0039B1A1D03921B6815F0040F4FD050
:101590009BB215F4807F14BF25F4007501215838E3
:1015A000202800F2AE8001A252F820F0D9140000E9
:1015B00003170000031700000317000003170000C3
:1015C00003170000031700000317000003170000B3
:1015D0000317000003170000031700006716000040
:1015E0000317000003170000031700000317000093
:1015F0006716000003170000031700000317000020
:1016000003170000031700003F160000D914000064
:101610000317000003170000031700000317000062
:10162000671600000317000003170000D91400001C
:1016300015F0080FADD0DBB2ABE72B26A9E71A46B1
:101640004FF00008002B5ED005A84FF0000803F013
:101650000703303300F8013B08F10108D2081346B4
:10166000002AF4D14FE018464FF00008002B4AD072
:101670004FF0000805F4004E4FF02C0973468E46DB
:1016800019462FE002F00F000A4C205C03F8010B12
:1016900008F10108120906D00029F3D002F00F006A
:1016A000054C205CF2E7744661462CE004050020FE
:1016B000CC180000AC180000BC180000CDCCCCCC7D
:1016C00008AB03EB080CABFB0032D20802EB820341
:1016D000A0EB430330330CF80C3C08F10108092857
:1016E0000DD910460029EBD008F00303032BE7D1F6
:1016F00008AB434403F80C9C08F10108E0E771468D
:1017000001E04FF00008A1EB080121EAE179AAEB22
:10171000090AAAEB080AFF2E0ED9AAF1020AC6F39B
:1017200007213846FFF772FCF1B23846FFF76EFC2E
:1017300004E04FF00008E6E7002E3DD13A4651465E
:101740002846FFF78BFC3A4649463020FFF778FCE5
:10175000B8F1000F0EDD0DF1140908F1FF38C8448F
:1017600098F8001046463846FFF750FCC14508F18E
:10177000FF38F5D115F0100F09D114F8011B61B134
:1017800025293FF413AD3846FFF740FCF5E73A460C
:1017900051462020FFF754FCEFE7BB682BB13A68B5
:1017A00079688A423CBF00219954386809B0BDE885
:1017B000F08F4FF0FF30F9E70AF1FF3AB4E700BFCE
:1017C0007047704710B504460146172000F008F82E
:1017D00000280CBF20464FF0FF3010BD7047704707
:1017E00038B504460D46FFF7F9FF074B1D6044F07E
:1017F0008004064B1C601A461368002BFCD1FFF7CF
:10180000EEFF014B186838BD0C05002008050020CC
:1018100066180000000000004518000000000303E7
:1018200004000020CC000020D40000200C00002088
:04183000180000009C
:101834004261636B656E647320666C75736865647E
:10184400006170700011121314466174616C20659C
:1018540072726F720053797374656D20726573656B
:10186400740054494D455200436F756E746572207F
:1018740076616C203A202564200D0A0000000306DE
:101884000000000000800040000400000338FDD880
:101894007047000001010100000001010000000088
:1018A4000101000000000000303132333435363796
:1018B40038396162636465663031323334353637C2
:1018C4003839414243444546286E756C6C29000002
:0418D4000090D003AD
:040000030000037581
:00000001FF
