:1000000000000120750300005D0300005F03000095
:1000100061030000630300006503000000000000AE
:100020000000000000000000000000006703000066
:1000300069030000000000006B0300006D03000076
:100040006F0300006F0300006F0300006F030000E8
:100050006F0300006F0300006F0300006F030000D8
:100060006F0300006F0300006F0300006F030000C8
:100070006F0300006F0300006F0300006F030000B8
:100080006F0300006F0300006F0300006F030000A8
:100090006F0300006F0300006F0300006F03000098
:1000A0006F0300006F0300006F0300006F03000088
:1000B0006F0300006F03000000000000000000005C
:1000C0006F0300006F0300006F0300006F03000068
:1000D0006F0300006F0300006F03000000000000CA
:1000E0000000000000000000000000000000000010
:1000F0000000000000000000000000000000000000
:1001000000000000000000000000000000000000EF
:1001100000000000000000000000000000000000DF
:1001200000000000000000000000000000000000CF
:1001300000000000000000000000000000000000BF
:1001400000000000000000000000000000000000AF
:10015000000000000000000000000000000000009F
:10016000000000000000000000000000000000008F
:10017000000000000000000000000000000000007F
:10018000000000000000000000000000000000006F
:10019000000000000000000000000000000000005F
:1001A000000000000000000000000000000000004F
:1001B000000000000000000000000000000000003F
:1001C000000000000000000000000000000000002F
:1001D000000000000000000000000000000000001F
:1001E000000000000000000000000000000000000F
:1001F00000000000000000000000000000000000FF
:10020000354936480A1A02D0072291438D463449AF
:1002100034480A1A06D00722914381F30988022242
:1002200082F3148830483149314A00F044F83148AB
:100230003149324A00F03FF831483249324A00F041
:100240003AF832483249334A00F035F832483349F7
:10025000334A00F030F833483349344A00F02BF881
:1002600033483449344A00F026F8344834490022EF
:1002700000F02CF833483449002200F027F83348C6
:100280003349091A082902DB002202604160314A21
:1002900090471F481F49884205D00268043003B4C4
:1002A000904703BCF7E700208646EC46002000217B
:1002B000294A9047FEE7884207D0521A05D00378B2
:1002C00001300B700131013AF9D17047884202D0F8
:1002D00002700130FAE770470000012000E00020C2
:1002E0000000012000000120500F0000000000204D
:1002F00004000020D0030000D0030000BC0E00006A
:10030000500F00000000002000000020BC0E000084
:10031000BC0E0000BC0E0000BC0E0000BC0E0000B5
:10032000BC0E0000BC0E0000BC0E0000500F000010
:10033000540F0000040000200400002004000020EE
:1003400010000020100000201000002010000020ED
:10035000102000209D030000D5030000FEE7FEE70B
:10036000FEE7FEE7FEE7FEE7FEE7FEE7FEE7FEE765
:1003700000F002B8FFF7FCBF0F484FF007018843B9
:1003800085460E4880470E48016841F470010160BF
:10039000BFF34F8FBFF36F8FFFF732BF09480A4992
:1003A0000A4A884207D0521A05D0037801300B70F0
:1003B0000131013AF9D170470000012081040000A9
:1003C00088ED00E0BC0E00000000002000000020CE
:1003D00000F04EBD4FF0A04408B51048104E00F09C
:1003E000C9F90323C4F844374FF400350C23C4F88B
:1003F0003437C4F80855D4F810359A04FBD4C4F83F
:100400000C55304600F0B6F9D4F810359B04FBD5F6
:10041000C4F80855034800F0ADF9ECE7BC0E000045
:10042000D80E0000F40E0000044B1868421C04BFF4
:10043000034B1878831F5842584170473001001011
:10044000E00F00F0074B1B78062B09D1064B1B6809
:10045000C3F30313033B042B02D8044AD05C704758
:1004600000207047E00F00F0E80F00F0200F0000C0
:10047000024AD2F80034002BFBD0704700E0014064
:1004800010B5FFF7D1FF28B1874B884A1B68C3F32B
:1004900004231360FFF7D6FF10B1854B854A1A601D
:1004A000FFF7C2FF28B1844B844A1B68C3F3423371
:1004B0001360FFF7C7FF20B1814AD36823F0807330
:1004C000D360FFF7B1FF40B14FF080430022C3F883
:1004D0000C21C3F81021C3F83825FFF7B3FF10B182
:1004E000784B03221A60FFF7ADFF40B1764B05222F
:1004F0001A6001229A6700229A603F225A60734B69
:100500001A68511C0BBF724B724B1A781B6802BFE2
:1005100008331B68C3F30313062A4DD1033B042B96
:1005200003D86D4AD35C002B46D04FF080526B4B02
:10053000D2F80414C3F82015D2F80814C3F824150F
:10054000D2F80C14C3F82815D2F81014C3F82C15DF
:10055000D2F81414C3F83015D2F81814C3F83415AF
:10056000D2F81C14C3F84015D2F82014C3F844156F
:10057000D2F82414C3F84815D2F82814C3F84C153F
:10058000D2F82C14C3F85015D2F83014C3F854150F
:10059000D2F83414C3F86015D2F83814C3F86415CF
:1005A000D2F83C14C3F86815D2F84014C3F86C159F
:1005B000D2F84424C3F87025FFF736FF28B1484B22
:1005C000484A1B6803F04F031360FFF72DFF48B143
:1005D0004FF08043D3F80024D20744BF6FF00102EC
:1005E000C3F80024394B1B68062B0CD1394B1B6810
:1005F000033B042B02D83C4AD35C23B13B4A13682B
:1006000043F4806313603A4AD2F8883043F47003AD
:10061000C2F88830BFF34F8FBFF36F8F2B4B1B682F
:10062000062B0FD12B4B1B68033B042B02D8314AFE
:10063000D35C3BB14FF01023D3F808224FF0804336
:10064000C3F858254FF01023D3F80022002A03DB0B
:10065000D3F80432002B22DA27490123C1F80435EC
:10066000FFF706FF4FF010201524C0F80042FFF7F7
:10067000FFFEC0F80442FFF7FBFE0023C1F804357B
:10068000FFF7F6FEBFF34F8F19491C4BCA6802F4FF
:10069000E0621343CB60BFF34F8F00BFFDE7184B01
:1006A000184A1A6010BD00BF2403001040350140F5
:1006B00074C007400DF0ADBA440200103C05004084
:1006C000F0ED00E0A00500401056004030010010A1
:1006D000E00F00F034010010110F000000C00040D6
:1006E00058020010E40E0040160F00003C170040B6
:1006F00000ED00E01B0F000000E001400400FA05DF
:10070000000000200090D00338B504460846A268D7
:1007100042B1236861685D1C8D4208BF00208B4296
:1007200008D2D054E3682BB121686268914201D2AB
:100730002146984723680133236038BD70B54C1EAD
:1007400009D41646C5B229463046FFF7DDFF013C05
:10075000B4F1FF3FF7D170BD10F0100F08D108B50C
:1007600010F4007F14BF30202020FFF7E7FF08BD02
:10077000704700000FB410B586B008AB53F8044BB7
:100780000593002303936FF000430293084B0493F7
:1007900000F06CFB059A214601A800F04DF80446D4
:1007A00000F065FB204606B0BDE8104004B070477D
:1007B000D1030000037853B159B10144034613F843
:1007C000012F12B18B42FAD10B46181A704703461B
:1007D000FBE70346F9E700F1010110F0030F11D028
:1007E00010F8012B002A23D010F0030F0AD010F8C4
:1007F000012B002A1CD010F0030F03D010F8012B9E
:10080000002A15D02DE970004FF001324FF08033EF
:1008100050F8044BA4EB020525EA04051D4000D165
:10082000F6E7A0F1040070BC10F8012B002AFBD100
:10083000A0EB0100704700002DE9F04F89B007469A
:100840000392002303600C4614F8011B002900F0FA
:10085000FA82DFF814B5E9E2002507E05E2868D1E6
:1008600045F4805501E045F040051C46234613F849
:10087000010B3028F2D81F2837D9A0F12002102A06
:1008800033D801A151F822F067080000EB080000FE
:10089000EB080000CD080000EB080000EB080000AA
:1008A000EB080000D3080000EB080000EB08000094
:1008B000EB080000D9080000EB080000DF0800008A
:1008C000EB080000EB080000E508000045F080059B
:1008D000CBE745F40045C8E745F02005C5E745F0FE
:1008E0001005C2E745F40075BFE72A2821D1039A15
:1008F000111D0391D2F800A0BAF1000FBCBFCAF1DC
:10090000000A45F010051878A31C2AEAEA7A2E2876
:1009100026D00021742847D07A2845D06C2800F0D2
:10092000A8804C2800F0AB80682800F0B8801C46F6
:100930003DE0A0F13002D2B2092A88BF4FF0000A90
:10094000E3D84FF0000A0AEB8A0A303800EB4A0A73
:1009500013F8010BA0F13002D2B2092AF3D9D4E77F
:1009600018782A280AD1039A111D03911168587822
:1009700002330029CEDB45F48075CBE70133A0F1CB
:100980003002D2B2092A88BF0021F4D8002101EB3D
:100990008101303800EB410113F8010BA0F1300266
:1009A000D2B2092AF3D9E4E71C4614F8010B002857
:1009B00000F05582A0F12503DBB2532B62D8A0F1E1
:1009C0002503532B5ED8DFE813F076005D005D0051
:1009D0005D005D005D005D005D005D005D005D002F
:1009E0005D005D005D005D005D005D005D005D001F
:1009F0005D005D005D005D005D005D005D005D000F
:100A00005D005D005D005D005D005D005D005D00FE
:100A10005D005D005D005D005D005D005D005D00EE
:100A20005D005D005D005D005D005D005D005D00DE
:100A3000EB005D005D005D005D005D005D005D0040
:100A40005D005D005D007B0020015D005D005D00DC
:100A50005D0020015D005D005D005D0095000E0100
:100A6000D1005D005D00A6005D0019015D005D0024
:100A7000ED001C4614F8010B45F0010597E745F021
:100A800001051C46B44B1E68002E00F0CC8103AB60
:100A90000193009153462A463946B047C3E118787E
:100AA000682803D05C1C45F0040580E745F0080584
:100AB0009C1C58787BE725213846FFF725FEB2E1DC
:100AC000039B1A1D03921E780AF1FF3A3A465146DB
:100AD0002846FFF741FE31463846FFF715FEA94686
:100AE00019F0100F00F09F813A4651462020FFF781
:100AF00025FE98E115F0080F06D03A68039B191DF2
:100B000003911B681A708EE1039B1A1D03921B68E8
:100B10003A681A6087E1039B1A1D0392D3F800809C
:100B20008E4BB8F1000F08BF9846464625F4007971
:100B300015F4807F15D04046FFF73CFE0546AAEB32
:100B4000050A3A4651464846FFF706FE002DC7D033
:100B5000454416F8011B3846FFF7D6FDB542F8D1DB
:100B6000BEE74046FFF737FE0546E8E7039B1A1D40
:100B700003921B6815F0800F0CBF0026232645F456
:100B8000807508211A46002B00F0298105AB4FF033
:100B9000000805F4005CA64660468C460146D1E09C
:100BA00045F4005515F0800F1BD043F2780643F250
:100BB0005803782818BF1E4615F4807F01D025F40D
:100BC000007515F4804F32D0039B1A1D03921B68E9
:100BD00015F0040F1FD01BB2002B20DA5B422D262C
:100BE0002DE00026E8E715F0800F0CBF0026302628
:100BF00015F4807FE5D025F40075E2E715F4807FD9
:100C000007D025F400750026DBE745F48045002673
:100C1000D7E70026D5E715F0080FDDD0DBB215F0D9
:100C2000200F60D115F0400F18BF202607E0039B6E
:100C30001A1D03921B6815F0040F4FD09BB215F4D8
:100C4000807F14BF25F4007501215838202800F258
:100C5000AE8001A252F820F0850B0000AF0D00001D
:100C6000AF0D0000AF0D0000AF0D0000AF0D000094
:100C7000AF0D0000AF0D0000AF0D0000AF0D000084
:100C8000AF0D0000AF0D0000130D0000AF0D000010
:100C9000AF0D0000AF0D0000AF0D0000130D000000
:100CA000AF0D0000AF0D0000AF0D0000AF0D000054
:100CB000AF0D0000EB0C0000850B0000AF0D000035
:100CC000AF0D0000AF0D0000AF0D0000130D0000D0
:100CD000AF0D0000AF0D0000850B000015F0080FF0
:100CE000ADD0DBB2ABE72B26A9E71A464FF00008E0
:100CF000002B5ED005A84FF0000803F00703303347
:100D000000F8013B08F10108D2081346002AF4D18B
:100D10004FE018464FF00008002B4AD04FF0000873
:100D200005F4004E4FF02C0973468E4619462FE00D
:100D300002F00F000A4C205C03F8010B08F10108D7
:100D4000120906D00029F3D002F00F00054C205CF8
:100D5000F2E7744661462CE004000020480F0000D2
:100D6000280F0000380F0000CDCCCCCC08AB03EB33
:100D7000080CABFB0032D20802EB8203A0EB43036A
:100D800030330CF80C3C08F1010809280DD9104645
:100D90000029EBD008F00303032BE7D108AB434451
:100DA00003F80C9C08F10108E0E7714601E04FF000
:100DB0000008A1EB080121EAE179AAEB090AAAEBF4
:100DC000080AFF2E0ED9AAF1020AC6F307213846F7
:100DD000FFF79AFCF1B23846FFF796FC04E04FF0BB
:100DE0000008E6E7002E3DD13A4651462846FFF777
:100DF000B3FC3A4649463020FFF7A0FCB8F1000F9B
:100E00000EDD0DF1140908F1FF38C84498F8001000
:100E100046463846FFF778FCC14508F1FF38F5D162
:100E200015F0100F09D114F8011B61B125293FF409
:100E300013AD3846FFF768FCF5E73A4651462020E7
:100E4000FFF77CFCEFE7BB682BB13A6879688A4210
:100E50003CBF00219954386809B0BDE8F08F4FF0CD
:100E6000FF30F9E70AF1FF3AB4E700BF7047704777
:100E700010B504460146172000F008F800280CBF02
:100E800020464FF0FF3010BD7047704738B504461C
:100E90000D46FFF7F9FF074B1D6044F08004064B39
:100EA0001C601A461368002BFCD1FFF7EEFF014BC4
:0C0EB000186838BD0C000020080000206D
:100EBC004D61696E204170706C69636174696F6E0D
:100ECC002053746172746564200D0A004275747449
:100EDC006F6E20696E205072657373656420737435
:100EEC0061746521210D0A00427574746F6E20695E
:100EFC006E2052656C6561736564207374617465F2
:100F0C0021210D0A00000001010100000001010077
:100F1C0000000001010000000000000030313233FD
:100F2C003435363738396162636465663031323353
:100F3C00343536373839414243444546286E756C52
:040F4C006C2900000C
:040F50000090D0033A
:040000030000037581
:00000001FF
